Archive member included to satisfy reference by file (symbol)

build\build_tmp\libs\platform\system\libcpup.a(cpup_core.o)
                              build\libs\hi3861\release\no_mesh\libwifi_base.o (hi_cpup_load_check_proc)
C:\Users\YY\.huawei-liteos-studio\tools\hi3861\hcc_riscv32_win\bin\..\lib\gcc\riscv32-unknown-elf\7.3.0\libgcc.a(_clzsi2.o)
                              build\libs\liblitekernel_base.o (__clzsi2)
C:\Users\YY\.huawei-liteos-studio\tools\hi3861\hcc_riscv32_win\bin\..\lib\gcc\riscv32-unknown-elf\7.3.0\libgcc.a(_divdi3.o)
                              build\libs\hi3861\release\no_mesh\libwifi_base.o (__divdi3)
C:\Users\YY\.huawei-liteos-studio\tools\hi3861\hcc_riscv32_win\bin\..\lib\gcc\riscv32-unknown-elf\7.3.0\libgcc.a(_udivdi3.o)
                              build\libs\hi3861\release\no_mesh\libwifi_base.o (__udivdi3)
C:\Users\YY\.huawei-liteos-studio\tools\hi3861\hcc_riscv32_win\bin\..\lib\gcc\riscv32-unknown-elf\7.3.0\libgcc.a(_umoddi3.o)
                              build\libs\hi3861\release\no_mesh\libwifi_base.o (__umoddi3)
C:\Users\YY\.huawei-liteos-studio\tools\hi3861\hcc_riscv32_win\bin\..\lib\gcc\riscv32-unknown-elf\7.3.0\libgcc.a(save-restore.o)
                              build\libs\hi3861\release\no_mesh\libwifi_base.o (__riscv_save_12)
C:\Users\YY\.huawei-liteos-studio\tools\hi3861\hcc_riscv32_win\bin\..\lib\gcc\riscv32-unknown-elf\7.3.0\libgcc.a(_clz.o)
                              C:\Users\YY\.huawei-liteos-studio\tools\hi3861\hcc_riscv32_win\bin\..\lib\gcc\riscv32-unknown-elf\7.3.0\libgcc.a(_clzsi2.o) (__clz_tab)
build\libs\hi3861\release\no_mesh\liblitekernel_flash.a(los_exc_redirect.o)
                              build\libs\libasm_flash.o (osExcSyscall)
build\libs\hi3861\release\no_mesh\liblitekernel_flash.a(los_runstop_redirect.o)
                              build\libs\libasm_flash.o (g_runStopCSRArr)
build\libs\hi3861\release\no_mesh\liblitekernel_flash.a(los_startup.o)
                              (_start)
build\libs\hi3861\release\no_mesh\liblitekernel_flash.a(main.o)
                              build\libs\hi3861\release\no_mesh\liblitekernel_flash.a(los_startup.o) (main)
build\libs\hi3861\release\no_mesh\liblitekernel_flash.a(printf_redirect.o)
                              build\libs\hi3861\release\no_mesh\liblitekernel_flash.a(main.o) (register_log_hook)
build\libs\hi3861\release\no_mesh\liblitekernel_flash.a(los_uart.o)
                              build\libs\hi3861\release\no_mesh\liblitekernel_flash.a(main.o) (uart_puts)
build\libs\hi3861\release\no_mesh\liblitekernel_flash.a(shmsg.o)
                              build\libs\hi3861\release\no_mesh\liblitekernel_flash.a(los_uart.o) (hi_shell_get_register_output_func)
build\libs\hi3861\release\no_mesh\liblitekernel_flash.a(shcmd.o)
                              build\libs\hi3861\release\no_mesh\liblitekernel_flash.a(shmsg.o) (OsCmdKeyShift)
build\libs\hi3861\release\no_mesh\liblitekernel_flash.a(shcmdparse.o)
                              build\libs\hi3861\release\no_mesh\liblitekernel_flash.a(shcmd.o) (OsCmdParse)
build\libs\libm_flash.a(finite.o)
                              build\libs\hi3861\release\no_mesh\liblitekernel_flash.a(printf_redirect.o) (finite)
build\libs\libm_flash.a(modf.o)
                              build\libs\hi3861\release\no_mesh\liblitekernel_flash.a(printf_redirect.o) (modf)
build\build_tmp\libs\platform\os\Huawei_LiteOS\libres_cfg.a(los_init_redirect.o)
                              build\libs\hi3861\release\no_mesh\liblitekernel_flash.a(main.o) (OsBoardConfig)
build\build_tmp\libs\platform\os\Huawei_LiteOS\libres_cfg.a(los_tick_redirect.o)
                              build\build_tmp\libs\platform\os\Huawei_LiteOS\libres_cfg.a(los_init_redirect.o) (OsPlatformTickHandler)
build\build_tmp\libs\platform\os\Huawei_LiteOS\libres_cfg.a(los_track.o)
                              build\build_tmp\libs\platform\os\Huawei_LiteOS\libres_cfg.a(los_init_redirect.o) (OsTrackhook)
build\libs\hi3861\release\no_mesh\libsystem.a(fpb_lib.o)
                              build\libs\hi3861\release\no_mesh\libwifi_base.o (hi_fpb_add_patch)
build\libs\hi3861\release\no_mesh\libsystem.a(patch_init.o)
                              build\libs\hi3861\release\no_mesh\liblitekernel_flash.a(main.o) (hi_patch_init)
build\libs\hi3861\release\no_mesh\libsystem.a(hi_os_task_flash.o)
                              build\libs\libbsp_base.o (hi_task_get_info)
build\libs\hi3861\release\no_mesh\libsystem.a(hi_lowpower.o)
                              build\libs\hi3861\release\no_mesh\liblitekernel_flash.a(shmsg.o) (hi_lpc_get_type)
build\libs\hi3861\release\no_mesh\libsystem.a(hi_system_error.o)
                              build\libs\hi3861\release\no_mesh\libsystem.a(hi_lowpower.o) (hi_syserr_wdg_init)
build\libs\hi3861\release\no_mesh\libsystem.a(lowspeed_32k_clk.o)
                              build\libs\hi3861\release\no_mesh\libsystem.a(hi_lowpower.o) (hi_32k_is_stable)
build\libs\hi3861\release\no_mesh\libsystem.a(sal_init.o)
                              build\build_tmp\libs\platform\system\libcpup.a(cpup_core.o) (watchdog_feed)
build\libs\hi3861\release\no_mesh\libsystem.a(sal_os_dfx.o)
                              build\libs\hi3861\release\no_mesh\libsystem.a(hi_system_error.o) (hi_get_track_info)
build\libs\hi3861\release\no_mesh\libsystem.a(sal_sys.o)
                              build\libs\hi3861\release\no_mesh\liblitekernel_flash.a(shmsg.o) (sal_uart_port_allocation)
build\libs\hi3861\release\no_mesh\libsystem.a(sdk_ver.o)
                              build\libs\hi3861\release\no_mesh\libsystem.a(hi_system_error.o) (hi_get_boot_ver)
build\libs\hi3861\release\no_mesh\libsystem.a(hi_nvm.o)
                              build\libs\hi3861\release\no_mesh\libsystem.a(sal_init.o) (hi_nv_write)
build\build_tmp\libs\platform\drivers\libuart.a(hi_uart.o)
                              build\libs\hi3861\release\no_mesh\liblitekernel_flash.a(shmsg.o) (hi_uart_is_buf_empty)
build\build_tmp\libs\platform\drivers\libuart.a(uart.o)
                              build\build_tmp\libs\platform\drivers\libuart.a(hi_uart.o) (uart_open)
build\build_tmp\libs\platform\drivers\libuart.a(uart_drv.o)
                              build\build_tmp\libs\platform\drivers\libuart.a(uart.o) (uart_init_circ_buf)
build\build_tmp\libs\platform\system\libupg.a(upg_common.o)
                              build\libs\hi3861\release\no_mesh\libsystem.a(sdk_ver.o) (upg_get_efuse_code_ver)
build\build_tmp\libs\platform\system\libupg.a(upg_start_up.o)
                              build\build_tmp\libs\platform\system\libupg.a(upg_common.o) (upg_save_start_up_nv)
build\build_tmp\libs\platform\system\libupg.a(upg_check_file.o)
                              build\build_tmp\libs\platform\system\libupg.a(upg_common.o) (upg_get_common_head_from_flash)
build\build_tmp\libs\platform\system\libupg.a(upg_check_secure.o)
                              build\build_tmp\libs\platform\system\libupg.a(upg_common.o) (upg_is_secure_efuse)
build\build_tmp\libs\platform\system\libupg.a(upg_user_verify.o)
                              build\build_tmp\libs\platform\system\libupg.a(upg_check_file.o) (upg_user_define_verify)
build\build_tmp\libs\platform\system\libupg.a(upg_check_boot_bin.o)
                              build\build_tmp\libs\platform\system\libupg.a(upg_check_file.o) (upg_check_boot_file)
build\libs\hi3861\release\no_mesh\libwifi.a(alg_common.o)
                              build\libs\hi3861\release\no_mesh\libwifi_base.o (alg_common_add_slot_bytes)
build\libs\hi3861\release\no_mesh\libwifi.a(mac_data.o)
                              build\libs\hi3861\release\no_mesh\libwifi_base.o (mac_get_data_type)
build\libs\hi3861\release\no_mesh\libwifi.a(mac_device.o)
                              build\libs\hi3861\release\no_mesh\libwifi_base.o (mac_res_get_dev)
build\libs\hi3861\release\no_mesh\libwifi.a(mac_frame.o)
                              build\libs\hi3861\release\no_mesh\libwifi_base.o (mac_find_ie)
build\libs\hi3861\release\no_mesh\libwifi.a(mac_ie.o)
                              build\libs\hi3861\release\no_mesh\libwifi_base.o (mac_proc_ht_opern_ie)
build\libs\hi3861\release\no_mesh\libwifi.a(mac_mib.o)
                              build\libs\hi3861\release\no_mesh\libwifi.a(mac_frame.o) (mac_mib_get_wpa_pairwise_cipher_suite)
build\libs\hi3861\release\no_mesh\libwifi.a(mac_pm_driver.o)
                              build\libs\hi3861\release\no_mesh\libwifi_base.o (pm_enable_front_end)
build\libs\hi3861\release\no_mesh\libwifi.a(mac_user.o)
                              build\libs\hi3861\release\no_mesh\libwifi_base.o (mac_user_res_init)
build\libs\hi3861\release\no_mesh\libwifi.a(mac_vap.o)
                              build\libs\hi3861\release\no_mesh\libwifi_base.o (mac_vap_res_init)
build\libs\hi3861\release\no_mesh\libwifi.a(dmac_arp_offload_rom.o)
                              build\libs\hi3861\release\no_mesh\libwifi_base.o (dmac_get_arpoffload_drop_frame)
build\libs\hi3861\release\no_mesh\libwifi.a(dmac_event.o)
                              build\libs\hi3861\release\no_mesh\libwifi_base.o (dmac_send_sys_event)
build\libs\hi3861\release\no_mesh\libwifi.a(dmac_wow.o)
                              build\libs\hi3861\release\no_mesh\libwifi_base.o (dmac_get_host_is_poweroff)
build\libs\hi3861\release\no_mesh\libwifi.a(oal_netbuf.o)
                              build\libs\hi3861\release\no_mesh\libwifi_base.o (oal_dev_netbuf_add_to_list_tail)
build\libs\hi3861\release\no_mesh\libwifi.a(oal_util.o)
                              build\libs\hi3861\release\no_mesh\libwifi_base.o (oal_bit_find_first_bit_four_byte)
build\libs\hi3861\release\no_mesh\libwifi_flash.a(hal_hi1131_coex_reg.o)
                              build\libs\hi3861\release\no_mesh\libwifi.a(dmac_event.o) (hi1131_btcoex_init)
build\libs\hi3861\release\no_mesh\libwifi_flash.a(hal_hi1131_pm.o)
                              build\libs\hi3861\release\no_mesh\libwifi.a(dmac_event.o) (hi1131_pm_disable_ext_tsf)
build\libs\hi3861\release\no_mesh\libwifi_flash.a(hal_hi1131_resv_cb.o)
                              build\libs\hi3861\release\no_mesh\libwifi.a(dmac_event.o) (hi1131_initialize_machw_ram)
build\libs\hi3861\release\no_mesh\libwifi_flash.a(hal_hi1131_rf_ram.o)
                              build\libs\hi3861\release\no_mesh\libwifi.a(dmac_event.o) (hi1131_psm_rf_sleep)
build\libs\hi3861\release\no_mesh\libwifi_flash.a(xtal_frequency_compesation.o)
                              build\libs\hi3861\release\no_mesh\libwifi_flash.a(hal_hi1131_rf_ram.o) (get_xtal_frequency_compesation_hook)
build\libs\hi3861\release\no_mesh\libwifi_flash.a(hcc_dmac.o)
                              build\libs\hi3861\release\no_mesh\libwifi.a(dmac_event.o) (hcc_dmac_tx_control_event)
build\libs\hi3861\release\no_mesh\libwifi_flash.a(hcc_hmac.o)
                              build\libs\hi3861\release\no_mesh\libwifi_flash.a(hcc_dmac.o) (hcc_to_hmac_data_event_dispatch)
build\libs\hi3861\release\no_mesh\libwifi_flash.a(dmac_anchor.o)
                              build\libs\hi3861\release\no_mesh\libwifi_base.o (dmac_anchor_tx_process)
build\libs\hi3861\release\no_mesh\libwifi_flash.a(dmac_arp_offload.o)
                              build\libs\hi3861\release\no_mesh\libwifi.a(dmac_event.o) (dmac_arp_offload_need_to_send_free_arp)
build\libs\hi3861\release\no_mesh\libwifi_flash.a(dmac_btcoex.o)
                              build\libs\hi3861\release\no_mesh\libwifi.a(dmac_event.o) (dmac_btcoex_set_abort_preempt_type)
build\libs\hi3861\release\no_mesh\libwifi_flash.a(dmac_config.o)
                              build\libs\hi3861\release\no_mesh\libwifi.a(dmac_event.o) (dmac_cali_hmac2dmac_recv)
build\libs\hi3861\release\no_mesh\libwifi_flash.a(dmac_main.o)
                              build\libs\hi3861\release\no_mesh\libwifi.a(mac_pm_driver.o) (dmac_reset_flow_stat)
build\libs\hi3861\release\no_mesh\libwifi_flash.a(dmac_mgmt_classifier_patch.o)
                              build\libs\hi3861\release\no_mesh\libsystem.a(patch_init.o) (dmac_mgmt_classifier_add_patch)
build\libs\hi3861\release\no_mesh\libwifi_flash.a(dmac_rx_data_patch.o)
                              build\libs\hi3861\release\no_mesh\libsystem.a(patch_init.o) (dmac_rx_data_add_patch)
build\libs\hi3861\release\no_mesh\libwifi_flash.a(dmac_scan_patch.o)
                              build\libs\hi3861\release\no_mesh\libsystem.a(patch_init.o) (dmac_scan_add_patch)
build\libs\hi3861\release\no_mesh\libwifi_flash.a(dmac_sdp.o)
                              build\libs\hi3861\release\no_mesh\libwifi_flash.a(dmac_mgmt_classifier_patch.o) (dmac_is_sdp_frame)
build\libs\hi3861\release\no_mesh\libwifi_flash.a(dmac_temp_protect.o)
                              build\libs\hi3861\release\no_mesh\libwifi.a(dmac_event.o) (dmac_tsensor_init)
build\libs\hi3861\release\no_mesh\libwifi_flash.a(hmac_any.o)
                              build\libs\hi3861\release\no_mesh\libwifi.a(dmac_event.o) (hmac_any_rx_encrypt_frame)
build\libs\hi3861\release\no_mesh\libwifi_flash.a(hmac_config.o)
                              build\libs\hi3861\release\no_mesh\libwifi_flash.a(hmac_any.o) (hmac_config_send_event)
build\libs\hi3861\release\no_mesh\libwifi_flash.a(hmac_device.o)
                              build\libs\hi3861\release\no_mesh\libwifi_flash.a(hmac_any.o) (hmac_get_device_stru)
build\libs\hi3861\release\no_mesh\libwifi_flash.a(hmac_event.o)
                              build\libs\hi3861\release\no_mesh\libwifi_flash.a(hcc_dmac.o) (hmac_from_dmac_rx_control_handle)
build\libs\hi3861\release\no_mesh\libwifi_flash.a(hmac_fsm.o)
                              build\libs\hi3861\release\no_mesh\libwifi_flash.a(hmac_config.o) (hmac_fsm_change_state)
build\libs\hi3861\release\no_mesh\libwifi_flash.a(hmac_mgmt_ap.o)
                              build\libs\hi3861\release\no_mesh\libwifi_flash.a(hmac_config.o) (hmac_handle_disconnect_rsp_ap)
build\libs\hi3861\release\no_mesh\libwifi_flash.a(hmac_mgmt_bss_comm.o)
                              build\libs\hi3861\release\no_mesh\libwifi_flash.a(hmac_mgmt_ap.o) (hmac_get_auc_avail_protocol_mode)
build\libs\hi3861\release\no_mesh\libwifi_flash.a(hmac_mgmt_classifier.o)
                              build\libs\hi3861\release\no_mesh\libwifi_flash.a(hmac_config.o) (hmac_mgmt_tx_action)
build\libs\hi3861\release\no_mesh\libwifi_flash.a(hmac_mgmt_sta.o)
                              build\libs\hi3861\release\no_mesh\libwifi_flash.a(hmac_mgmt_bss_comm.o) (hmac_is_support_11grate)
build\libs\hi3861\release\no_mesh\libwifi_flash.a(hmac_protection.o)
                              build\libs\hi3861\release\no_mesh\libwifi_flash.a(hmac_mgmt_ap.o) (hmac_user_protection_sync_data)
build\libs\hi3861\release\no_mesh\libwifi_flash.a(hmac_rx_data.o)
                              build\libs\hi3861\release\no_mesh\libwifi_flash.a(hmac_event.o) (hmac_rx_process_data_ap)
build\libs\hi3861\release\no_mesh\libwifi_flash.a(hmac_rx_filter.o)
                              build\libs\hi3861\release\no_mesh\libwifi_flash.a(hmac_config.o) (hmac_find_is_ap_up)
build\libs\hi3861\release\no_mesh\libwifi_flash.a(hmac_scan.o)
                              build\libs\hi3861\release\no_mesh\libwifi_flash.a(hmac_config.o) (hmac_scan_clean_all_bss)
build\libs\hi3861\release\no_mesh\libwifi_flash.a(hmac_sdp.o)
                              build\libs\hi3861\release\no_mesh\libwifi_flash.a(hmac_event.o) (hmac_sdp_enable_for_publish)
build\libs\hi3861\release\no_mesh\libwifi_flash.a(hmac_sme_sta.o)
                              build\libs\hi3861\release\no_mesh\libwifi_flash.a(hmac_event.o) (hmac_process_scan_req)
build\libs\hi3861\release\no_mesh\libwifi_flash.a(hmac_tx_amsdu.o)
                              build\libs\hi3861\release\no_mesh\libwifi_flash.a(hmac_config.o) (hmac_amsdu_mem_alloc)
build\libs\hi3861\release\no_mesh\libwifi_flash.a(hmac_tx_data.o)
                              build\libs\hi3861\release\no_mesh\libwifi_flash.a(hmac_config.o) (hmac_free_netbuf_list)
build\libs\hi3861\release\no_mesh\libwifi_flash.a(hmac_uapsd.o)
                              build\libs\hi3861\release\no_mesh\libwifi_flash.a(hmac_event.o) (hmac_config_set_uapsden)
build\libs\hi3861\release\no_mesh\libwifi_flash.a(hmac_user.o)
                              build\libs\hi3861\release\no_mesh\libwifi_flash.a(hmac_device.o) (hmac_user_res_init)
build\libs\hi3861\release\no_mesh\libwifi_flash.a(hmac_vap.o)
                              build\libs\hi3861\release\no_mesh\libwifi_flash.a(hmac_device.o) (hmac_vap_res_exit)
build\libs\hi3861\release\no_mesh\libwifi_flash.a(oal_net.o)
                              build\libs\hi3861\release\no_mesh\libwifi_flash.a(hmac_mgmt_ap.o) (oal_ieee80211_channel_to_frequency)
build\libs\hi3861\release\no_mesh\libwifi_flash.a(oal_skbuff.o)
                              build\libs\hi3861\release\no_mesh\libwifi.a(oal_netbuf.o) (dev_alloc_skb)
build\libs\hi3861\release\no_mesh\libwifi_flash.a(hi_wifi_driver_api.o)
                              build\libs\hi3861\release\no_mesh\libwifi_flash.a(hmac_rx_filter.o) (hwal_get_promis_filter)
build\libs\hi3861\release\no_mesh\libwifi_flash.a(wal_11d.o)
                              build\libs\hi3861\release\no_mesh\libwifi_flash.a(hi_wifi_driver_api.o) (wal_regdomain_update)
build\libs\hi3861\release\no_mesh\libwifi_flash.a(wal_anchor.o)
                              build\libs\hi3861\release\no_mesh\libwifi_flash.a(hmac_mgmt_sta.o) (wal_anchor_call_cb)
build\libs\hi3861\release\no_mesh\libwifi_flash.a(wal_cfg80211.o)
                              build\libs\hi3861\release\no_mesh\libwifi_flash.a(wal_anchor.o) (wal_get_wifi_2ghz_band)
build\libs\hi3861\release\no_mesh\libwifi_flash.a(wal_cfg80211_apt.o)
                              build\libs\hi3861\release\no_mesh\libwifi_flash.a(wal_anchor.o) (wal_anchor_save_event_cb)
build\libs\hi3861\release\no_mesh\libwifi_flash.a(wal_customize.o)
                              build\libs\hi3861\release\no_mesh\libwifi_flash.a(hi_wifi_driver_api.o) (wal_customize_init_evm_paras)
build\libs\hi3861\release\no_mesh\libwifi_flash.a(wal_event.o)
                              build\libs\hi3861\release\no_mesh\libwifi_flash.a(hi_wifi_driver_api.o) (wal_get_mac_status_code)
build\libs\hi3861\release\no_mesh\libwifi_flash.a(wal_event_msg.o)
                              build\libs\hi3861\release\no_mesh\libwifi_flash.a(hi_wifi_driver_api.o) (wal_check_and_release_msg_resp)
build\libs\hi3861\release\no_mesh\libwifi_flash.a(wal_hipriv.o)
                              build\libs\hi3861\release\no_mesh\libwifi_flash.a(wal_customize.o) (wal_hipriv_setcountry)
build\libs\hi3861\release\no_mesh\libwifi_flash.a(wal_ioctl.o)
                              build\libs\hi3861\release\no_mesh\libwifi_flash.a(wal_hipriv.o) (wal_get_cmd_one_arg)
build\libs\hi3861\release\no_mesh\libwifi_flash.a(wal_main.o)
                              build\libs\hi3861\release\no_mesh\libwifi_flash.a(hi_wifi_driver_api.o) (hi_wifi_device_init)
build\libs\hi3861\release\no_mesh\libwifi_flash.a(wal_net.o)
                              build\libs\hi3861\release\no_mesh\libwifi_flash.a(wal_main.o) (wal_init_dev_addr)
build\libs\hi3861\release\no_mesh\libwifi_flash.a(wal_regdb.o)
                              build\libs\hi3861\release\no_mesh\libwifi_flash.a(wal_11d.o) (wal_regdb_find_db)
build\libs\hi3861\release\no_mesh\libwifi_flash.a(wal_scan.o)
                              build\libs\hi3861\release\no_mesh\libwifi_flash.a(wal_event.o) (wal_free_scan_mgmt_resource)
build\libs\hi3861\release\no_mesh\libwifi_flash.a(alg_common_config.o)
                              build\libs\hi3861\release\no_mesh\libwifi_flash.a(hmac_event.o) (alg_config_param)
build\libs\hi3861\release\no_mesh\libwifi_flash.a(hal_hi1131_cali.o)
                              build\libs\hi3861\release\no_mesh\libwifi_flash.a(hal_hi1131_rf_ram.o) (get_g_st_cali_data_ptr)
build\libs\hi3861\release\no_mesh\libwifi_flash.a(hal_hi1131_cali_ram.o)
                              build\libs\hi3861\release\no_mesh\libwifi_flash.a(hal_hi1131_rf_ram.o) (hi1131_rf_cali_comp)
build\libs\hi3861\release\no_mesh\libwifi_flash.a(hal_hi1131_coridc.o)
                              build\libs\hi3861\release\no_mesh\libwifi_flash.a(hal_hi1131_cali_ram.o) (cordic_rotate)
build\libs\hi3861\release\no_mesh\libwifi_flash.a(dmac_crypto_aes_ccm.o)
                              build\libs\hi3861\release\no_mesh\libwifi_flash.a(hmac_any.o) (dmac_ccm_decrypt_frame)
build\libs\hi3861\release\no_mesh\libwifi_flash.a(hmac_11i.o)
                              build\libs\hi3861\release\no_mesh\libwifi_flash.a(hmac_event.o) (hmac_config_11i_add_key)
build\libs\hi3861\release\no_mesh\libwifi_flash.a(hmac_blockack.o)
                              build\libs\hi3861\release\no_mesh\libwifi_flash.a(hmac_mgmt_bss_comm.o) (hmac_ba_timeout_fn)
build\libs\hi3861\release\no_mesh\libwifi_flash.a(hmac_chan_mgmt.o)
                              build\libs\hi3861\release\no_mesh\libwifi_flash.a(wal_11d.o) (get_ast_freq_map_2g_elem)
build\libs\hi3861\release\no_mesh\libwifi_flash.a(hmac_crypto_tkip.o)
                              build\libs\hi3861\release\no_mesh\libwifi_flash.a(hmac_11i.o) (hmac_crypto_tkip_enmic)
build\libs\hi3861\release\no_mesh\libwifi_flash.a(hmac_edca_opt.o)
                              build\libs\hi3861\release\no_mesh\libwifi_flash.a(hmac_vap.o) (hmac_edca_opt_timeout_fn)
build\libs\hi3861\release\no_mesh\libwifi_flash.a(hmac_encap_frame.o)
                              build\libs\hi3861\release\no_mesh\libwifi_flash.a(hmac_mgmt_bss_comm.o) (hmac_encap_sa_query_req)
build\libs\hi3861\release\no_mesh\libwifi_flash.a(hmac_encap_frame_ap.o)
                              build\libs\hi3861\release\no_mesh\libwifi_flash.a(hmac_mgmt_ap.o) (hmac_mgmt_encap_asoc_rsp_ap)
build\libs\hi3861\release\no_mesh\libwifi_flash.a(hmac_encap_frame_sta.o)
                              build\libs\hi3861\release\no_mesh\libwifi_flash.a(hmac_mgmt_sta.o) (hmac_mgmt_encap_asoc_req_sta)
build\libs\hi3861\release\no_mesh\libwifi_flash.a(hmac_frag.o)
                              build\libs\hi3861\release\no_mesh\libwifi_flash.a(hmac_tx_data.o) (hmac_frag_process_proc)
build\libs\hi3861\release\no_mesh\libwifi_flash.a(hmac_main.o)
                              build\libs\hi3861\release\no_mesh\libwifi_flash.a(wal_main.o) (hmac_main_init)
build\libs\hi3861\release\no_mesh\libwifi_flash.a(oal_main.o)
                              build\libs\hi3861\release\no_mesh\libwifi_flash.a(wal_main.o) (oal_main_init)
build\libs\hi3861\release\no_mesh\libwifi_flash.a(oam_main.o)
                              build\libs\hi3861\release\no_mesh\libwifi_flash.a(wal_main.o) (oam_main_init)
build\build_tmp\libs\platform\os\Huawei_LiteOS\net\wpa_supplicant\libwpa.a(wifi_api.o)
                              build\libs\hi3861\release\no_mesh\libwifi_flash.a(wal_main.o) (hi_wifi_sta_start)
build\build_tmp\libs\platform\os\Huawei_LiteOS\net\wpa_supplicant\libwpa.a(wifi_softap_api.o)
                              build\libs\hi3861\release\no_mesh\libwifi_flash.a(hi_wifi_driver_api.o) (hi_wifi_softap_stop)
build\build_tmp\libs\platform\os\Huawei_LiteOS\net\wpa_supplicant\libwpa.a(wpa_cli_rtos.o)
                              build\build_tmp\libs\platform\os\Huawei_LiteOS\net\wpa_supplicant\libwpa.a(wifi_api.o) (wpa_cli_scan)
build\build_tmp\libs\platform\os\Huawei_LiteOS\net\wpa_supplicant\libwpa.a(main_rtos.o)
                              build\build_tmp\libs\platform\os\Huawei_LiteOS\net\wpa_supplicant\libwpa.a(wifi_softap_api.o) (g_global_conf)
build\build_tmp\libs\platform\os\Huawei_LiteOS\net\wpa_supplicant\libwpa.a(ap_config.o)
                              build\build_tmp\libs\platform\os\Huawei_LiteOS\net\wpa_supplicant\libwpa.a(main_rtos.o) (hostapd_config_defaults)
build\build_tmp\libs\platform\os\Huawei_LiteOS\net\wpa_supplicant\libwpa.a(hostapd.o)
                              build\build_tmp\libs\platform\os\Huawei_LiteOS\net\wpa_supplicant\libwpa.a(main_rtos.o) (hostapd_for_each_interface)
build\build_tmp\libs\platform\os\Huawei_LiteOS\net\wpa_supplicant\libwpa.a(hw_features.o)
                              build\build_tmp\libs\platform\os\Huawei_LiteOS\net\wpa_supplicant\libwpa.a(hostapd.o) (hostapd_free_hw_features)
build\build_tmp\libs\platform\os\Huawei_LiteOS\net\wpa_supplicant\libwpa.a(ieee802_1x.o)
                              build\build_tmp\libs\platform\os\Huawei_LiteOS\net\wpa_supplicant\libwpa.a(hostapd.o) (ieee802_1x_new_station)
build\build_tmp\libs\platform\os\Huawei_LiteOS\net\wpa_supplicant\libwpa.a(sta_info.o)
                              build\build_tmp\libs\platform\os\Huawei_LiteOS\net\wpa_supplicant\libwpa.a(ieee802_1x.o) (ap_get_sta)
build\build_tmp\libs\platform\os\Huawei_LiteOS\net\wpa_supplicant\libwpa.a(utils.o)
                              build\build_tmp\libs\platform\os\Huawei_LiteOS\net\wpa_supplicant\libwpa.a(hostapd.o) (hostapd_prune_associations)
build\build_tmp\libs\platform\os\Huawei_LiteOS\net\wpa_supplicant\libwpa.a(wpa_auth.o)
                              build\build_tmp\libs\platform\os\Huawei_LiteOS\net\wpa_supplicant\libwpa.a(hostapd.o) (wpa_init_keys)
build\build_tmp\libs\platform\os\Huawei_LiteOS\net\wpa_supplicant\libwpa.a(wpa_auth_glue.o)
                              build\build_tmp\libs\platform\os\Huawei_LiteOS\net\wpa_supplicant\libwpa.a(hostapd.o) (hostapd_setup_wpa)
build\build_tmp\libs\platform\os\Huawei_LiteOS\net\wpa_supplicant\libwpa.a(wpa_auth_ie.o)
                              build\build_tmp\libs\platform\os\Huawei_LiteOS\net\wpa_supplicant\libwpa.a(wpa_auth.o) (wpa_auth_gen_wpa_ie)
build\build_tmp\libs\platform\os\Huawei_LiteOS\net\wpa_supplicant\libwpa.a(hw_features_common.o)
                              build\build_tmp\libs\platform\os\Huawei_LiteOS\net\wpa_supplicant\libwpa.a(hw_features.o) (hw_get_channel_chan)
build\build_tmp\libs\platform\os\Huawei_LiteOS\net\wpa_supplicant\libwpa.a(ieee802_11_common.o)
                              build\build_tmp\libs\platform\os\Huawei_LiteOS\net\wpa_supplicant\libwpa.a(wifi_api.o) (ieee80211_freq_to_chan)
build\build_tmp\libs\platform\os\Huawei_LiteOS\net\wpa_supplicant\libwpa.a(wpa_common.o)
                              build\build_tmp\libs\platform\os\Huawei_LiteOS\net\wpa_supplicant\libwpa.a(wpa_auth.o) (wpa_mic_len)
build\build_tmp\libs\platform\os\Huawei_LiteOS\net\wpa_supplicant\libwpa.a(aes-omac1.o)
                              build\build_tmp\libs\platform\os\Huawei_LiteOS\net\wpa_supplicant\libwpa.a(wpa_common.o) (omac1_aes_128)
build\build_tmp\libs\platform\os\Huawei_LiteOS\net\wpa_supplicant\libwpa.a(aes-wrap.o)
                              build\build_tmp\libs\platform\os\Huawei_LiteOS\net\wpa_supplicant\libwpa.a(wpa_auth.o) (aes_wrap)
build\build_tmp\libs\platform\os\Huawei_LiteOS\net\wpa_supplicant\libwpa.a(crypto_mbedtls.o)
                              build\build_tmp\libs\platform\os\Huawei_LiteOS\net\wpa_supplicant\libwpa.a(wpa_common.o) (hmac_md5)
build\build_tmp\libs\platform\os\Huawei_LiteOS\net\wpa_supplicant\libwpa.a(random.o)
                              build\build_tmp\libs\platform\os\Huawei_LiteOS\net\wpa_supplicant\libwpa.a(wpa_auth.o) (random_get_bytes)
build\build_tmp\libs\platform\os\Huawei_LiteOS\net\wpa_supplicant\libwpa.a(rc4.o)
                              build\build_tmp\libs\platform\os\Huawei_LiteOS\net\wpa_supplicant\libwpa.a(wpa_auth.o) (rc4_skip)
build\build_tmp\libs\platform\os\Huawei_LiteOS\net\wpa_supplicant\libwpa.a(sha1-prf.o)
                              build\build_tmp\libs\platform\os\Huawei_LiteOS\net\wpa_supplicant\libwpa.a(wpa_auth.o) (sha1_prf)
build\build_tmp\libs\platform\os\Huawei_LiteOS\net\wpa_supplicant\libwpa.a(sha256-prf.o)
                              build\build_tmp\libs\platform\os\Huawei_LiteOS\net\wpa_supplicant\libwpa.a(wpa_auth.o) (sha256_prf)
build\build_tmp\libs\platform\os\Huawei_LiteOS\net\wpa_supplicant\libwpa.a(driver_hisi.o)
                              build\build_tmp\libs\platform\os\Huawei_LiteOS\net\wpa_supplicant\libwpa.a(wifi_api.o) (hisi_set_usr_app_ie)
build\build_tmp\libs\platform\os\Huawei_LiteOS\net\wpa_supplicant\libwpa.a(driver_hisi_ioctl.o)
                              build\build_tmp\libs\platform\os\Huawei_LiteOS\net\wpa_supplicant\libwpa.a(driver_hisi.o) (hisi_ioctl_set_ap)
build\build_tmp\libs\platform\os\Huawei_LiteOS\net\wpa_supplicant\libwpa.a(drivers.o)
                              build\build_tmp\libs\platform\os\Huawei_LiteOS\net\wpa_supplicant\libwpa.a(main_rtos.o) (wpa_drivers)
build\build_tmp\libs\platform\os\Huawei_LiteOS\net\wpa_supplicant\libwpa.a(eap_server_methods.o)
                              build\build_tmp\libs\platform\os\Huawei_LiteOS\net\wpa_supplicant\libwpa.a(main_rtos.o) (eap_server_unregister_methods)
build\build_tmp\libs\platform\os\Huawei_LiteOS\net\wpa_supplicant\libwpa.a(eapol_auth_sm.o)
                              build\build_tmp\libs\platform\os\Huawei_LiteOS\net\wpa_supplicant\libwpa.a(ieee802_1x.o) (eapol_auth_free)
build\build_tmp\libs\platform\os\Huawei_LiteOS\net\wpa_supplicant\libwpa.a(l2_packet_rtos.o)
                              build\build_tmp\libs\platform\os\Huawei_LiteOS\net\wpa_supplicant\libwpa.a(driver_hisi.o) (l2_packet_get_own_addr)
build\build_tmp\libs\platform\os\Huawei_LiteOS\net\wpa_supplicant\libwpa.a(common.o)
                              build\build_tmp\libs\platform\os\Huawei_LiteOS\net\wpa_supplicant\libwpa.a(wifi_api.o) (hwaddr_aton)
build\build_tmp\libs\platform\os\Huawei_LiteOS\net\wpa_supplicant\libwpa.a(os_rtos.o)
                              build\build_tmp\libs\platform\os\Huawei_LiteOS\net\wpa_supplicant\libwpa.a(common.o) (os_get_time)
build\build_tmp\libs\platform\os\Huawei_LiteOS\net\wpa_supplicant\libwpa.a(wpa_debug.o)
                              build\build_tmp\libs\platform\os\Huawei_LiteOS\net\wpa_supplicant\libwpa.a(main_rtos.o) (wpa_debug_level)
build\build_tmp\libs\platform\os\Huawei_LiteOS\net\wpa_supplicant\libwpa.a(wpabuf.o)
                              build\build_tmp\libs\platform\os\Huawei_LiteOS\net\wpa_supplicant\libwpa.a(ieee802_11_common.o) (wpabuf_alloc)
build\build_tmp\libs\platform\os\Huawei_LiteOS\net\wpa_supplicant\libwpa.a(ctrl_iface_rtos.o)
                              build\build_tmp\libs\platform\os\Huawei_LiteOS\net\wpa_supplicant\libwpa.a(wpa_cli_rtos.o) (g_ctrl_iface_data)
build\build_tmp\libs\platform\os\Huawei_LiteOS\net\wpa_supplicant\libwpa.a(events.o)
                              build\build_tmp\libs\platform\os\Huawei_LiteOS\net\wpa_supplicant\libwpa.a(driver_hisi.o) (wpa_supplicant_event)
build\build_tmp\libs\platform\os\Huawei_LiteOS\net\wpa_supplicant\libwpa.a(main_rtos.o)
                              build\build_tmp\libs\platform\os\Huawei_LiteOS\net\wpa_supplicant\libwpa.a(events.o) (wpa_supplicant_reconnect_timeout)
build\build_tmp\libs\platform\os\Huawei_LiteOS\net\wpa_supplicant\libwpa.a(scan.o)
                              build\build_tmp\libs\platform\os\Huawei_LiteOS\net\wpa_supplicant\libwpa.a(events.o) (wpa_supplicant_enabled_networks)
build\build_tmp\libs\platform\os\Huawei_LiteOS\net\wpa_supplicant\libwpa.a(wpa_supplicant.o)
                              build\build_tmp\libs\platform\os\Huawei_LiteOS\net\wpa_supplicant\libwpa.a(events.o) (wpa_set_wep_keys)
build\build_tmp\libs\platform\os\Huawei_LiteOS\net\wpa_supplicant\libwpa.a(wpas_glue.o)
                              build\build_tmp\libs\platform\os\Huawei_LiteOS\net\wpa_supplicant\libwpa.a(wpa_supplicant.o) (wpa_supplicant_init_eapol)
build\build_tmp\libs\platform\os\Huawei_LiteOS\net\wpa_supplicant\libwpa.a(ctrl_iface_rtos.o)
                              build\build_tmp\libs\platform\os\Huawei_LiteOS\net\wpa_supplicant\libwpa.a(main_rtos.o) (hostapd_ctrl_iface_init)
build\build_tmp\libs\platform\os\Huawei_LiteOS\net\wpa_supplicant\libwpa.a(eap_register.o)
                              build\build_tmp\libs\platform\os\Huawei_LiteOS\net\wpa_supplicant\libwpa.a(main_rtos.o) (eap_server_register_methods)
build\build_tmp\libs\platform\os\Huawei_LiteOS\net\wpa_supplicant\libwpa.a(ap_drv_ops.o)
                              build\build_tmp\libs\platform\os\Huawei_LiteOS\net\wpa_supplicant\libwpa.a(ieee802_1x.o) (hostapd_sta_flags_to_drv)
build\build_tmp\libs\platform\os\Huawei_LiteOS\net\wpa_supplicant\libwpa.a(ap_mlme.o)
                              build\build_tmp\libs\platform\os\Huawei_LiteOS\net\wpa_supplicant\libwpa.a(sta_info.o) (mlme_deauthenticate_indication)
build\build_tmp\libs\platform\os\Huawei_LiteOS\net\wpa_supplicant\libwpa.a(beacon.o)
                              build\build_tmp\libs\platform\os\Huawei_LiteOS\net\wpa_supplicant\libwpa.a(hostapd.o) (ieee802_11_set_beacon)
build\build_tmp\libs\platform\os\Huawei_LiteOS\net\wpa_supplicant\libwpa.a(drv_callbacks.o)
                              build\build_tmp\libs\platform\os\Huawei_LiteOS\net\wpa_supplicant\libwpa.a(events.o) (hostapd_event)
build\build_tmp\libs\platform\os\Huawei_LiteOS\net\wpa_supplicant\libwpa.a(eap_user_db.o)
                              build\build_tmp\libs\platform\os\Huawei_LiteOS\net\wpa_supplicant\libwpa.a(ieee802_1x.o) (hostapd_get_eap_user)
build\build_tmp\libs\platform\os\Huawei_LiteOS\net\wpa_supplicant\libwpa.a(ieee802_11.o)
                              build\build_tmp\libs\platform\os\Huawei_LiteOS\net\wpa_supplicant\libwpa.a(beacon.o) (hostapd_eid_supp_rates)
build\build_tmp\libs\platform\os\Huawei_LiteOS\net\wpa_supplicant\libwpa.a(ieee802_11_ht.o)
                              build\build_tmp\libs\platform\os\Huawei_LiteOS\net\wpa_supplicant\libwpa.a(beacon.o) (hostapd_eid_ht_capabilities)
build\build_tmp\libs\platform\os\Huawei_LiteOS\net\wpa_supplicant\libwpa.a(driver_common.o)
                              build\build_tmp\libs\platform\os\Huawei_LiteOS\net\wpa_supplicant\libwpa.a(events.o) (wpa_scan_results_free)
build\build_tmp\libs\platform\os\Huawei_LiteOS\net\wpa_supplicant\libwpa.a(eap_common.o)
                              build\build_tmp\libs\platform\os\Huawei_LiteOS\net\wpa_supplicant\libwpa.a(eapol_auth_sm.o) (eap_get_id)
build\build_tmp\libs\platform\os\Huawei_LiteOS\net\wpa_supplicant\libwpa.a(eap_methods.o)
                              build\build_tmp\libs\platform\os\Huawei_LiteOS\net\wpa_supplicant\libwpa.a(wpa_supplicant.o) (eap_peer_unregister_methods)
build\build_tmp\libs\platform\os\Huawei_LiteOS\net\wpa_supplicant\libwpa.a(eap_server.o)
                              build\build_tmp\libs\platform\os\Huawei_LiteOS\net\wpa_supplicant\libwpa.a(eapol_auth_sm.o) (eap_server_sm_init)
build\build_tmp\libs\platform\os\Huawei_LiteOS\net\wpa_supplicant\libwpa.a(eapol_supp_sm.o)
                              build\build_tmp\libs\platform\os\Huawei_LiteOS\net\wpa_supplicant\libwpa.a(events.o) (eapol_sm_notify_config)
build\build_tmp\libs\platform\os\Huawei_LiteOS\net\wpa_supplicant\libwpa.a(wpa.o)
                              build\build_tmp\libs\platform\os\Huawei_LiteOS\net\wpa_supplicant\libwpa.a(wpa_supplicant.o) (wpa_sm_rx_eapol)
build\build_tmp\libs\platform\os\Huawei_LiteOS\net\wpa_supplicant\libwpa.a(wpa_ie.o)
                              build\build_tmp\libs\platform\os\Huawei_LiteOS\net\wpa_supplicant\libwpa.a(events.o) (wpa_parse_wpa_ie)
build\build_tmp\libs\platform\os\Huawei_LiteOS\net\wpa_supplicant\libwpa.a(bss.o)
                              build\build_tmp\libs\platform\os\Huawei_LiteOS\net\wpa_supplicant\libwpa.a(events.o) (wpa_bss_remove)
build\build_tmp\libs\platform\os\Huawei_LiteOS\net\wpa_supplicant\libwpa.a(config.o)
                              build\build_tmp\libs\platform\os\Huawei_LiteOS\net\wpa_supplicant\libwpa.a(wpa_supplicant.o) (wpa_config_free)
build\build_tmp\libs\platform\os\Huawei_LiteOS\net\wpa_supplicant\libwpa.a(ctrl_iface.o)
                              build\build_tmp\libs\platform\os\Huawei_LiteOS\net\wpa_supplicant\libwpa.a(ctrl_iface_rtos.o) (wpa_supplicant_ctrl_iface_process)
build\build_tmp\libs\platform\os\Huawei_LiteOS\net\wpa_supplicant\libwpa.a(eap_register.o)
                              build\build_tmp\libs\platform\os\Huawei_LiteOS\net\wpa_supplicant\libwpa.a(wpa_supplicant.o) (eap_register_methods)
build\build_tmp\libs\platform\os\Huawei_LiteOS\net\wpa_supplicant\libwpa.a(aes-unwrap.o)
                              build\build_tmp\libs\platform\os\Huawei_LiteOS\net\wpa_supplicant\libwpa.a(wpa.o) (aes_unwrap)
build\build_tmp\libs\platform\os\Huawei_LiteOS\net\wpa_supplicant\libwpa.a(eap.o)
                              build\build_tmp\libs\platform\os\Huawei_LiteOS\net\wpa_supplicant\libwpa.a(eapol_supp_sm.o) (eap_peer_sm_init)
build\build_tmp\libs\platform\drivers\libadc.a(hi_adc.o)
                              build\libs\hi3861\release\no_mesh\libwifi_flash.a(hal_hi1131_rf_ram.o) (hi_adc_read)
build\build_tmp\libs\components\at\libat.a(at_printf.o)
                              build\libs\hi3861\release\no_mesh\libwifi_flash.a(hal_hi1131_rf_ram.o) (hi_at_printf)
build\build_tmp\libs\components\at\libat.a(hi_at.o)
                              build\build_tmp\libs\components\at\libat.a(at_printf.o) (hi_at_get_register_output_func)
build\build_tmp\libs\components\at\libat.a(at.o)
                              build\build_tmp\libs\components\at\libat.a(hi_at.o) (at_cmd_process)
build\build_tmp\libs\components\at\libat.a(at_cmd.o)
                              build\build_tmp\libs\components\at\libat.a(hi_at.o) (at_get_list)
build\build_tmp\libs\components\at\libat.a(at_general.o)
                              build\build_tmp\libs\components\at\libat.a(hi_at.o) (at_send_serial_data)
build\build_tmp\libs\components\at\libat.a(at_hipriv.o)
                              build\build_tmp\libs\components\at\libat.a(hi_at.o) (hi_at_hipriv_cmd_register)
build\build_tmp\libs\components\at\libat.a(at_io.o)
                              build\build_tmp\libs\components\at\libat.a(hi_at.o) (hi_at_io_cmd_register)
build\build_tmp\libs\components\at\libat.a(at_lowpower.o)
                              build\build_tmp\libs\components\at\libat.a(hi_at.o) (hi_at_lowpower_cmd_register)
build\build_tmp\libs\components\at\libat.a(at_parse.o)
                              build\build_tmp\libs\components\at\libat.a(at.o) (at_cmd_parse)
build\build_tmp\libs\components\at\libat.a(at_wifi.o)
                              build\build_tmp\libs\components\at\libat.a(hi_at.o) (hi_at_sta_cmd_register)
build\libs\libc_flash.a(rand.o)
                              build\build_tmp\libs\platform\os\Huawei_LiteOS\net\wpa_supplicant\libwpa.a(os_rtos.o) (rand)
build\libs\libc_flash.a(snprintf.o)
                              build\build_tmp\libs\platform\os\Huawei_LiteOS\net\wpa_supplicant\libwpa.a(sta_info.o) (snprintf)
build\libs\libc_flash.a(vsnprintf.o)
                              build\build_tmp\libs\platform\os\Huawei_LiteOS\net\wpa_supplicant\libwpa.a(common.o) (vsnprintf)
build\libs\libc_flash.a(abs.o)
                              build\libs\hi3861\release\no_mesh\libwifi.a(alg_common.o) (abs)
build\libs\libc_flash.a(atoi.o)
                              build\libs\hi3861\release\no_mesh\libwifi_flash.a(wal_hipriv.o) (atoi)
build\libs\libc_flash.a(qsort.o)
                              build\build_tmp\libs\platform\os\Huawei_LiteOS\net\wpa_supplicant\libwpa.a(common.o) (qsort)
build\libs\libc_flash.a(strtol.o)
                              build\build_tmp\libs\components\at\libat.a(at.o) (strtoul)
build\libs\libc_flash.a(memchr.o)
                              build\libs\hi3861\release\no_mesh\liblitekernel_flash.a(printf_redirect.o) (memchr)
build\libs\libc_flash.a(strcpy.o)
                              build\build_tmp\libs\platform\os\Huawei_LiteOS\net\wpa_supplicant\libwpa.a(os_rtos.o) (strcpy)
build\libs\libc_flash.a(strdup.o)
                              build\build_tmp\libs\platform\os\Huawei_LiteOS\net\wpa_supplicant\libwpa.a(os_rtos.o) (strdup)
build\libs\libc_flash.a(strlcpy.o)
                              build\build_tmp\libs\platform\os\Huawei_LiteOS\net\wpa_supplicant\libwpa.a(os_rtos.o) (strlcpy)
build\libs\libc_flash.a(strncasecmp.o)
                              build\build_tmp\libs\platform\os\Huawei_LiteOS\net\wpa_supplicant\libwpa.a(os_rtos.o) (strncasecmp)
build\libs\libc_flash.a(strncmp.o)
                              build\libs\hi3861\release\no_mesh\liblitekernel_flash.a(shmsg.o) (strncmp)
build\libs\libc_flash.a(strsep.o)
                              build\build_tmp\libs\components\at\libat.a(at.o) (strsep)
build\libs\libc_flash.a(strstr.o)
                              build\build_tmp\libs\platform\os\Huawei_LiteOS\net\wpa_supplicant\libwpa.a(wifi_api.o) (strstr)
build\libs\libc_flash.a(gmtime.o)
                              build\build_tmp\libs\platform\os\Huawei_LiteOS\net\wpa_supplicant\libwpa.a(os_rtos.o) (gmtime)
build\libs\libc_flash.a(gmtime_r.o)
                              build\libs\libc_flash.a(gmtime.o) (__gmtime_r)
build\libs\libc_flash.a(localtime.o)
                              build\build_tmp\libs\platform\os\Huawei_LiteOS\net\wpa_supplicant\libwpa.a(os_rtos.o) (localtime)
build\libs\libc_flash.a(localtime_r.o)
                              build\libs\libc_flash.a(localtime.o) (__localtime_r)
build\libs\libc_flash.a(mktime.o)
                              build\build_tmp\libs\platform\os\Huawei_LiteOS\net\wpa_supplicant\libwpa.a(os_rtos.o) (mktime)
build\libs\libc_flash.a(tolower.o)
                              build\libs\libc_flash.a(strncasecmp.o) (tolower)
build\libs\libc_flash.a(intscan.o)
                              build\libs\libc_flash.a(strtol.o) (__intscan)
build\libs\libc_flash.a(shgetc.o)
                              build\libs\libc_flash.a(strtol.o) (__shlim)
build\libs\libc_flash.a(__uflow.o)
                              build\libs\libc_flash.a(shgetc.o) (__uflow)
build\libs\libc_flash.a(vfprintf.o)
                              build\libs\libc_flash.a(vsnprintf.o) (vfprintf)
build\libs\libc_flash.a(stpcpy.o)
                              build\libs\libc_flash.a(strcpy.o) (__stpcpy)
build\libs\libc_flash.a(strcspn.o)
                              build\libs\libc_flash.a(strsep.o) (strcspn)
build\libs\libc_flash.a(strnlen.o)
                              build\libs\libc_flash.a(vfprintf.o) (strnlen)
build\libs\libc_flash.a(__secs_to_tm.o)
                              build\libs\libc_flash.a(gmtime_r.o) (__secs_to_tm)
build\libs\libc_flash.a(__tm_to_secs.o)
                              build\libs\libc_flash.a(mktime.o) (__tm_to_secs)
build\libs\libc_flash.a(__tz.o)
                              build\libs\libc_flash.a(gmtime_r.o) (__utc)
build\libs\libc_flash.a(__year_to_secs.o)
                              build\libs\libc_flash.a(__tm_to_secs.o) (__year_to_secs)
build\libs\libc_flash.a(strerror.o)
                              build\libs\libc_flash.a(vfprintf.o) (strerror)
build\libs\libc_flash.a(__lockfile.o)
                              build\libs\libc_flash.a(vfprintf.o) (__lockfile)
build\libs\libc_flash.a(__toread.o)
                              build\libs\libc_flash.a(__uflow.o) (__toread)
build\libs\libc_flash.a(__towrite.o)
                              build\libs\libc_flash.a(vfprintf.o) (__towrite)
build\libs\libc_flash.a(fwrite.o)
                              build\libs\libc_flash.a(vfprintf.o) (__fwritex)
build\libs\libc_flash.a(strchrnul.o)
                              build\libs\libc_flash.a(strcspn.o) (__strchrnul)
build\libs\libc_flash.a(__month_to_secs.o)
                              build\libs\libc_flash.a(__tm_to_secs.o) (__month_to_secs)
build\build_tmp\libs\platform\system\libcfg.a(sal_cfg.o)
                              build\libs\hi3861\release\no_mesh\liblitekernel_flash.a(los_exc_redirect.o) (hi_tee_irq_handler)
build\build_tmp\libs\platform\system\libcpup.a(cpup_diag_dfx.o)
                              build\build_tmp\libs\components\at\libat.a(at_general.o) (cmd_get_cpup)
build\build_tmp\libs\app\demo\libdemo.a(app_main.o)
                              build\libs\hi3861\release\no_mesh\liblitekernel_flash.a(main.o) (app_main)
build\build_tmp\libs\app\demo\libdemo.a(wifi_softap.o)
                              build\build_tmp\libs\app\demo\libdemo.a(app_main.o) (hi_wifi_start_softap)
build\build_tmp\libs\app\demo\libdemo.a(app_io_init.o)
                              build\build_tmp\libs\app\demo\libdemo.a(app_main.o) (app_io_init)
build\build_tmp\libs\app\demo\libdemo.a(app_demo_colorful_sample.o)
                              build\build_tmp\libs\app\demo\libdemo.a(app_main.o) (colorful_light_func)
build\build_tmp\libs\app\demo\libdemo.a(app_demo_get_mac_addr.o)
                              build\build_tmp\libs\app\demo\libdemo.a(wifi_softap.o) (hi3816_get_mac_addr)
build\build_tmp\libs\app\demo\libdemo.a(app_demo_histreaming.o)
                              build\build_tmp\libs\app\demo\libdemo.a(app_main.o) (histreaming_open)
build\build_tmp\libs\app\demo\libdemo.a(app_demo_hx711.o)
                              build\build_tmp\libs\app\demo\libdemo.a(app_demo_colorful_sample.o) (hi_hx711_init)
build\build_tmp\libs\app\demo\libdemo.a(app_demo_i2c_oled.o)
                              build\build_tmp\libs\app\demo\libdemo.a(app_demo_colorful_sample.o) (oled_init)
build\build_tmp\libs\app\demo\libdemo.a(app_demo_multi_sample.o)
                              build\build_tmp\libs\app\demo\libdemo.a(app_demo_colorful_sample.o) (hispark_board_test)
build\build_tmp\libs\app\demo\libdemo.a(app_demo_nfc.o)
                              build\build_tmp\libs\app\demo\libdemo.a(app_demo_i2c_oled.o) (ndef_file)
build\build_tmp\libs\app\demo\libdemo.a(app_demo_pwm.o)
                              build\build_tmp\libs\app\demo\libdemo.a(app_demo_multi_sample.o) (pwm_2_demo)
build\build_tmp\libs\app\demo\libdemo.a(app_demo_quick_send.o)
                              build\build_tmp\libs\app\demo\libdemo.a(app_main.o) (app_demo_task_release_mem)
build\build_tmp\libs\app\demo\libdemo.a(app_demo_traffic_sample.o)
                              build\build_tmp\libs\app\demo\libdemo.a(app_demo_i2c_oled.o) (traffic_light_func)
build\build_tmp\libs\app\demo\libdemo.a(app_demo_uart.o)
                              build\build_tmp\libs\app\demo\libdemo.a(app_main.o) (uart_demo)
build\build_tmp\libs\app\demo\libdemo.a(app_demo_upg_verify.o)
                              build\build_tmp\libs\app\demo\libdemo.a(app_main.o) (app_demo_upg_init)
build\build_tmp\libs\app\demo\libdemo.a(app_dem_gl5537_1.o)
                              build\build_tmp\libs\app\demo\libdemo.a(app_demo_multi_sample.o) (get_light_status)
build\build_tmp\libs\app\demo\libdemo.a(app_demo_environment.o)
                              build\build_tmp\libs\app\demo\libdemo.a(app_demo_i2c_oled.o) (environment_func)
build\build_tmp\libs\app\demo\libdemo.a(app_demo_mq2.o)
                              build\build_tmp\libs\app\demo\libdemo.a(app_demo_environment.o) (mq2_get_data)
build\build_tmp\libs\app\demo\libdemo.a(app_demo_aht20.o)
                              build\build_tmp\libs\app\demo\libdemo.a(app_demo_environment.o) (get_aht20_sensor_datat)
build\libs\libdiag.a(diag_chl.o)
                              build\libs\hi3861\release\no_mesh\libsystem.a(sal_sys.o) (hi_diag_is_init)
build\libs\libdiag.a(diag_chl_uart.o)
                              build\libs\libdiag.a(diag_chl.o) (diag_chl_uart_init)
build\libs\libdiag.a(diag_cmd.o)
                              build\libs\libdiag.a(diag_chl.o) (diag_host_conn_disconn)
build\libs\libdiag.a(diag_mem.o)
                              build\libs\libdiag.a(diag_chl.o) (diag_create_fixed_mem_partition)
build\libs\libdiag.a(diag_msg.o)
                              build\libs\libdiag.a(diag_chl.o) (diag_cfg_msg)
build\libs\libdrv.a(hi_crc32.o)
                              build\libs\hi3861\release\no_mesh\libsystem.a(hi_nvm.o) (hi_crc32)
build\libs\libdrv.a(hi_hwtimer.o)
                              build\libs\hi3861\release\no_mesh\liblitekernel_flash.a(los_runstop_redirect.o) (hi_hwtimer_init_new)
build\libs\libdrv.a(crc32.o)  build\libs\libdrv.a(hi_crc32.o) (crc32)
build\build_tmp\libs\platform\drivers\libflash.a(flash_protect.o)
                              build\libs\hi3861\release\no_mesh\libsystem.a(sal_init.o) (flash_get_support_flash_protect_info)
build\build_tmp\libs\platform\drivers\libflash.a(flash_ram.o)
                              build\build_tmp\libs\platform\drivers\libflash.a(flash_protect.o) (flash_lock)
C:\Users\YY\.huawei-liteos-studio\tools\hi3861\hcc_riscv32_win\bin\..\lib\gcc\riscv32-unknown-elf\7.3.0\libgcc.a(_lshrdi3.o)
                              build\libs\libm_flash.a(modf.o) (__lshrdi3)
C:\Users\YY\.huawei-liteos-studio\tools\hi3861\hcc_riscv32_win\bin\..\lib\gcc\riscv32-unknown-elf\7.3.0\libgcc.a(_ucmpdi2.o)
                              build\build_tmp\libs\platform\os\Huawei_LiteOS\net\wpa_supplicant\libwpa.a(driver_common.o) (__ucmpdi2)
C:\Users\YY\.huawei-liteos-studio\tools\hi3861\hcc_riscv32_win\bin\..\lib\gcc\riscv32-unknown-elf\7.3.0\libgcc.a(_moddi3.o)
                              build\libs\libc_flash.a(vfprintf.o) (__moddi3)
C:\Users\YY\.huawei-liteos-studio\tools\hi3861\hcc_riscv32_win\bin\..\lib\gcc\riscv32-unknown-elf\7.3.0\libgcc.a(adddf3.o)
                              build\libs\hi3861\release\no_mesh\liblitekernel_flash.a(printf_redirect.o) (__adddf3)
C:\Users\YY\.huawei-liteos-studio\tools\hi3861\hcc_riscv32_win\bin\..\lib\gcc\riscv32-unknown-elf\7.3.0\libgcc.a(divdf3.o)
                              build\libs\hi3861\release\no_mesh\liblitekernel_flash.a(printf_redirect.o) (__divdf3)
C:\Users\YY\.huawei-liteos-studio\tools\hi3861\hcc_riscv32_win\bin\..\lib\gcc\riscv32-unknown-elf\7.3.0\libgcc.a(eqdf2.o)
                              build\libs\hi3861\release\no_mesh\liblitekernel_flash.a(printf_redirect.o) (__eqdf2)
C:\Users\YY\.huawei-liteos-studio\tools\hi3861\hcc_riscv32_win\bin\..\lib\gcc\riscv32-unknown-elf\7.3.0\libgcc.a(gedf2.o)
                              build\libs\hi3861\release\no_mesh\libsystem.a(lowspeed_32k_clk.o) (__gedf2)
C:\Users\YY\.huawei-liteos-studio\tools\hi3861\hcc_riscv32_win\bin\..\lib\gcc\riscv32-unknown-elf\7.3.0\libgcc.a(ledf2.o)
                              build\libs\hi3861\release\no_mesh\libsystem.a(lowspeed_32k_clk.o) (__ledf2)
C:\Users\YY\.huawei-liteos-studio\tools\hi3861\hcc_riscv32_win\bin\..\lib\gcc\riscv32-unknown-elf\7.3.0\libgcc.a(muldf3.o)
                              build\libs\hi3861\release\no_mesh\liblitekernel_flash.a(printf_redirect.o) (__muldf3)
C:\Users\YY\.huawei-liteos-studio\tools\hi3861\hcc_riscv32_win\bin\..\lib\gcc\riscv32-unknown-elf\7.3.0\libgcc.a(subdf3.o)
                              build\libs\libm_flash.a(modf.o) (__subdf3)
C:\Users\YY\.huawei-liteos-studio\tools\hi3861\hcc_riscv32_win\bin\..\lib\gcc\riscv32-unknown-elf\7.3.0\libgcc.a(fixdfsi.o)
                              build\libs\hi3861\release\no_mesh\liblitekernel_flash.a(printf_redirect.o) (__fixdfsi)
C:\Users\YY\.huawei-liteos-studio\tools\hi3861\hcc_riscv32_win\bin\..\lib\gcc\riscv32-unknown-elf\7.3.0\libgcc.a(fixunsdfsi.o)
                              build\libs\hi3861\release\no_mesh\libsystem.a(lowspeed_32k_clk.o) (__fixunsdfsi)
C:\Users\YY\.huawei-liteos-studio\tools\hi3861\hcc_riscv32_win\bin\..\lib\gcc\riscv32-unknown-elf\7.3.0\libgcc.a(floatsidf.o)
                              build\libs\hi3861\release\no_mesh\liblitekernel_flash.a(printf_redirect.o) (__floatsidf)
C:\Users\YY\.huawei-liteos-studio\tools\hi3861\hcc_riscv32_win\bin\..\lib\gcc\riscv32-unknown-elf\7.3.0\libgcc.a(floatunsidf.o)
                              build\libs\hi3861\release\no_mesh\libsystem.a(lowspeed_32k_clk.o) (__floatunsidf)
C:\Users\YY\.huawei-liteos-studio\tools\hi3861\hcc_riscv32_win\bin\..\lib\gcc\riscv32-unknown-elf\7.3.0\libgcc.a(fixdfdi.o)
                              build\libs\hi3861\release\no_mesh\libwifi_flash.a(hal_hi1131_cali_ram.o) (__fixdfdi)
C:\Users\YY\.huawei-liteos-studio\tools\hi3861\hcc_riscv32_win\bin\..\lib\gcc\riscv32-unknown-elf\7.3.0\libgcc.a(floatundidf.o)
                              build\libs\hi3861\release\no_mesh\liblitekernel_flash.a(main.o) (__floatundidf)
C:\Users\YY\.huawei-liteos-studio\tools\hi3861\hcc_riscv32_win\bin\..\lib\gcc\riscv32-unknown-elf\7.3.0\libgcc.a(addtf3.o)
                              build\libs\libc_flash.a(vfprintf.o) (__addtf3)
C:\Users\YY\.huawei-liteos-studio\tools\hi3861\hcc_riscv32_win\bin\..\lib\gcc\riscv32-unknown-elf\7.3.0\libgcc.a(eqtf2.o)
                              build\libs\libc_flash.a(vfprintf.o) (__netf2)
C:\Users\YY\.huawei-liteos-studio\tools\hi3861\hcc_riscv32_win\bin\..\lib\gcc\riscv32-unknown-elf\7.3.0\libgcc.a(multf3.o)
                              build\libs\libc_flash.a(vfprintf.o) (__multf3)
C:\Users\YY\.huawei-liteos-studio\tools\hi3861\hcc_riscv32_win\bin\..\lib\gcc\riscv32-unknown-elf\7.3.0\libgcc.a(subtf3.o)
                              build\libs\libc_flash.a(vfprintf.o) (__subtf3)
C:\Users\YY\.huawei-liteos-studio\tools\hi3861\hcc_riscv32_win\bin\..\lib\gcc\riscv32-unknown-elf\7.3.0\libgcc.a(fixtfsi.o)
                              build\libs\libc_flash.a(vfprintf.o) (__fixtfsi)
C:\Users\YY\.huawei-liteos-studio\tools\hi3861\hcc_riscv32_win\bin\..\lib\gcc\riscv32-unknown-elf\7.3.0\libgcc.a(fixunstfsi.o)
                              build\libs\libc_flash.a(vfprintf.o) (__fixunstfsi)
C:\Users\YY\.huawei-liteos-studio\tools\hi3861\hcc_riscv32_win\bin\..\lib\gcc\riscv32-unknown-elf\7.3.0\libgcc.a(floatsitf.o)
                              build\libs\libc_flash.a(vfprintf.o) (__floatsitf)
C:\Users\YY\.huawei-liteos-studio\tools\hi3861\hcc_riscv32_win\bin\..\lib\gcc\riscv32-unknown-elf\7.3.0\libgcc.a(floatunsitf.o)
                              build\libs\libc_flash.a(vfprintf.o) (__floatunsitf)
C:\Users\YY\.huawei-liteos-studio\tools\hi3861\hcc_riscv32_win\bin\..\lib\gcc\riscv32-unknown-elf\7.3.0\libgcc.a(addsf3.o)
                              build\libs\hi3861\release\no_mesh\libwifi_flash.a(hal_hi1131_rf_ram.o) (__addsf3)
C:\Users\YY\.huawei-liteos-studio\tools\hi3861\hcc_riscv32_win\bin\..\lib\gcc\riscv32-unknown-elf\7.3.0\libgcc.a(divsf3.o)
                              build\libs\hi3861\release\no_mesh\libwifi_flash.a(hal_hi1131_rf_ram.o) (__divsf3)
C:\Users\YY\.huawei-liteos-studio\tools\hi3861\hcc_riscv32_win\bin\..\lib\gcc\riscv32-unknown-elf\7.3.0\libgcc.a(gesf2.o)
                              build\libs\hi3861\release\no_mesh\libwifi_flash.a(hal_hi1131_cali_ram.o) (__gtsf2)
C:\Users\YY\.huawei-liteos-studio\tools\hi3861\hcc_riscv32_win\bin\..\lib\gcc\riscv32-unknown-elf\7.3.0\libgcc.a(lesf2.o)
                              build\build_tmp\libs\app\demo\libdemo.a(app_dem_gl5537_1.o) (__ltsf2)
C:\Users\YY\.huawei-liteos-studio\tools\hi3861\hcc_riscv32_win\bin\..\lib\gcc\riscv32-unknown-elf\7.3.0\libgcc.a(mulsf3.o)
                              build\libs\hi3861\release\no_mesh\libwifi_flash.a(hal_hi1131_rf_ram.o) (__mulsf3)
C:\Users\YY\.huawei-liteos-studio\tools\hi3861\hcc_riscv32_win\bin\..\lib\gcc\riscv32-unknown-elf\7.3.0\libgcc.a(subsf3.o)
                              build\libs\hi3861\release\no_mesh\libwifi_flash.a(hal_hi1131_rf_ram.o) (__subsf3)
C:\Users\YY\.huawei-liteos-studio\tools\hi3861\hcc_riscv32_win\bin\..\lib\gcc\riscv32-unknown-elf\7.3.0\libgcc.a(fixunssfsi.o)
                              build\libs\hi3861\release\no_mesh\libwifi_flash.a(hal_hi1131_rf_ram.o) (__fixunssfsi)
C:\Users\YY\.huawei-liteos-studio\tools\hi3861\hcc_riscv32_win\bin\..\lib\gcc\riscv32-unknown-elf\7.3.0\libgcc.a(floatsisf.o)
                              build\libs\hi3861\release\no_mesh\libwifi_flash.a(hal_hi1131_rf_ram.o) (__floatsisf)
C:\Users\YY\.huawei-liteos-studio\tools\hi3861\hcc_riscv32_win\bin\..\lib\gcc\riscv32-unknown-elf\7.3.0\libgcc.a(floatunsisf.o)
                              build\libs\hi3861\release\no_mesh\libwifi_flash.a(hal_hi1131_rf_ram.o) (__floatunsisf)
C:\Users\YY\.huawei-liteos-studio\tools\hi3861\hcc_riscv32_win\bin\..\lib\gcc\riscv32-unknown-elf\7.3.0\libgcc.a(extendsfdf2.o)
                              build\libs\hi3861\release\no_mesh\libwifi_flash.a(hal_hi1131_rf_ram.o) (__extendsfdf2)
C:\Users\YY\.huawei-liteos-studio\tools\hi3861\hcc_riscv32_win\bin\..\lib\gcc\riscv32-unknown-elf\7.3.0\libgcc.a(extenddftf2.o)
                              build\libs\libc_flash.a(vfprintf.o) (__extenddftf2)
C:\Users\YY\.huawei-liteos-studio\tools\hi3861\hcc_riscv32_win\bin\..\lib\gcc\riscv32-unknown-elf\7.3.0\libgcc.a(truncdfsf2.o)
                              build\libs\hi3861\release\no_mesh\libwifi_flash.a(hal_hi1131_cali_ram.o) (__truncdfsf2)
C:\Users\YY\.huawei-liteos-studio\tools\hi3861\hcc_riscv32_win\bin\..\lib\gcc\riscv32-unknown-elf\7.3.0\libgcc.a(_ashldi3.o)
                              C:\Users\YY\.huawei-liteos-studio\tools\hi3861\hcc_riscv32_win\bin\..\lib\gcc\riscv32-unknown-elf\7.3.0\libgcc.a(fixdfdi.o) (__ashldi3)
build\libs\libgpio.a(gpio_drv.o)
                              build\build_tmp\libs\components\at\libat.a(at_lowpower.o) (hi_gpio_register_isr_function)
build\libs\libhistreaminglink.a(link_platform.o)
                              build\build_tmp\libs\app\demo\libdemo.a(app_demo_histreaming.o) (LinkPlatformFree)
build\libs\libhistreaminglink.a(link_server.o)
                              build\libs\libhistreaminglink.a(link_platform.o) (LinkServerFree)
build\libs\libhistreaminglink.a(link_log_liteos.o)
                              build\libs\libhistreaminglink.a(link_platform.o) (link_set_log_level)
build\libs\libhistreaminglink.a(link_work.o)
                              build\libs\libhistreaminglink.a(link_platform.o) (WorkEngineGet)
build\libs\libhistreaminglink.a(discover.o)
                              build\libs\libhistreaminglink.a(link_platform.o) (SimpleDiscoverFree)
build\libs\libhistreaminglink.a(package.o)
                              build\libs\libhistreaminglink.a(discover.o) (ParsePackage)
build\libs\libhistreaminglink.a(transport.o)
                              build\libs\libhistreaminglink.a(discover.o) (SimpleTransportCreate)
build\libs\libhistreaminglink.a(link_resource.o)
                              build\libs\libhistreaminglink.a(link_server.o) (LinkResourceGet)
build\libs\libhistreaminglink.a(link_nic_lwip.o)
                              build\libs\libhistreaminglink.a(transport.o) (CreateTransportHandle)
build\libs\libhistreaminglink.a(link_task_liteos.o)
                              build\libs\libhistreaminglink.a(link_work.o) (LinkTaskGet)
build\libs\libhistreaminglink.a(os_adapter_posix.o)
                              build\libs\libhistreaminglink.a(discover.o) (RandnumberGet)
build\build_tmp\libs\platform\drivers\libi2c.a(i2c.o)
                              build\build_tmp\libs\app\demo\libdemo.a(app_demo_i2c_oled.o) (hi_i2c_write)
build\libs\libio.a(io_drv.o)  build\build_tmp\libs\app\demo\libdemo.a(app_io_init.o) (hi_io_set_input_enable)
build\build_tmp\libs\components\iperf2\libiperf.a(iperf.o)
                              build\build_tmp\libs\components\at\libat.a(at_general.o) (cmd_iperf)
build\libs\hi3861\release\no_mesh\liblitekernel_flash.a(ipc.o)
                              build\libs\hi3861\release\no_mesh\libwifi_flash.a(hmac_device.o) (__init_waitqueue_head)
build\libs\hi3861\release\no_mesh\liblitekernel_flash.a(timer.o)
                              build\libs\hi3861\release\no_mesh\libwifi_flash.a(wal_main.o) (msleep)
build\libs\hi3861\release\no_mesh\liblitekernel_flash.a(tzdst.o)
                              build\libs\libc_flash.a(localtime_r.o) (DstForwardSecondGet)
build\libs\hi3861\release\no_mesh\liblitekernel_flash.a(pthread_mutex.o)
                              build\libs\hi3861\release\no_mesh\liblitekernel_flash.a(ipc.o) (pthread_mutex_init)
build\libs\hi3861\release\no_mesh\liblitekernel_flash.a(semaphore.o)
                              build\libs\hi3861\release\no_mesh\liblitekernel_flash.a(ipc.o) (sem_post)
build\libs\hi3861\release\no_mesh\liblitekernel_flash.a(time_redirect.o)
                              build\build_tmp\libs\platform\os\Huawei_LiteOS\net\wpa_supplicant\libwpa.a(os_rtos.o) (usleep)
build\libs\hi3861\release\no_mesh\liblitekernel_flash.a(los_task_redirect.o)
                              build\libs\hi3861\release\no_mesh\libsystem.a(hi_os_task_flash.o) (LOS_TaskInfoGet)
build\libs\hi3861\release\no_mesh\liblitekernel_flash.a(los_memory_redirect.o)
                              build\build_tmp\libs\platform\os\Huawei_LiteOS\libres_cfg.a(los_init_redirect.o) (LOS_MemDisableIntegrityCheck)
build\libs\hi3861\release\no_mesh\liblitekernel_flash.a(show.o)
                              build\libs\hi3861\release\no_mesh\libsystem.a(sal_sys.o) (hi_get_shell_init)
build\libs\hi3861\release\no_mesh\liblitekernel_flash.a(los_fpb.o)
                              build\libs\hi3861\release\no_mesh\libsystem.a(fpb_lib.o) (LOS_FpbInit)
build\libs\hi3861\release\no_mesh\liblitekernel_flash.a(map_error.o)
                              build\libs\hi3861\release\no_mesh\liblitekernel_flash.a(pthread_mutex.o) (map_errno)
build\libs\libltoswpa.a(eloop_rtos.o)
                              build\build_tmp\libs\platform\os\Huawei_LiteOS\net\wpa_supplicant\libwpa.a(hostapd.o) (eloop_terminate)
build\build_tmp\libs\components\lwip_sack\liblwip.a(api_shell.o)
                              build\build_tmp\libs\components\at\libat.a(at_general.o) (os_shell_dns)
build\build_tmp\libs\components\lwip_sack\liblwip.a(netifapi.o)
                              build\libs\hi3861\release\no_mesh\libwifi_flash.a(wal_net.o) (netifapi_netif_add)
build\build_tmp\libs\components\lwip_sack\liblwip.a(ping_shell.o)
                              build\build_tmp\libs\components\at\libat.a(at_general.o) (os_shell_ping)
build\build_tmp\libs\components\lwip_sack\liblwip.a(sockets.o)
                              build\build_tmp\libs\components\at\libat.a(at_general.o) (accept)
build\build_tmp\libs\components\lwip_sack\liblwip.a(tcpip.o)
                              build\libs\hi3861\release\no_mesh\libwifi_flash.a(wal_net.o) (tcpip_callback_with_block)
build\build_tmp\libs\components\lwip_sack\liblwip.a(sys_arch.o)
                              build\build_tmp\libs\components\lwip_sack\liblwip.a(tcpip.o) (sys_mbox_new_ext)
build\build_tmp\libs\components\lwip_sack\liblwip.a(dns.o)
                              build\build_tmp\libs\components\at\libat.a(at_wifi.o) (lwip_dns_setserver)
build\build_tmp\libs\components\lwip_sack\liblwip.a(inet_chksum.o)
                              build\build_tmp\libs\components\lwip_sack\liblwip.a(ping_shell.o) (inet_chksum)
build\build_tmp\libs\components\lwip_sack\liblwip.a(init.o)
                              build\build_tmp\libs\components\lwip_sack\liblwip.a(tcpip.o) (lwip_init)
build\build_tmp\libs\components\lwip_sack\liblwip.a(ip.o)
                              build\build_tmp\libs\components\lwip_sack\liblwip.a(api_shell.o) (ipaddr_ntoa)
build\build_tmp\libs\components\lwip_sack\liblwip.a(ip_addr.o)
                              build\build_tmp\libs\components\at\libat.a(at_general.o) (inet_addr)
build\build_tmp\libs\components\lwip_sack\liblwip.a(dhcp.o)
                              build\build_tmp\libs\components\lwip_sack\liblwip.a(api_shell.o) (dhcp_idx_to_mac)
build\build_tmp\libs\components\lwip_sack\liblwip.a(dhcps.o)
                              build\build_tmp\libs\components\lwip_sack\liblwip.a(netifapi.o) (dhcps_start)
build\build_tmp\libs\components\lwip_sack\liblwip.a(etharp.o)
                              build\build_tmp\libs\components\lwip_sack\liblwip.a(netifapi.o) (etharp_add_static_entry)
build\build_tmp\libs\components\lwip_sack\liblwip.a(igmp.o)
                              build\build_tmp\libs\components\lwip_sack\liblwip.a(init.o) (igmp_init)
build\build_tmp\libs\components\lwip_sack\liblwip.a(ip4.o)
                              build\build_tmp\libs\components\lwip_sack\liblwip.a(init.o) (ip_init)
build\build_tmp\libs\components\lwip_sack\liblwip.a(ip4_addr.o)
                              build\build_tmp\libs\components\lwip_sack\liblwip.a(api_shell.o) (ip4_addr_isbroadcast_u32)
build\build_tmp\libs\components\lwip_sack\liblwip.a(ip4_frag.o)
                              build\build_tmp\libs\components\lwip_sack\liblwip.a(ip4.o) (ip4_reass)
build\build_tmp\libs\components\lwip_sack\liblwip.a(ip6.o)
                              build\build_tmp\libs\components\lwip_sack\liblwip.a(ip.o) (ip6_route)
build\build_tmp\libs\components\lwip_sack\liblwip.a(ip6_addr.o)
                              build\build_tmp\libs\components\at\libat.a(at_lowpower.o) (ip6addr_aton)
build\build_tmp\libs\components\lwip_sack\liblwip.a(ip6_frag.o)
                              build\build_tmp\libs\components\lwip_sack\liblwip.a(ip6.o) (ip6_reass)
build\build_tmp\libs\components\lwip_sack\liblwip.a(nd6.o)
                              build\build_tmp\libs\components\lwip_sack\liblwip.a(ip6.o) (nd6_find_route)
build\build_tmp\libs\components\lwip_sack\liblwip.a(mem.o)
                              build\build_tmp\libs\components\lwip_sack\liblwip.a(init.o) (mem_init)
build\build_tmp\libs\components\lwip_sack\liblwip.a(memp.o)
                              build\build_tmp\libs\components\lwip_sack\liblwip.a(init.o) (memp_init)
build\build_tmp\libs\components\lwip_sack\liblwip.a(netif.o)
                              build\build_tmp\libs\components\at\libat.a(at_general.o) (netif_l2_netdev_status_callback)
build\build_tmp\libs\components\lwip_sack\liblwip.a(pbuf.o)
                              build\build_tmp\libs\components\lwip_sack\liblwip.a(ip4.o) (pbuf_add_header)
build\build_tmp\libs\components\lwip_sack\liblwip.a(raw.o)
                              build\build_tmp\libs\components\lwip_sack\liblwip.a(ip4.o) (raw_input)
build\build_tmp\libs\components\lwip_sack\liblwip.a(sys.o)
                              build\build_tmp\libs\components\lwip_sack\liblwip.a(ping_shell.o) (sys_msleep)
build\build_tmp\libs\components\lwip_sack\liblwip.a(tcp.o)
                              build\build_tmp\libs\components\lwip_sack\liblwip.a(init.o) (tcp_init)
build\build_tmp\libs\components\lwip_sack\liblwip.a(tcp_in.o)
                              build\build_tmp\libs\components\lwip_sack\liblwip.a(ip4.o) (tcp_input)
build\build_tmp\libs\components\lwip_sack\liblwip.a(tcp_out.o)
                              build\build_tmp\libs\components\lwip_sack\liblwip.a(tcp.o) (tcp_enqueue_flags)
build\build_tmp\libs\components\lwip_sack\liblwip.a(tcp_sack.o)
                              build\build_tmp\libs\components\lwip_sack\liblwip.a(tcp_in.o) (tcp_pcb_reset_sack_seq)
build\build_tmp\libs\components\lwip_sack\liblwip.a(timeouts.o)
                              build\build_tmp\libs\components\lwip_sack\liblwip.a(tcp.o) (tcp_timer_needed)
build\build_tmp\libs\components\lwip_sack\liblwip.a(udp.o)
                              build\build_tmp\libs\components\lwip_sack\liblwip.a(init.o) (udp_init)
build\build_tmp\libs\components\lwip_sack\liblwip.a(driverif.o)
                              build\libs\hi3861\release\no_mesh\libwifi_flash.a(wal_net.o) (driverif_input)
build\build_tmp\libs\components\lwip_sack\liblwip.a(ethernet.o)
                              build\build_tmp\libs\components\lwip_sack\liblwip.a(tcpip.o) (ethernet_input_list)
build\build_tmp\libs\components\lwip_sack\liblwip.a(api_lib.o)
                              build\build_tmp\libs\components\lwip_sack\liblwip.a(sockets.o) (netconn_new_with_proto_and_callback)
build\build_tmp\libs\components\lwip_sack\liblwip.a(api_msg.o)
                              build\build_tmp\libs\components\lwip_sack\liblwip.a(api_shell.o) (recv_udp)
build\build_tmp\libs\components\lwip_sack\liblwip.a(netbuf.o)
                              build\build_tmp\libs\components\lwip_sack\liblwip.a(sockets.o) (netbuf_new)
build\build_tmp\libs\components\lwip_sack\liblwip.a(netdb.o)
                              build\build_tmp\libs\components\lwip_sack\liblwip.a(ping_shell.o) (freeaddrinfo)
build\build_tmp\libs\components\lwip_sack\liblwip.a(def.o)
                              build\build_tmp\libs\components\lwip_sack\liblwip.a(dns.o) (lwip_strnicmp)
build\build_tmp\libs\components\lwip_sack\liblwip.a(icmp.o)
                              build\build_tmp\libs\components\lwip_sack\liblwip.a(ip4.o) (icmp_input)
build\build_tmp\libs\components\lwip_sack\liblwip.a(ethip6.o)
                              build\build_tmp\libs\components\lwip_sack\liblwip.a(netif.o) (ethip6_output)
build\build_tmp\libs\components\lwip_sack\liblwip.a(icmp6.o)
                              build\build_tmp\libs\components\lwip_sack\liblwip.a(ip6.o) (icmp6_input)
build\libs\libm_flash.a(__fpclassifyl.o)
                              build\libs\libc_flash.a(vfprintf.o) (__fpclassifyl)
build\libs\libm_flash.a(__signbitl.o)
                              build\libs\libc_flash.a(vfprintf.o) (__signbitl)
build\libs\libm_flash.a(fabs.o)
                              build\libs\hi3861\release\no_mesh\libwifi_flash.a(hal_hi1131_cali_ram.o) (fabs)
build\libs\libm_flash.a(frexpl.o)
                              build\libs\libc_flash.a(vfprintf.o) (frexpl)
build\libs\libm_flash.a(log10.o)
                              build\libs\hi3861\release\no_mesh\libwifi_flash.a(hal_hi1131_cali_ram.o) (log10)
build\libs\libm_flash.a(pow.o)
                              build\libs\hi3861\release\no_mesh\libwifi_flash.a(hal_hi1131_rf_ram.o) (pow)
build\libs\libm_flash.a(scalbn.o)
                              build\libs\libm_flash.a(pow.o) (scalbn)
build\libs\libm_flash.a(sqrt.o)
                              build\libs\libm_flash.a(pow.o) (sqrt)
build\libs\libm_flash.a(__fpclassify.o)
                              build\libs\libm_flash.a(__fpclassifyl.o) (__fpclassify)
build\libs\libm_flash.a(__signbit.o)
                              build\libs\libm_flash.a(__signbitl.o) (__signbit)
build\libs\libm_flash.a(frexp.o)
                              build\libs\libm_flash.a(frexpl.o) (frexp)
build\build_tmp\libs\third_party\mbedtls\libmbedtls.a(aes_alt.o)
                              build\build_tmp\libs\platform\os\Huawei_LiteOS\net\wpa_supplicant\libwpa.a(crypto_mbedtls.o) (mbedtls_aes_setkey_enc)
build\build_tmp\libs\third_party\mbedtls\libmbedtls.a(bignum.o)
                              build\build_tmp\libs\platform\os\Huawei_LiteOS\net\wpa_supplicant\libwpa.a(crypto_mbedtls.o) (mbedtls_mpi_init)
build\build_tmp\libs\third_party\mbedtls\libmbedtls.a(dhm.o)
                              build\build_tmp\libs\platform\os\Huawei_LiteOS\net\wpa_supplicant\libwpa.a(crypto_mbedtls.o) (mbedtls_dhm_init)
build\build_tmp\libs\third_party\mbedtls\libmbedtls.a(ecp_alt.o)
                              build\build_tmp\libs\platform\os\Huawei_LiteOS\net\wpa_supplicant\libwpa.a(crypto_mbedtls.o) (mbedtls_ecp_point_init)
build\build_tmp\libs\third_party\mbedtls\libmbedtls.a(ecp_curves_alt.o)
                              build\build_tmp\libs\platform\os\Huawei_LiteOS\net\wpa_supplicant\libwpa.a(crypto_mbedtls.o) (mbedtls_ecp_group_load)
build\build_tmp\libs\third_party\mbedtls\libmbedtls.a(entropy_alt.o)
                              build\build_tmp\libs\platform\os\Huawei_LiteOS\net\wpa_supplicant\libwpa.a(crypto_mbedtls.o) (mbedtls_hardware_poll)
build\build_tmp\libs\third_party\mbedtls\libmbedtls.a(md.o)
                              build\build_tmp\libs\platform\os\Huawei_LiteOS\net\wpa_supplicant\libwpa.a(crypto_mbedtls.o) (mbedtls_md_info_from_type)
build\build_tmp\libs\third_party\mbedtls\libmbedtls.a(md_wrap.o)
                              build\build_tmp\libs\third_party\mbedtls\libmbedtls.a(md.o) (mbedtls_sha512_info)
build\build_tmp\libs\third_party\mbedtls\libmbedtls.a(pem.o)
                              build\build_tmp\libs\third_party\mbedtls\libmbedtls.a(dhm.o) (mbedtls_pem_init)
build\build_tmp\libs\third_party\mbedtls\libmbedtls.a(pkcs5.o)
                              build\build_tmp\libs\platform\os\Huawei_LiteOS\net\wpa_supplicant\libwpa.a(crypto_mbedtls.o) (mbedtls_pkcs5_pbkdf2_hmac)
build\build_tmp\libs\third_party\mbedtls\libmbedtls.a(platform.o)
                              build\build_tmp\libs\third_party\mbedtls\libmbedtls.a(bignum.o) (mbedtls_calloc)
build\build_tmp\libs\third_party\mbedtls\libmbedtls.a(platform_util.o)
                              build\build_tmp\libs\third_party\mbedtls\libmbedtls.a(aes_alt.o) (mbedtls_platform_zeroize)
build\build_tmp\libs\third_party\mbedtls\libmbedtls.a(sha1.o)
                              build\build_tmp\libs\third_party\mbedtls\libmbedtls.a(md_wrap.o) (mbedtls_sha1_init)
build\build_tmp\libs\third_party\mbedtls\libmbedtls.a(sha256.o)
                              build\build_tmp\libs\third_party\mbedtls\libmbedtls.a(md_wrap.o) (mbedtls_sha256_init)
build\build_tmp\libs\third_party\mbedtls\libmbedtls.a(sha512.o)
                              build\build_tmp\libs\third_party\mbedtls\libmbedtls.a(md_wrap.o) (mbedtls_sha512_ret)
build\build_tmp\libs\third_party\mbedtls\libmbedtls.a(sha512_alt.o)
                              build\build_tmp\libs\third_party\mbedtls\libmbedtls.a(md_wrap.o) (mbedtls_sha512_init)
build\build_tmp\libs\third_party\mbedtls\libmbedtls.a(asn1parse.o)
                              build\build_tmp\libs\third_party\mbedtls\libmbedtls.a(dhm.o) (mbedtls_asn1_get_tag)
build\build_tmp\libs\third_party\mbedtls\libmbedtls.a(base64.o)
                              build\build_tmp\libs\third_party\mbedtls\libmbedtls.a(pem.o) (mbedtls_base64_decode)
build\build_tmp\libs\third_party\mbedtls\libmbedtls.a(cipher.o)
                              build\build_tmp\libs\third_party\mbedtls\libmbedtls.a(pkcs5.o) (mbedtls_cipher_info_from_type)
build\build_tmp\libs\third_party\mbedtls\libmbedtls.a(cipher_wrap.o)
                              build\build_tmp\libs\third_party\mbedtls\libmbedtls.a(cipher.o) (mbedtls_cipher_supported)
build\build_tmp\libs\third_party\mbedtls\libmbedtls.a(gcm_alt.o)
                              build\build_tmp\libs\third_party\mbedtls\libmbedtls.a(cipher_wrap.o) (mbedtls_gcm_init)
build\build_tmp\libs\third_party\mbedtls\libmbedtls.a(md5.o)
                              build\build_tmp\libs\third_party\mbedtls\libmbedtls.a(md_wrap.o) (mbedtls_md5_ret)
build\build_tmp\libs\third_party\mbedtls\libmbedtls.a(md5_alt.o)
                              build\build_tmp\libs\third_party\mbedtls\libmbedtls.a(md_wrap.o) (mbedtls_md5_init)
build\build_tmp\libs\third_party\mbedtls\libmbedtls.a(oid.o)
                              build\build_tmp\libs\third_party\mbedtls\libmbedtls.a(pkcs5.o) (mbedtls_oid_get_cipher_alg)
build\build_tmp\libs\third_party\mbedtls\libmbedtls.a(ccm_alt.o)
                              build\build_tmp\libs\third_party\mbedtls\libmbedtls.a(cipher_wrap.o) (mbedtls_ccm_init)
build\build_tmp\libs\platform\system\libparttab.a(flash_partition_table.o)
                              build\build_tmp\libs\platform\system\libupg.a(upg_common.o) (hi_get_partition_table)
build\build_tmp\libs\platform\drivers\libpwm.a(hi_pwm.o)
                              build\build_tmp\libs\app\demo\libdemo.a(app_demo_multi_sample.o) (hi_pwm_set_clock)
build\libs\libsec_flash.a(securecutil.o)
                              build\libs\libc_flash.a(vfprintf.o) (wctomb)
build\libs\libsec_flash.a(snprintf_s.o)
                              build\libs\hi3861\release\no_mesh\libwifi_flash.a(wal_net.o) (snprintf_s)
build\libs\libsec_flash.a(sprintf_s.o)
                              build\libs\hi3861\release\no_mesh\libsystem.a(hi_system_error.o) (sprintf_s)
build\libs\libsec_flash.a(vsnprintf_s.o)
                              build\build_tmp\libs\components\at\libat.a(at.o) (vsnprintf_s)
build\libs\libsec_flash.a(vsprintf_s.o)
                              build\libs\libsec_flash.a(sprintf_s.o) (vsprintf_s)
build\libs\libsec_flash.a(secureprintoutput_a.o)
                              build\libs\libsec_flash.a(vsnprintf_s.o) (SecVsnprintfImpl)
build\libs\hi3861\release\no_mesh\libsystem.a(hi_os_mem_flash.o)
                              build\build_tmp\libs\components\at\libat.a(at_general.o) (hi_mem_get_sys_info)
build\libs\hi3861\release\no_mesh\libsystem.a(hi_os_msg_flash.o)
                              build\libs\libdiag.a(diag_chl.o) (hi_msg_queue_get_msg_num)
build\libs\hi3861\release\no_mesh\libsystem.a(brain_pool_p256r1.o)
                              build\build_tmp\libs\platform\system\libupg.a(upg_check_secure.o) (g_brain_pool_p256r1_verify)
build\libs\hi3861\release\no_mesh\libsystem.a(sal_dfx.o)
                              build\build_tmp\libs\components\at\libat.a(at_general.o) (sal_show_run_time)
build\libs\hi3861\release\no_mesh\libsystem.a(sal_reset.o)
                              build\build_tmp\libs\platform\system\libupg.a(upg_common.o) (hi_soft_reboot)
build\build_tmp\libs\platform\drivers\libtsensor.a(hi_tsensor_pm.o)
                              build\build_tmp\libs\app\demo\libdemo.a(app_main.o) (hi_tsensor_lp_save)
build\libs\hi3861\release\no_mesh\libwifi.a(alg_rom_cb.o)
                              build\libs\hi3861\release\no_mesh\libwifi_flash.a(dmac_main.o) (alg_register_rom_cbs)
build\libs\hi3861\release\no_mesh\libwifi.a(alg_tpc_patch.o)
                              build\libs\hi3861\release\no_mesh\libwifi.a(alg_rom_cb.o) (alg_tpc_store_phy_reg_upc_lut_param_new)
build\libs\hi3861\release\no_mesh\libwifi.a(dmac_wep.o)
                              build\libs\hi3861\release\no_mesh\libwifi_flash.a(hmac_11i.o) (dmac_config_wep_add_entry)
build\libs\hi3861\release\no_mesh\libwifi_flash.a(wal_wpa_ioctl.o)
                              build\build_tmp\libs\platform\os\Huawei_LiteOS\net\wpa_supplicant\libwpa.a(driver_hisi_ioctl.o) (hisi_hwal_wpa_ioctl)
build\libs\libc_flash.a(mbrtowc.o)
                              build\libs\libsec_flash.a(securecutil.o) (mbrtowc)
build\libs\libc_flash.a(wcrtomb.o)
                              build\libs\libsec_flash.a(securecutil.o) (wcrtomb)
build\libs\libc_flash.a(sprintf.o)
                              build\libs\libhistreaminglink.a(link_server.o) (sprintf)
build\libs\libc_flash.a(vsprintf.o)
                              build\libs\libsec_flash.a(secureprintoutput_a.o) (vsprintf)
build\libs\libc_flash.a(strncpy.o)
                              build\build_tmp\libs\components\lwip_sack\liblwip.a(netdb.o) (strncpy)
build\libs\libc_flash.a(strtok_r.o)
                              build\build_tmp\libs\components\lwip_sack\liblwip.a(api_shell.o) (strtok_r)
build\libs\libc_flash.a(time.o)
                              build\libs\libhistreaminglink.a(os_adapter_posix.o) (time)
build\libs\libc_flash.a(time64.o)
                              build\libs\hi3861\release\no_mesh\liblitekernel_flash.a(tzdst.o) (mktime64)
build\libs\libc_flash.a(internal.o)
                              build\libs\libc_flash.a(mbrtowc.o) (__fsmu8)
build\libs\libc_flash.a(stpncpy.o)
                              build\libs\libc_flash.a(strncpy.o) (__stpncpy)
build\libs\libc_flash.a(strspn.o)
                              build\libs\libc_flash.a(strtok_r.o) (strspn)
build\libs\libc_flash.a(clock_gettime.o)
                              build\libs\libc_flash.a(time.o) (__clock_gettime)
build\build_tmp\libs\third_party\libcoap\libcoap.a(address.o)
                              build\libs\libhistreaminglink.a(link_server.o) (coap_address_init)
build\build_tmp\libs\third_party\libcoap\libcoap.a(net.o)
                              build\libs\libhistreaminglink.a(link_server.o) (coap_new_context_lwip)
build\build_tmp\libs\third_party\libcoap\libcoap.a(option.o)
                              build\build_tmp\libs\third_party\libcoap\libcoap.a(net.o) (coap_option_iterator_init)
build\build_tmp\libs\third_party\libcoap\libcoap.a(pdu.o)
                              build\build_tmp\libs\third_party\libcoap\libcoap.a(net.o) (coap_pdu_init)
build\build_tmp\libs\third_party\libcoap\libcoap.a(resource.o)
                              build\libs\libhistreaminglink.a(link_resource.o) (coap_resource_init)
build\build_tmp\libs\third_party\libcoap\libcoap.a(str.o)
                              build\build_tmp\libs\third_party\libcoap\libcoap.a(net.o) (coap_delete_string)
build\build_tmp\libs\third_party\libcoap\libcoap.a(subscribe.o)
                              build\build_tmp\libs\third_party\libcoap\libcoap.a(resource.o) (coap_subscription_init)
build\build_tmp\libs\third_party\libcoap\libcoap.a(uri.o)
                              build\build_tmp\libs\third_party\libcoap\libcoap.a(net.o) (coap_get_query)
build\build_tmp\libs\third_party\libcoap\libcoap.a(block.o)
                              build\build_tmp\libs\third_party\libcoap\libcoap.a(net.o) (coap_get_block)
build\build_tmp\libs\third_party\libcoap\libcoap.a(coap_hashkey.o)
                              build\build_tmp\libs\third_party\libcoap\libcoap.a(block.o) (coap_hash_impl)
build\build_tmp\libs\third_party\libcoap\libcoap.a(coap_io_lwip.o)
                              build\build_tmp\libs\third_party\libcoap\libcoap.a(net.o) (coap_new_endpoint)
build\build_tmp\libs\third_party\libcoap\libcoap.a(coap_session.o)
                              build\build_tmp\libs\third_party\libcoap\libcoap.a(net.o) (coap_session_reference)
build\build_tmp\libs\third_party\libcoap\libcoap.a(encode.o)
                              build\build_tmp\libs\third_party\libcoap\libcoap.a(block.o) (coap_flsll)
build\libs\libdrv.a(hi_systick.o)
                              build\libs\hi3861\release\no_mesh\libsystem.a(hi_os_msg_flash.o) (hi_ms2systick)
C:\Users\YY\.huawei-liteos-studio\tools\hi3861\hcc_riscv32_win\bin\..\lib\gcc\riscv32-unknown-elf\7.3.0\libgcc.a(fixsfsi.o)
                              build\build_tmp\libs\components\iperf2\libiperf.a(iperf.o) (__fixsfsi)
C:\Users\YY\.huawei-liteos-studio\tools\hi3861\hcc_riscv32_win\bin\..\lib\gcc\riscv32-unknown-elf\7.3.0\libgcc.a(floatundisf.o)
                              build\build_tmp\libs\components\iperf2\libiperf.a(iperf.o) (__floatundisf)
C:\Users\YY\.huawei-liteos-studio\tools\hi3861\hcc_riscv32_win\bin\..\lib\gcc\riscv32-unknown-elf\7.3.0\libgcc.a(trunctfdf2.o)
                              build\libs\libm_flash.a(__fpclassifyl.o) (__trunctfdf2)
build\libs\hi3861\release\no_mesh\liblitekernel_flash.a(checksum.o)
                              build\build_tmp\libs\components\lwip_sack\liblwip.a(inet_chksum.o) (csum_partial)
build\libs\hi3861\release\no_mesh\liblitekernel_flash.a(pthread_cond.o)
                              build\build_tmp\libs\components\lwip_sack\liblwip.a(sys_arch.o) (pthread_cond_destroy)
build\libs\hi3861\release\no_mesh\liblitekernel_flash.a(los_queue_redirect.o)
                              build\libs\hi3861\release\no_mesh\libsystem.a(hi_os_msg_flash.o) (LOS_QueueInfoGet)
build\libs\libc_flash.a(isxdigit.o)
                              build\build_tmp\libs\third_party\libcoap\libcoap.a(uri.o) (isxdigit)

Discarded input sections

 .data          0x0000000000000000        0x0 build\libs\libasm_flash.o
 .bss           0x0000000000000000        0x0 build\libs\libasm_flash.o
 .text          0x0000000000000000        0x0 build\build_tmp\libs\platform\system\libcpup.a(cpup_core.o)
 .data          0x0000000000000000        0x0 build\build_tmp\libs\platform\system\libcpup.a(cpup_core.o)
 .bss           0x0000000000000000        0x0 build\build_tmp\libs\platform\system\libcpup.a(cpup_core.o)
 .text.hi_cpup_get_usage
                0x0000000000000000      0x13c build\build_tmp\libs\platform\system\libcpup.a(cpup_core.o)
 .text.hi_cpup_reset_usage
                0x0000000000000000       0x68 build\build_tmp\libs\platform\system\libcpup.a(cpup_core.o)
 .text.hi_cache_enable
                0x0000000000000000        0xc build\build_tmp\libs\platform\system\libcpup.a(cpup_core.o)
 .text.hi_cache_disable
                0x0000000000000000        0xc build\build_tmp\libs\platform\system\libcpup.a(cpup_core.o)
 .text.hi_cache_flush
                0x0000000000000000       0x18 build\build_tmp\libs\platform\system\libcpup.a(cpup_core.o)
 .rodata.hi_cpup_reset_usage.str1.4
                0x0000000000000000        0xd build\build_tmp\libs\platform\system\libcpup.a(cpup_core.o)
 .data          0x0000000000000000        0x0 C:\Users\YY\.huawei-liteos-studio\tools\hi3861\hcc_riscv32_win\bin\..\lib\gcc\riscv32-unknown-elf\7.3.0\libgcc.a(_divdi3.o)
Memory Configuration

Name             Origin             Length             Attributes
BIN              0x000000000040d3c0 0x0000000000200000 xr
ROM_TEXT         0x00000000003b8000 0x00000000000457e0 xr
ROM_DATA0        0x000000000011d7c0 0x0000000000000020 xrw
ROM_DATA1        0x000000000011d7e0 0x00000000000006e8 xrw
ROM_BSS          0x000000000011a9c0 0x0000000000002e00 xrw
STACK            0x0000000000118dc0 0x0000000000001c00 rw
CHECK_INFO       0x000000000011dfc0 0x0000000000000040 rw
FLASH            0x000000000040d3c0 0x00000000001f2c40 xrw
PATCH_BSS        0x00000000000d8000 0x0000000000000400 xrw
RAM              0x00000000000d8400 0x00000000000409c0 xrw
EXTERN_ROM_DATA1_BSS 0x000000000011dec8 0x00000000000000f8 xrw
*default*        0x0000000000000000 0xffffffffffffffff

Linker script and memory map

                0x0000000000000800                STACK_SIZE = 0x800
                0x0000000000000c00                IRQ_STACK_SIZE = 0xc00
                0x0000000000000800                EXC_STACK_SIZE = 0x800
                0x0000000000000000                NMI_STACK_SIZE = 0x0
                0x0000000000001000                DOWNLOAD_STACK_SIZE = 0x1000
                0x0000000000000800                DOWNLOAD_IRQ_STACK_SIZE = 0x800

.text_rom       0x00000000003b8000    0x457d0 load address 0x00000000003c7bc0
                0x00000000003b8000                . = ALIGN (0x20)
                0x00000000003b8000                __rom_text_begin__ = .
                0x00000000003b8000                __text_cache_start1_ = .
                0x00000000003b8000                _rom_size_download_start = .
 SORT_BY_NAME(*)(.text.download_entry)
 .text.download_entry
                0x00000000003b8000        0x2 build\libs\libbsp_base.o
                0x00000000003b8000                _download_start
                0x00000000003b8004                . = ALIGN (0x4)
 *fill*         0x00000000003b8002        0x2 
 SORT_BY_NAME(*)(.text.trap_download_vector)
 .text.trap_download_vector
                0x00000000003b8004      0x1dc build\libs\libbsp_base.o
 SORT_BY_NAME(*)(.text.download_assemble)
 .text.download_assemble
                0x00000000003b81e0      0x1e8 build\libs\libbsp_base.o
                0x00000000003b83c8                . = ALIGN (0x4)
                0x00000000003b83c8                _rom_size_download_end = .
                0x00000000000003c8                _rom_size_download = (_rom_size_download_end - _rom_size_download_start)
 SORT_BY_NAME(libwifi_base.o)(.text*)
 .text          0x00000000003b83c8        0x0 build\libs\hi3861\release\no_mesh\libwifi_base.o
 .text.get_g_st_customize_ptr
                0x00000000003b83c8        0xa build\libs\hi3861\release\no_mesh\libwifi_base.o
                0x00000000003b83c8                get_g_st_customize_ptr
 .text.hal_device_exit
                0x00000000003b83d2        0xc build\libs\hi3861\release\no_mesh\libwifi_base.o
                0x00000000003b83d2                hal_device_exit
 .text.hal_alg_isr_hook_table_init
                0x00000000003b83de       0x14 build\libs\hi3861\release\no_mesh\libwifi_base.o
                0x00000000003b83de                hal_alg_isr_hook_table_init
 .text.hal_device_init
                0x00000000003b83f2       0x88 build\libs\hi3861\release\no_mesh\libwifi_base.o
                0x00000000003b83f2                hal_device_init
 .text.hal_alg_isr_hook_run
                0x00000000003b847a       0x1c build\libs\hi3861\release\no_mesh\libwifi_base.o
                0x00000000003b847a                hal_alg_isr_hook_run
 .text.hal_get_hal_to_dmac_device
                0x00000000003b8496        0xa build\libs\hi3861\release\no_mesh\libwifi_base.o
                0x00000000003b8496                hal_get_hal_to_dmac_device
 .text.hal_cipher_suite_to_ctype
                0x00000000003b84a0       0x1e build\libs\hi3861\release\no_mesh\libwifi_base.o
                0x00000000003b84a0                hal_cipher_suite_to_ctype
 .text.hal_ctype_to_cipher_suite
                0x00000000003b84be       0x18 build\libs\hi3861\release\no_mesh\libwifi_base.o
                0x00000000003b84be                hal_ctype_to_cipher_suite
 .text.hal_main_init
                0x00000000003b84d6       0x3e build\libs\hi3861\release\no_mesh\libwifi_base.o
                0x00000000003b84d6                hal_main_init
 .text.hal_main_exit
                0x00000000003b8514       0x1c build\libs\hi3861\release\no_mesh\libwifi_base.o
                0x00000000003b8514                hal_main_exit
 .text.hal_set_rom_resv_func
                0x00000000003b8530       0x16 build\libs\hi3861\release\no_mesh\libwifi_base.o
                0x00000000003b8530                hal_set_rom_resv_func
 .text.hal_get_rom_resv_func
                0x00000000003b8546       0x1c build\libs\hi3861\release\no_mesh\libwifi_base.o
                0x00000000003b8546                hal_get_rom_resv_func
 .text.hal_free_rx_isr_info
                0x00000000003b8562       0x2a build\libs\hi3861\release\no_mesh\libwifi_base.o
                0x00000000003b8562                hal_free_rx_isr_info
 .text.hal_tx_complete_update_rate
                0x00000000003b858c       0x64 build\libs\hi3861\release\no_mesh\libwifi_base.o
                0x00000000003b858c                hal_tx_complete_update_rate
 .text.hi1131_is_machw_enabled
                0x00000000003b85f0        0xa build\libs\hi3861\release\no_mesh\libwifi_base.o
 .text.hi1131_set_machw_ba_params
                0x00000000003b85fa       0x50 build\libs\hi3861\release\no_mesh\libwifi_base.o
 .text.hi1131_reset_machw_ba_params
                0x00000000003b864a       0x12 build\libs\hi3861\release\no_mesh\libwifi_base.o
 .text.hi1131_init_write_reg_parm.constprop.0
                0x00000000003b865c       0x52 build\libs\hi3861\release\no_mesh\libwifi_base.o
 .text.hi1131_get_g_ul_beacon_rx_time_adjust
                0x00000000003b86ae        0xa build\libs\hi3861\release\no_mesh\libwifi_base.o
                0x00000000003b86ae                hi1131_get_g_ul_beacon_rx_time_adjust
 .text.hi1131_set_g_ul_beacon_rx_time_adjust
                0x00000000003b86b8        0xa build\libs\hi3861\release\no_mesh\libwifi_base.o
                0x00000000003b86b8                hi1131_set_g_ul_beacon_rx_time_adjust
 .text.hi1131_get_gul_tbtt_offset_adjust
                0x00000000003b86c2        0xa build\libs\hi3861\release\no_mesh\libwifi_base.o
                0x00000000003b86c2                hi1131_get_gul_tbtt_offset_adjust
 .text.hi1131_set_gul_tbtt_offset_adjust
                0x00000000003b86cc        0xa build\libs\hi3861\release\no_mesh\libwifi_base.o
                0x00000000003b86cc                hi1131_set_gul_tbtt_offset_adjust
 .text.hi1131_wait_mac_done_timeout
                0x00000000003b86d6       0x3c build\libs\hi3861\release\no_mesh\libwifi_base.o
                0x00000000003b86d6                hi1131_wait_mac_done_timeout
 .text.hi1131_set_machw_tx_suspend
                0x00000000003b8712       0x5a build\libs\hi3861\release\no_mesh\libwifi_base.o
                0x00000000003b8712                hi1131_set_machw_tx_suspend
 .text.hi1131_set_machw_tx_resume
                0x00000000003b876c       0x10 build\libs\hi3861\release\no_mesh\libwifi_base.o
                0x00000000003b876c                hi1131_set_machw_tx_resume
 .text.hi1131_disable_machw_phy_and_pa
                0x00000000003b877c        0xc build\libs\hi3861\release\no_mesh\libwifi_base.o
                0x00000000003b877c                hi1131_disable_machw_phy_and_pa
 .text.hi1131_enable_machw_phy_and_pa
                0x00000000003b8788        0xe build\libs\hi3861\release\no_mesh\libwifi_base.o
                0x00000000003b8788                hi1131_enable_machw_phy_and_pa
 .text.hi1131_reg_write
                0x00000000003b8796        0x4 build\libs\hi3861\release\no_mesh\libwifi_base.o
                0x00000000003b8796                hi1131_reg_write
 .text.hi1131_add_machw_ba_lut_entry
                0x00000000003b879a       0x5c build\libs\hi3861\release\no_mesh\libwifi_base.o
                0x00000000003b879a                hi1131_add_machw_ba_lut_entry
 .text.hi1131_remove_machw_ba_lut_entry
                0x00000000003b87f6       0x46 build\libs\hi3861\release\no_mesh\libwifi_base.o
                0x00000000003b87f6                hi1131_remove_machw_ba_lut_entry
 .text.hi1131_get_tx_sequence_num
                0x00000000003b883c        0xc build\libs\hi3861\release\no_mesh\libwifi_base.o
                0x00000000003b883c                hi1131_get_tx_sequence_num
 .text.hi1131_set_tx_sequence_num
                0x00000000003b8848        0xa build\libs\hi3861\release\no_mesh\libwifi_base.o
                0x00000000003b8848                hi1131_set_tx_sequence_num
 .text.hi1131_disable_machw_ack_trans
                0x00000000003b8852       0x12 build\libs\hi3861\release\no_mesh\libwifi_base.o
                0x00000000003b8852                hi1131_disable_machw_ack_trans
 .text.hi1131_enable_machw_ack_trans
                0x00000000003b8864       0x10 build\libs\hi3861\release\no_mesh\libwifi_base.o
                0x00000000003b8864                hi1131_enable_machw_ack_trans
 .text.hi1131_disable_machw_cts_trans
                0x00000000003b8874       0x12 build\libs\hi3861\release\no_mesh\libwifi_base.o
                0x00000000003b8874                hi1131_disable_machw_cts_trans
 .text.hi1131_enable_machw_cts_trans
                0x00000000003b8886       0x10 build\libs\hi3861\release\no_mesh\libwifi_base.o
                0x00000000003b8886                hi1131_enable_machw_cts_trans
 .text.hi1131_csi_init_register
                0x00000000003b8896       0x24 build\libs\hi3861\release\no_mesh\libwifi_base.o
                0x00000000003b8896                hi1131_csi_init_register
 .text.hi1131_csi_set_tsf_sel
                0x00000000003b88ba       0x16 build\libs\hi3861\release\no_mesh\libwifi_base.o
                0x00000000003b88ba                hi1131_csi_set_tsf_sel
 .text.hi1131_csi_set_switch
                0x00000000003b88d0       0x14 build\libs\hi3861\release\no_mesh\libwifi_base.o
                0x00000000003b88d0                hi1131_csi_set_switch
 .text.hi1131_csi_set_config
                0x00000000003b88e4      0x11a build\libs\hi3861\release\no_mesh\libwifi_base.o
                0x00000000003b88e4                hi1131_csi_set_config
 .text.hi1131_csi_get_buff_offset
                0x00000000003b89fe        0xe build\libs\hi3861\release\no_mesh\libwifi_base.o
                0x00000000003b89fe                hi1131_csi_get_buff_offset
 .text.hi1131_csi_set_buff_offset
                0x00000000003b8a0c       0x16 build\libs\hi3861\release\no_mesh\libwifi_base.o
                0x00000000003b8a0c                hi1131_csi_set_buff_offset
 .text.hi1131_csi_get_reg_err_flag
                0x00000000003b8a22       0x1a build\libs\hi3861\release\no_mesh\libwifi_base.o
                0x00000000003b8a22                hi1131_csi_get_reg_err_flag
 .text.hi1131_csi_clear_reg_err_flag
                0x00000000003b8a3c       0x1e build\libs\hi3861\release\no_mesh\libwifi_base.o
                0x00000000003b8a3c                hi1131_csi_clear_reg_err_flag
 .text.hi1131_init_mac_clocks
                0x00000000003b8a5a       0xe2 build\libs\hi3861\release\no_mesh\libwifi_base.o
                0x00000000003b8a5a                hi1131_init_mac_clocks
 .text.hi1131_set_spec_frm_phy_tx_mode
                0x00000000003b8b3c       0x9e build\libs\hi3861\release\no_mesh\libwifi_base.o
                0x00000000003b8b3c                hi1131_set_spec_frm_phy_tx_mode
 .text.hi1131_config_eifs_time
                0x00000000003b8bda       0x28 build\libs\hi3861\release\no_mesh\libwifi_base.o
                0x00000000003b8bda                hi1131_config_eifs_time
 .text.hi1131_one_packet_start
                0x00000000003b8c02      0x12c build\libs\hi3861\release\no_mesh\libwifi_base.o
                0x00000000003b8c02                hi1131_one_packet_start
 .text.hi1131_one_packet_stop
                0x00000000003b8d2e        0xa build\libs\hi3861\release\no_mesh\libwifi_base.o
                0x00000000003b8d2e                hi1131_one_packet_stop
 .text.hi1131_one_packet_get_status
                0x00000000003b8d38       0x2c build\libs\hi3861\release\no_mesh\libwifi_base.o
                0x00000000003b8d38                hi1131_one_packet_get_status
 .text.hi1131_reset_nav_timer
                0x00000000003b8d64        0xe build\libs\hi3861\release\no_mesh\libwifi_base.o
                0x00000000003b8d64                hi1131_reset_nav_timer
 .text.hi1131_clear_hw_fifo
                0x00000000003b8d72       0x1c build\libs\hi3861\release\no_mesh\libwifi_base.o
                0x00000000003b8d72                hi1131_clear_hw_fifo
 .text.hi1131_mask_interrupt
                0x00000000003b8d8e       0x16 build\libs\hi3861\release\no_mesh\libwifi_base.o
                0x00000000003b8d8e                hi1131_mask_interrupt
 .text.hi1131_initialize_machw
                0x00000000003b8da4       0xfe build\libs\hi3861\release\no_mesh\libwifi_base.o
                0x00000000003b8da4                hi1131_initialize_machw
 .text.hi1131_unmask_interrupt
                0x00000000003b8ea2       0x24 build\libs\hi3861\release\no_mesh\libwifi_base.o
                0x00000000003b8ea2                hi1131_unmask_interrupt
 .text.hi1131_set_dac_lpf_gain
                0x00000000003b8ec6        0x2 build\libs\hi3861\release\no_mesh\libwifi_base.o
                0x00000000003b8ec6                hi1131_set_dac_lpf_gain
 .text.hi1131_get_mac_int_status
                0x00000000003b8ec8        0xc build\libs\hi3861\release\no_mesh\libwifi_base.o
                0x00000000003b8ec8                hi1131_get_mac_int_status
 .text.hi1131_flush_tx_complete_irq
                0x00000000003b8ed4       0x4a build\libs\hi3861\release\no_mesh\libwifi_base.o
                0x00000000003b8ed4                hi1131_flush_tx_complete_irq
 .text.hi1131_clear_mac_int_status
                0x00000000003b8f1e        0xe build\libs\hi3861\release\no_mesh\libwifi_base.o
                0x00000000003b8f1e                hi1131_clear_mac_int_status
 .text.hi1131_get_mac_error_int_status
                0x00000000003b8f2c       0x12 build\libs\hi3861\release\no_mesh\libwifi_base.o
                0x00000000003b8f2c                hi1131_get_mac_error_int_status
 .text.hi1131_clear_mac_error_int_status
                0x00000000003b8f3e       0x16 build\libs\hi3861\release\no_mesh\libwifi_base.o
                0x00000000003b8f3e                hi1131_clear_mac_error_int_status
 .text.hi1131_get_mac_error_int_mask
                0x00000000003b8f54       0x12 build\libs\hi3861\release\no_mesh\libwifi_base.o
                0x00000000003b8f54                hi1131_get_mac_error_int_mask
 .text.hi1131_unmask_mac_error_init_status
                0x00000000003b8f66       0x26 build\libs\hi3861\release\no_mesh\libwifi_base.o
                0x00000000003b8f66                hi1131_unmask_mac_error_init_status
 .text.hi1131_unmask_mac_init_status
                0x00000000003b8f8c       0x14 build\libs\hi3861\release\no_mesh\libwifi_base.o
                0x00000000003b8f8c                hi1131_unmask_mac_init_status
 .text.hi1131_reg_info
                0x00000000003b8fa0        0x6 build\libs\hi3861\release\no_mesh\libwifi_base.o
                0x00000000003b8fa0                hi1131_reg_info
 .text.hi1131_reg_info16
                0x00000000003b8fa6        0xa build\libs\hi3861\release\no_mesh\libwifi_base.o
                0x00000000003b8fa6                hi1131_reg_info16
 .text.hi1131_get_all_tx_q_status
                0x00000000003b8fb0        0xc build\libs\hi3861\release\no_mesh\libwifi_base.o
                0x00000000003b8fb0                hi1131_get_all_tx_q_status
 .text.hi1131_get_ampdu_bytes
                0x00000000003b8fbc       0x12 build\libs\hi3861\release\no_mesh\libwifi_base.o
                0x00000000003b8fbc                hi1131_get_ampdu_bytes
 .text.hi1131_mac_error_msg_report
                0x00000000003b8fce       0x80 build\libs\hi3861\release\no_mesh\libwifi_base.o
                0x00000000003b8fce                hi1131_mac_error_msg_report
 .text.hi1131_set_sta_bssid
                0x00000000003b904e       0x98 build\libs\hi3861\release\no_mesh\libwifi_base.o
                0x00000000003b904e                hi1131_set_sta_bssid
 .text.hi1131_set_sta_dtim_period
                0x00000000003b90e6       0x52 build\libs\hi3861\release\no_mesh\libwifi_base.o
                0x00000000003b90e6                hi1131_set_sta_dtim_period
 .text.hi1131_get_sta_dtim_period
                0x00000000003b9138       0x54 build\libs\hi3861\release\no_mesh\libwifi_base.o
                0x00000000003b9138                hi1131_get_sta_dtim_period
 .text.hi1131_set_sta_dtim_count
                0x00000000003b918c       0x52 build\libs\hi3861\release\no_mesh\libwifi_base.o
                0x00000000003b918c                hi1131_set_sta_dtim_count
 .text.hi1131_disable_beacon_filter
                0x00000000003b91de       0x12 build\libs\hi3861\release\no_mesh\libwifi_base.o
                0x00000000003b91de                hi1131_disable_beacon_filter
 .text.hi1131_enable_non_frame_filter
                0x00000000003b91f0       0x12 build\libs\hi3861\release\no_mesh\libwifi_base.o
                0x00000000003b91f0                hi1131_enable_non_frame_filter
 .text.hi1131_enable_sta_tsf_tbtt
                0x00000000003b9202       0x6c build\libs\hi3861\release\no_mesh\libwifi_base.o
                0x00000000003b9202                hi1131_enable_sta_tsf_tbtt
 .text.hi1131_disable_sta_tsf_tbtt
                0x00000000003b926e       0x6a build\libs\hi3861\release\no_mesh\libwifi_base.o
                0x00000000003b926e                hi1131_disable_sta_tsf_tbtt
 .text.hi1131_set_bip_decrypto
                0x00000000003b92d8       0xce build\libs\hi3861\release\no_mesh\libwifi_base.o
                0x00000000003b92d8                hi1131_set_bip_decrypto
 .text.hi1131_set_pmf_crypto
                0x00000000003b93a6       0xc0 build\libs\hi3861\release\no_mesh\libwifi_base.o
                0x00000000003b93a6                hi1131_set_pmf_crypto
 .text.hi1131_set_base_beacon_timeout_val
                0x00000000003b9466        0xa build\libs\hi3861\release\no_mesh\libwifi_base.o
                0x00000000003b9466                hi1131_set_base_beacon_timeout_val
 .text.hi1131_set_beacon_timeout_val
                0x00000000003b9470        0xa build\libs\hi3861\release\no_mesh\libwifi_base.o
                0x00000000003b9470                hi1131_set_beacon_timeout_val
 .text.hi1131_get_hw_addr
                0x00000000003b947a       0x12 build\libs\hi3861\release\no_mesh\libwifi_base.o
                0x00000000003b947a                hi1131_get_hw_addr
 .text.hi1131_register_alg_isr_hook
                0x00000000003b948c       0x30 build\libs\hi3861\release\no_mesh\libwifi_base.o
                0x00000000003b948c                hi1131_register_alg_isr_hook
 .text.hi1131_unregister_alg_isr_hook
                0x00000000003b94bc       0x30 build\libs\hi3861\release\no_mesh\libwifi_base.o
                0x00000000003b94bc                hi1131_unregister_alg_isr_hook
 .text.hi1131_enable_ch_statics
                0x00000000003b94ec        0xa build\libs\hi3861\release\no_mesh\libwifi_base.o
                0x00000000003b94ec                hi1131_enable_ch_statics
 .text.hi1131_set_ch_statics_period
                0x00000000003b94f6        0xa build\libs\hi3861\release\no_mesh\libwifi_base.o
                0x00000000003b94f6                hi1131_set_ch_statics_period
 .text.hi1131_get_ch_statics_result
                0x00000000003b9500       0x1e build\libs\hi3861\release\no_mesh\libwifi_base.o
                0x00000000003b9500                hi1131_get_ch_statics_result
 .text.hi1131_update_rts_rate_params
                0x00000000003b951e       0xb4 build\libs\hi3861\release\no_mesh\libwifi_base.o
                0x00000000003b951e                hi1131_update_rts_rate_params
 .text.hi1131_set_rts_rate_params
                0x00000000003b95d2       0x30 build\libs\hi3861\release\no_mesh\libwifi_base.o
                0x00000000003b95d2                hi1131_set_rts_rate_params
 .text.hi1131_set_rts_rate_selection_mode
                0x00000000003b9602       0x1a build\libs\hi3861\release\no_mesh\libwifi_base.o
                0x00000000003b9602                hi1131_set_rts_rate_selection_mode
 .text.hi1131_set_tpc_init_rate_dac_lpf_table
                0x00000000003b961c       0xd4 build\libs\hi3861\release\no_mesh\libwifi_base.o
                0x00000000003b961c                hi1131_set_tpc_init_rate_dac_lpf_table
 .text.hi1131_set_dac_lpc_pa_upc_level
                0x00000000003b96f0      0x11a build\libs\hi3861\release\no_mesh\libwifi_base.o
                0x00000000003b96f0                hi1131_set_dac_lpc_pa_upc_level
 .text.hi1131_get_bcn_rate
                0x00000000003b980a       0x2a build\libs\hi3861\release\no_mesh\libwifi_base.o
                0x00000000003b980a                hi1131_get_bcn_rate
 .text.hi1131_set_bcn_phy_tx_mode
                0x00000000003b9834       0x36 build\libs\hi3861\release\no_mesh\libwifi_base.o
                0x00000000003b9834                hi1131_set_bcn_phy_tx_mode
 .text.hi1131_get_spec_frm_rate
                0x00000000003b986a       0x4c build\libs\hi3861\release\no_mesh\libwifi_base.o
                0x00000000003b986a                hi1131_get_spec_frm_rate
 .text.hi1131_get_subband_index
                0x00000000003b98b6       0x18 build\libs\hi3861\release\no_mesh\libwifi_base.o
                0x00000000003b98b6                hi1131_get_subband_index
 .text.hi1131_set_dpd_by_power
                0x00000000003b98ce       0x20 build\libs\hi3861\release\no_mesh\libwifi_base.o
                0x00000000003b98ce                hi1131_set_dpd_by_power
 .text.hi1131_set_weak_intf_rssi_th
                0x00000000003b98ee       0x20 build\libs\hi3861\release\no_mesh\libwifi_base.o
                0x00000000003b98ee                hi1131_set_weak_intf_rssi_th
 .text.hi1131_set_nav_max_duration
                0x00000000003b990e       0x24 build\libs\hi3861\release\no_mesh\libwifi_base.o
                0x00000000003b990e                hi1131_set_nav_max_duration
 .text.hi1131_set_counter1_clear
                0x00000000003b9932       0x26 build\libs\hi3861\release\no_mesh\libwifi_base.o
                0x00000000003b9932                hi1131_set_counter1_clear
 .text.hi1131_get_txrx_frame_time
                0x00000000003b9958       0x3c build\libs\hi3861\release\no_mesh\libwifi_base.o
                0x00000000003b9958                hi1131_get_txrx_frame_time
 .text.hi1131_set_psm_dtim_count
                0x00000000003b9994       0x50 build\libs\hi3861\release\no_mesh\libwifi_base.o
                0x00000000003b9994                hi1131_set_psm_dtim_count
 .text.hi1131_get_psm_dtim_count
                0x00000000003b99e4       0x56 build\libs\hi3861\release\no_mesh\libwifi_base.o
                0x00000000003b99e4                hi1131_get_psm_dtim_count
 .text.hi1131_set_psm_listen_interval
                0x00000000003b9a3a       0x50 build\libs\hi3861\release\no_mesh\libwifi_base.o
                0x00000000003b9a3a                hi1131_set_psm_listen_interval
 .text.hi1131_set_psm_listen_interval_count
                0x00000000003b9a8a       0x50 build\libs\hi3861\release\no_mesh\libwifi_base.o
                0x00000000003b9a8a                hi1131_set_psm_listen_interval_count
 .text.hi1131_set_base_tbtt_offset
                0x00000000003b9ada        0xa build\libs\hi3861\release\no_mesh\libwifi_base.o
                0x00000000003b9ada                hi1131_set_base_tbtt_offset
 .text.hi1131_set_psm_tbtt_offset
                0x00000000003b9ae4       0x4e build\libs\hi3861\release\no_mesh\libwifi_base.o
                0x00000000003b9ae4                hi1131_set_psm_tbtt_offset
 .text.hi1131_set_base_ext_tbtt_offset
                0x00000000003b9b32        0xa build\libs\hi3861\release\no_mesh\libwifi_base.o
                0x00000000003b9b32                hi1131_set_base_ext_tbtt_offset
 .text.hi1131_set_psm_ext_tbtt_offset
                0x00000000003b9b3c       0x50 build\libs\hi3861\release\no_mesh\libwifi_base.o
                0x00000000003b9b3c                hi1131_set_psm_ext_tbtt_offset
 .text.hi1131_set_psm_beacon_period
                0x00000000003b9b8c       0xa0 build\libs\hi3861\release\no_mesh\libwifi_base.o
                0x00000000003b9b8c                hi1131_set_psm_beacon_period
 .text.hi1131_vap_id_to_service_id
                0x00000000003b9c2c       0x60 build\libs\hi3861\release\no_mesh\libwifi_base.o
                0x00000000003b9c2c                hi1131_vap_id_to_service_id
 .text.hi1131_pm_wlan_servid_register
                0x00000000003b9c8c       0x4e build\libs\hi3861\release\no_mesh\libwifi_base.o
                0x00000000003b9c8c                hi1131_pm_wlan_servid_register
 .text.hi1131_pm_wlan_servid_unregister
                0x00000000003b9cda       0x16 build\libs\hi3861\release\no_mesh\libwifi_base.o
                0x00000000003b9cda                hi1131_pm_wlan_servid_unregister
 .text.hi1131_set_psm_tsf_ctrl
                0x00000000003b9cf0       0x54 build\libs\hi3861\release\no_mesh\libwifi_base.o
                0x00000000003b9cf0                hi1131_set_psm_tsf_ctrl
 .text.hi1131_clr_psm_tsf_ctrl
                0x00000000003b9d44       0x58 build\libs\hi3861\release\no_mesh\libwifi_base.o
                0x00000000003b9d44                hi1131_clr_psm_tsf_ctrl
 .text.hi1131_enable_machw_edca
                0x00000000003b9d9c        0xe build\libs\hi3861\release\no_mesh\libwifi_base.o
                0x00000000003b9d9c                hi1131_enable_machw_edca
 .text.hi1131_disable_machw_edca
                0x00000000003b9daa        0xc build\libs\hi3861\release\no_mesh\libwifi_base.o
                0x00000000003b9daa                hi1131_disable_machw_edca
 .text.hi1131_set_tx_dscr_field
                0x00000000003b9db6       0x4c build\libs\hi3861\release\no_mesh\libwifi_base.o
                0x00000000003b9db6                hi1131_set_tx_dscr_field
 .text.hi1131_rf_test_disable_al_tx
                0x00000000003b9e02       0xc0 build\libs\hi3861\release\no_mesh\libwifi_base.o
                0x00000000003b9e02                hi1131_rf_test_disable_al_tx
 .text.hi1131_rf_test_enable_al_tx
                0x00000000003b9ec2       0xd2 build\libs\hi3861\release\no_mesh\libwifi_base.o
                0x00000000003b9ec2                hi1131_rf_test_enable_al_tx
 .text.hi1131_set_rx_filter
                0x00000000003b9f94        0xa build\libs\hi3861\release\no_mesh\libwifi_base.o
                0x00000000003b9f94                hi1131_set_rx_filter
 .text.hi1131_get_rx_filter
                0x00000000003b9f9e        0xc build\libs\hi3861\release\no_mesh\libwifi_base.o
                0x00000000003b9f9e                hi1131_get_rx_filter
 .text.hi1131_tx_enable_peer_sta_ps_ctrl
                0x00000000003b9faa       0x16 build\libs\hi3861\release\no_mesh\libwifi_base.o
                0x00000000003b9faa                hi1131_tx_enable_peer_sta_ps_ctrl
 .text.hi1131_tx_disable_peer_sta_ps_ctrl
                0x00000000003b9fc0       0x1e build\libs\hi3861\release\no_mesh\libwifi_base.o
                0x00000000003b9fc0                hi1131_tx_disable_peer_sta_ps_ctrl
 .text.hi1131_cfg_slottime_type
                0x00000000003b9fde       0x18 build\libs\hi3861\release\no_mesh\libwifi_base.o
                0x00000000003b9fde                hi1131_cfg_slottime_type
 .text.hi1131_set_mesh_whitelist_filter_check_en
                0x00000000003b9ff6       0x1c build\libs\hi3861\release\no_mesh\libwifi_base.o
                0x00000000003b9ff6                hi1131_set_mesh_whitelist_filter_check_en
 .text.hi1131_set_mesh_whitelist_filter_en
                0x00000000003ba012       0x1c build\libs\hi3861\release\no_mesh\libwifi_base.o
                0x00000000003ba012                hi1131_set_mesh_whitelist_filter_en
 .text.hi1131_set_mesh_bc_white_list
                0x00000000003ba02e       0xcc build\libs\hi3861\release\no_mesh\libwifi_base.o
                0x00000000003ba02e                hi1131_set_mesh_bc_white_list
 .text.hi1131_set_ap_beacon_timeout_val
                0x00000000003ba0fa       0x26 build\libs\hi3861\release\no_mesh\libwifi_base.o
                0x00000000003ba0fa                hi1131_set_ap_beacon_timeout_val
 .text.hi1131_set_daq_abb_cbb_reg
                0x00000000003ba120       0x40 build\libs\hi3861\release\no_mesh\libwifi_base.o
                0x00000000003ba120                hi1131_set_daq_abb_cbb_reg
 .text.hi1131_set_daq_mac_reg
                0x00000000003ba160      0x130 build\libs\hi3861\release\no_mesh\libwifi_base.o
                0x00000000003ba160                hi1131_set_daq_mac_reg
 .text.hi1131_get_daq_status
                0x00000000003ba290       0x4e build\libs\hi3861\release\no_mesh\libwifi_base.o
                0x00000000003ba290                hi1131_get_daq_status
 .text.hi1131_get_daq_result_addr
                0x00000000003ba2de      0x120 build\libs\hi3861\release\no_mesh\libwifi_base.o
                0x00000000003ba2de                hi1131_get_daq_result_addr
 .text.hi1131_set_mac_daq_init
                0x00000000003ba3fe       0x24 build\libs\hi3861\release\no_mesh\libwifi_base.o
                0x00000000003ba3fe                hi1131_set_mac_daq_init
 .text.hi1131_reg_addr_is_valid
                0x00000000003ba422       0x30 build\libs\hi3861\release\no_mesh\libwifi_base.o
                0x00000000003ba422                hi1131_reg_addr_is_valid
 .text.hi1131_clear_tx_pn
                0x00000000003ba452       0x4e build\libs\hi3861\release\no_mesh\libwifi_base.o
                0x00000000003ba452                hi1131_clear_tx_pn
 .text.hi1131_clear_rx_pn
                0x00000000003ba4a0      0x10c build\libs\hi3861\release\no_mesh\libwifi_base.o
                0x00000000003ba4a0                hi1131_clear_rx_pn
 .text.hi1131_clear_rx_tx_pn
                0x00000000003ba5ac       0x70 build\libs\hi3861\release\no_mesh\libwifi_base.o
                0x00000000003ba5ac                hi1131_clear_rx_tx_pn
 .text.hi1131_set_rx_pn
                0x00000000003ba61c       0x62 build\libs\hi3861\release\no_mesh\libwifi_base.o
                0x00000000003ba61c                hi1131_set_rx_pn
 .text.hi1131_get_rx_pn
                0x00000000003ba67e       0x62 build\libs\hi3861\release\no_mesh\libwifi_base.o
                0x00000000003ba67e                hi1131_get_rx_pn
 .text.hi1131_set_tx_pn
                0x00000000003ba6e0       0x5a build\libs\hi3861\release\no_mesh\libwifi_base.o
                0x00000000003ba6e0                hi1131_set_tx_pn
 .text.hi1131_get_tx_pn
                0x00000000003ba73a       0x5a build\libs\hi3861\release\no_mesh\libwifi_base.o
                0x00000000003ba73a                hi1131_get_tx_pn
 .text.hi1131_ce_get_peer_macaddr
                0x00000000003ba794      0x118 build\libs\hi3861\release\no_mesh\libwifi_base.o
                0x00000000003ba794                hi1131_ce_get_peer_macaddr
 .text.hi1131_ce_del_peer_macaddr
                0x00000000003ba8ac       0x5e build\libs\hi3861\release\no_mesh\libwifi_base.o
                0x00000000003ba8ac                hi1131_ce_del_peer_macaddr
 .text.hi1131_disable_ce
                0x00000000003ba90a       0x14 build\libs\hi3861\release\no_mesh\libwifi_base.o
                0x00000000003ba90a                hi1131_disable_ce
 .text.hi1131_enable_ce
                0x00000000003ba91e       0x72 build\libs\hi3861\release\no_mesh\libwifi_base.o
                0x00000000003ba91e                hi1131_enable_ce
 .text.hi1131_ce_del_key
                0x00000000003ba990       0xc6 build\libs\hi3861\release\no_mesh\libwifi_base.o
                0x00000000003ba990                hi1131_ce_del_key
 .text.hi1131_ce_clear_all
                0x00000000003baa56       0xdc build\libs\hi3861\release\no_mesh\libwifi_base.o
                0x00000000003baa56                hi1131_ce_clear_all
 .text.hi1131_config_ce_control
                0x00000000003bab32       0x30 build\libs\hi3861\release\no_mesh\libwifi_base.o
                0x00000000003bab32                hi1131_config_ce_control
 .text.hi1131_enable_ce_tkip_mic
                0x00000000003bab62        0xe build\libs\hi3861\release\no_mesh\libwifi_base.o
                0x00000000003bab62                hi1131_enable_ce_tkip_mic
 .text.hi1131_enable_ce_features
                0x00000000003bab70       0x24 build\libs\hi3861\release\no_mesh\libwifi_base.o
                0x00000000003bab70                hi1131_enable_ce_features
 .text.hi1131_is_ce_enabled
                0x00000000003bab94        0xc build\libs\hi3861\release\no_mesh\libwifi_base.o
                0x00000000003bab94                hi1131_is_ce_enabled
 .text.hi1131_ce_add_config_qtr_reg
                0x00000000003baba0       0x66 build\libs\hi3861\release\no_mesh\libwifi_base.o
                0x00000000003baba0                hi1131_ce_add_config_qtr_reg
 .text.hi1131_ce_add_config_tkip_mic_reg
                0x00000000003bac06       0x20 build\libs\hi3861\release\no_mesh\libwifi_base.o
                0x00000000003bac06                hi1131_ce_add_config_tkip_mic_reg
 .text.hi1131_ce_add_config_lut_reg
                0x00000000003bac26       0x6e build\libs\hi3861\release\no_mesh\libwifi_base.o
                0x00000000003bac26                hi1131_ce_add_config_lut_reg
 .text.hi1131_ce_add_cipher_key
                0x00000000003bac94       0xde build\libs\hi3861\release\no_mesh\libwifi_base.o
                0x00000000003bac94                hi1131_ce_add_cipher_key
 .text.hi1131_ce_get_config_lut_reg
                0x00000000003bad72       0x96 build\libs\hi3861\release\no_mesh\libwifi_base.o
                0x00000000003bad72                hi1131_ce_get_config_lut_reg
 .text.hi1131_ce_check_qtr_reg
                0x00000000003bae08      0x108 build\libs\hi3861\release\no_mesh\libwifi_base.o
                0x00000000003bae08                hi1131_ce_check_qtr_reg
 .text.hi1131_ce_check_tkip_key
                0x00000000003baf10      0x186 build\libs\hi3861\release\no_mesh\libwifi_base.o
                0x00000000003baf10                hi1131_ce_check_tkip_key
 .text.hi1131_ce_get_cipher_key
                0x00000000003bb096       0xd0 build\libs\hi3861\release\no_mesh\libwifi_base.o
                0x00000000003bb096                hi1131_ce_get_cipher_key
 .text.hi1131_ce_add_peer_macaddr
                0x00000000003bb166       0xbe build\libs\hi3861\release\no_mesh\libwifi_base.o
                0x00000000003bb166                hi1131_ce_add_peer_macaddr
 .text.hi1131_ce_add_key
                0x00000000003bb224       0x8a build\libs\hi3861\release\no_mesh\libwifi_base.o
                0x00000000003bb224                hi1131_ce_add_key
 .text.hi1131_set_g_p2p_us_noa_count
                0x00000000003bb2ae        0xa build\libs\hi3861\release\no_mesh\libwifi_base.o
                0x00000000003bb2ae                hi1131_set_g_p2p_us_noa_count
 .text.hi1131_get_g_p2p_us_noa_count
                0x00000000003bb2b8        0xa build\libs\hi3861\release\no_mesh\libwifi_base.o
                0x00000000003bb2b8                hi1131_get_g_p2p_us_noa_count
 .text.hi1131_vap_get_internal
                0x00000000003bb2c2       0x28 build\libs\hi3861\release\no_mesh\libwifi_base.o
                0x00000000003bb2c2                hi1131_vap_get_internal
 .text.hi1131_vap_add_vap
                0x00000000003bb2ea       0xb4 build\libs\hi3861\release\no_mesh\libwifi_base.o
                0x00000000003bb2ea                hi1131_vap_add_vap
 .text.hi1131_vap_beacon_status
                0x00000000003bb39e       0x16 build\libs\hi3861\release\no_mesh\libwifi_base.o
                0x00000000003bb39e                hi1131_vap_beacon_status
 .text.hi1131_vap_beacon_resume
                0x00000000003bb3b4       0x1e build\libs\hi3861\release\no_mesh\libwifi_base.o
                0x00000000003bb3b4                hi1131_vap_beacon_resume
 .text.hi1131_vap_beacon_suspend
                0x00000000003bb3d2       0x16 build\libs\hi3861\release\no_mesh\libwifi_base.o
                0x00000000003bb3d2                hi1131_vap_beacon_suspend
 .text.hi1131_vap_set_noa
                0x00000000003bb3e8      0x17c build\libs\hi3861\release\no_mesh\libwifi_base.o
                0x00000000003bb3e8                hi1131_vap_set_noa
 .text.hi1131_vap_set_ops
                0x00000000003bb564       0x3c build\libs\hi3861\release\no_mesh\libwifi_base.o
                0x00000000003bb564                hi1131_vap_set_ops
 .text.hi1131_vap_start_tsf
                0x00000000003bb5a0       0x10 build\libs\hi3861\release\no_mesh\libwifi_base.o
                0x00000000003bb5a0                hi1131_vap_start_tsf
 .text.hi1131_vap_set_machw_tsf_disable
                0x00000000003bb5b0       0x62 build\libs\hi3861\release\no_mesh\libwifi_base.o
                0x00000000003bb5b0                hi1131_vap_set_machw_tsf_disable
 .text.hi1131_vap_set_machw_beacon_period
                0x00000000003bb612       0x2c build\libs\hi3861\release\no_mesh\libwifi_base.o
                0x00000000003bb612                hi1131_vap_set_machw_beacon_period
 .text.hi1131_vap_update_beacon_period
                0x00000000003bb63e        0xe build\libs\hi3861\release\no_mesh\libwifi_base.o
                0x00000000003bb63e                hi1131_vap_update_beacon_period
 .text.hi1131_vap_get_beacon_period
                0x00000000003bb64c       0x60 build\libs\hi3861\release\no_mesh\libwifi_base.o
                0x00000000003bb64c                hi1131_vap_get_beacon_period
 .text.hi1131_vap_tsf_get_32bit
                0x00000000003bb6ac       0x60 build\libs\hi3861\release\no_mesh\libwifi_base.o
                0x00000000003bb6ac                hi1131_vap_tsf_get_32bit
 .text.hi1131_vap_tsf_set_32bit
                0x00000000003bb70c       0x5e build\libs\hi3861\release\no_mesh\libwifi_base.o
                0x00000000003bb70c                hi1131_vap_tsf_set_32bit
 .text.hi1131_vap_tsf_get_64bit
                0x00000000003bb76a       0x84 build\libs\hi3861\release\no_mesh\libwifi_base.o
                0x00000000003bb76a                hi1131_vap_tsf_get_64bit
 .text.hi1131_vap_tsf_set_64bit
                0x00000000003bb7ee       0x7a build\libs\hi3861\release\no_mesh\libwifi_base.o
                0x00000000003bb7ee                hi1131_vap_tsf_set_64bit
 .text.hi1131_vap_set_beacon_rate
                0x00000000003bb868        0xe build\libs\hi3861\release\no_mesh\libwifi_base.o
                0x00000000003bb868                hi1131_vap_set_beacon_rate
 .text.hi1131_vap_send_beacon_pkt
                0x00000000003bb876      0x122 build\libs\hi3861\release\no_mesh\libwifi_base.o
                0x00000000003bb876                hi1131_vap_send_beacon_pkt
 .text.hi1131_vap_set_tsf
                0x00000000003bb998       0x32 build\libs\hi3861\release\no_mesh\libwifi_base.o
                0x00000000003bb998                hi1131_vap_set_tsf
 .text.hi1131_vap_set_macaddr
                0x00000000003bb9ca       0xc4 build\libs\hi3861\release\no_mesh\libwifi_base.o
                0x00000000003bb9ca                hi1131_vap_set_macaddr
 .text.hi1131_vap_del_vap
                0x00000000003bba8e       0x62 build\libs\hi3861\release\no_mesh\libwifi_base.o
                0x00000000003bba8e                hi1131_vap_del_vap
 .text.hi1131_vap_set_opmode
                0x00000000003bbaf0       0xc8 build\libs\hi3861\release\no_mesh\libwifi_base.o
                0x00000000003bbaf0                hi1131_vap_set_opmode
 .text.hi1131_vap_clr_opmode
                0x00000000003bbbb8       0x58 build\libs\hi3861\release\no_mesh\libwifi_base.o
                0x00000000003bbbb8                hi1131_vap_clr_opmode
 .text.hi1131_vap_get_hal_vap
                0x00000000003bbc10        0xc build\libs\hi3861\release\no_mesh\libwifi_base.o
                0x00000000003bbc10                hi1131_vap_get_hal_vap
 .text.hi1131_vap_set_machw_aifsn_all_ac
                0x00000000003bbc1c       0x4a build\libs\hi3861\release\no_mesh\libwifi_base.o
                0x00000000003bbc1c                hi1131_vap_set_machw_aifsn_all_ac
 .text.hi1131_vap_set_machw_aifsn_ac
                0x00000000003bbc66       0x6e build\libs\hi3861\release\no_mesh\libwifi_base.o
                0x00000000003bbc66                hi1131_vap_set_machw_aifsn_ac
 .text.hi1131_vap_set_edca_machw_cw_atom
                0x00000000003bbcd4       0x4e build\libs\hi3861\release\no_mesh\libwifi_base.o
                0x00000000003bbcd4                hi1131_vap_set_edca_machw_cw_atom
 .text.hi1131_vap_set_edca_machw_cw
                0x00000000003bbd22       0x24 build\libs\hi3861\release\no_mesh\libwifi_base.o
                0x00000000003bbd22                hi1131_vap_set_edca_machw_cw
 .text.hi1131_vap_get_edca_machw_cw
                0x00000000003bbd46       0x4a build\libs\hi3861\release\no_mesh\libwifi_base.o
                0x00000000003bbd46                hi1131_vap_get_edca_machw_cw
 .text.hi1131_vap_set_machw_txop_limit_bkbe
                0x00000000003bbd90        0xe build\libs\hi3861\release\no_mesh\libwifi_base.o
                0x00000000003bbd90                hi1131_vap_set_machw_txop_limit_bkbe
 .text.hi1131_vap_get_machw_txop_limit_bkbe
                0x00000000003bbd9e       0x14 build\libs\hi3861\release\no_mesh\libwifi_base.o
                0x00000000003bbd9e                hi1131_vap_get_machw_txop_limit_bkbe
 .text.hi1131_vap_set_machw_txop_limit_vivo
                0x00000000003bbdb2        0xe build\libs\hi3861\release\no_mesh\libwifi_base.o
                0x00000000003bbdb2                hi1131_vap_set_machw_txop_limit_vivo
 .text.hi1131_vap_get_machw_txop_limit_vivo
                0x00000000003bbdc0       0x16 build\libs\hi3861\release\no_mesh\libwifi_base.o
                0x00000000003bbdc0                hi1131_vap_get_machw_txop_limit_vivo
 .text.hi1131_vap_set_machw_edca_bkbe_lifetime
                0x00000000003bbdd6        0xe build\libs\hi3861\release\no_mesh\libwifi_base.o
                0x00000000003bbdd6                hi1131_vap_set_machw_edca_bkbe_lifetime
 .text.hi1131_vap_get_machw_edca_bkbe_lifetime
                0x00000000003bbde4       0x14 build\libs\hi3861\release\no_mesh\libwifi_base.o
                0x00000000003bbde4                hi1131_vap_get_machw_edca_bkbe_lifetime
 .text.hi1131_vap_set_machw_edca_vivo_lifetime
                0x00000000003bbdf8        0xe build\libs\hi3861\release\no_mesh\libwifi_base.o
                0x00000000003bbdf8                hi1131_vap_set_machw_edca_vivo_lifetime
 .text.hi1131_vap_get_machw_edca_vivo_lifetime
                0x00000000003bbe06       0x16 build\libs\hi3861\release\no_mesh\libwifi_base.o
                0x00000000003bbe06                hi1131_vap_get_machw_edca_vivo_lifetime
 .text.hi1131_vap_read_tbtt_timer
                0x00000000003bbe1c       0x64 build\libs\hi3861\release\no_mesh\libwifi_base.o
                0x00000000003bbe1c                hi1131_vap_read_tbtt_timer
 .text.hi1131_vap_write_tbtt_timer
                0x00000000003bbe80        0xe build\libs\hi3861\release\no_mesh\libwifi_base.o
                0x00000000003bbe80                hi1131_vap_write_tbtt_timer
 .text.ssi_read_one_data
                0x00000000003bbe8e       0x4e build\libs\hi3861\release\no_mesh\libwifi_base.o
                0x00000000003bbe8e                ssi_read_one_data
 .text.ssi_write_one_data
                0x00000000003bbedc       0x2c build\libs\hi3861\release\no_mesh\libwifi_base.o
                0x00000000003bbedc                ssi_write_one_data
 .text.ssi_set_base_addr
                0x00000000003bbf08       0x10 build\libs\hi3861\release\no_mesh\libwifi_base.o
                0x00000000003bbf08                ssi_set_base_addr
 .text.ssi_write_reg
                0x00000000003bbf18       0x5e build\libs\hi3861\release\no_mesh\libwifi_base.o
                0x00000000003bbf18                ssi_write_reg
 .text.ssi_read_reg
                0x00000000003bbf76       0x8a build\libs\hi3861\release\no_mesh\libwifi_base.o
                0x00000000003bbf76                ssi_read_reg
 .text.ssi_check_reg_rw
                0x00000000003bc000       0x54 build\libs\hi3861\release\no_mesh\libwifi_base.o
                0x00000000003bc000                ssi_check_reg_rw
 .text.ssi_w    0x00000000003bc054       0x26 build\libs\hi3861\release\no_mesh\libwifi_base.o
                0x00000000003bc054                ssi_w
 .text.hi1131_soc_read_reg
                0x00000000003bc07a       0x42 build\libs\hi3861\release\no_mesh\libwifi_base.o
                0x00000000003bc07a                hi1131_soc_read_reg
 .text.hi1131_soc_write_reg
                0x00000000003bc0bc       0x5c build\libs\hi3861\release\no_mesh\libwifi_base.o
                0x00000000003bc0bc                hi1131_soc_write_reg
 .text.hi1131_set_mac_clken
                0x00000000003bc118       0x16 build\libs\hi3861\release\no_mesh\libwifi_base.o
                0x00000000003bc118                hi1131_set_mac_clken
 .text.hi1131_set_wlphy_clk_div
                0x00000000003bc12e       0x78 build\libs\hi3861\release\no_mesh\libwifi_base.o
                0x00000000003bc12e                hi1131_set_wlphy_clk_div
 .text.hi1131_initialize_soc
                0x00000000003bc1a6       0x9e build\libs\hi3861\release\no_mesh\libwifi_base.o
                0x00000000003bc1a6                hi1131_initialize_soc
 .text.hi1131_tx_init_dscr_queue
                0x00000000003bc244       0x5c build\libs\hi3861\release\no_mesh\libwifi_base.o
                0x00000000003bc244                hi1131_tx_init_dscr_queue
 .text.hi1131_tx_destroy_dscr_queue
                0x00000000003bc2a0       0x58 build\libs\hi3861\release\no_mesh\libwifi_base.o
                0x00000000003bc2a0                hi1131_tx_destroy_dscr_queue
 .text.hi1131_tx_fill_basic_ctrl_dscr
                0x00000000003bc2f8       0x9c build\libs\hi3861\release\no_mesh\libwifi_base.o
                0x00000000003bc2f8                hi1131_tx_fill_basic_ctrl_dscr
 .text.hal_tx_dscr_get_real_addr
                0x00000000003bc394       0x22 build\libs\hi3861\release\no_mesh\libwifi_base.o
                0x00000000003bc394                hal_tx_dscr_get_real_addr
 .text.hal_tx_dscr_get_sw_addr
                0x00000000003bc3b6       0x22 build\libs\hi3861\release\no_mesh\libwifi_base.o
                0x00000000003bc3b6                hal_tx_dscr_get_sw_addr
 .text.hi1131_tx_ctrl_dscr_link
                0x00000000003bc3d8       0x24 build\libs\hi3861\release\no_mesh\libwifi_base.o
                0x00000000003bc3d8                hi1131_tx_ctrl_dscr_link
 .text.hi1131_get_tx_dscr_next
                0x00000000003bc3fc       0x28 build\libs\hi3861\release\no_mesh\libwifi_base.o
                0x00000000003bc3fc                hi1131_get_tx_dscr_next
 .text.hi1131_tx_ctrl_dscr_unlink
                0x00000000003bc424       0x28 build\libs\hi3861\release\no_mesh\libwifi_base.o
                0x00000000003bc424                hi1131_tx_ctrl_dscr_unlink
 .text.hi1131_tx_non_ucast_data_set_dscr_three
                0x00000000003bc44c      0x16c build\libs\hi3861\release\no_mesh\libwifi_base.o
                0x00000000003bc44c                hi1131_tx_non_ucast_data_set_dscr_three
 .text.hi1131_tx_non_ucast_data_set_dscr_two
                0x00000000003bc5b8      0x12c build\libs\hi3861\release\no_mesh\libwifi_base.o
                0x00000000003bc5b8                hi1131_tx_non_ucast_data_set_dscr_two
 .text.hi1131_tx_set_dscr_seqno_sw_generate
                0x00000000003bc6e4       0x22 build\libs\hi3861\release\no_mesh\libwifi_base.o
                0x00000000003bc6e4                hi1131_tx_set_dscr_seqno_sw_generate
 .text.hi1131_tx_get_dscr_tx_cnt
                0x00000000003bc706        0x6 build\libs\hi3861\release\no_mesh\libwifi_base.o
                0x00000000003bc706                hi1131_tx_get_dscr_tx_cnt
 .text.hi1131_tx_get_dscr_seq_num
                0x00000000003bc70c       0x24 build\libs\hi3861\release\no_mesh\libwifi_base.o
                0x00000000003bc70c                hi1131_tx_get_dscr_seq_num
 .text.hi1131_tx_get_vap_id
                0x00000000003bc730        0x8 build\libs\hi3861\release\no_mesh\libwifi_base.o
                0x00000000003bc730                hi1131_tx_get_vap_id
 .text.hi1131_tx_get_dscr_status
                0x00000000003bc738        0x8 build\libs\hi3861\release\no_mesh\libwifi_base.o
                0x00000000003bc738                hi1131_tx_get_dscr_status
 .text.hi1131_tx_get_dscr_send_rate_rank
                0x00000000003bc740        0xa build\libs\hi3861\release\no_mesh\libwifi_base.o
                0x00000000003bc740                hi1131_tx_get_dscr_send_rate_rank
 .text.hi1131_tx_set_dscr_status
                0x00000000003bc74a        0xe build\libs\hi3861\release\no_mesh\libwifi_base.o
                0x00000000003bc74a                hi1131_tx_set_dscr_status
 .text.hi1131_tx_get_dscr_chiper_type
                0x00000000003bc758       0x12 build\libs\hi3861\release\no_mesh\libwifi_base.o
                0x00000000003bc758                hi1131_tx_get_dscr_chiper_type
 .text.hi1131_tx_get_dscr_tsf
                0x00000000003bc76a        0xa build\libs\hi3861\release\no_mesh\libwifi_base.o
                0x00000000003bc76a                hi1131_tx_get_dscr_tsf
 .text.hi1131_tx_get_dscr_iv_word
                0x00000000003bc774       0xae build\libs\hi3861\release\no_mesh\libwifi_base.o
                0x00000000003bc774                hi1131_tx_get_dscr_iv_word
 .text.hi1131_tx_get_dscr_ba_ssn
                0x00000000003bc822        0xc build\libs\hi3861\release\no_mesh\libwifi_base.o
                0x00000000003bc822                hi1131_tx_get_dscr_ba_ssn
 .text.hi1131_tx_get_dscr_ba_bitmap
                0x00000000003bc82e       0x54 build\libs\hi3861\release\no_mesh\libwifi_base.o
                0x00000000003bc82e                hi1131_tx_get_dscr_ba_bitmap
 .text.hi1131_tx_put_dscr
                0x00000000003bc882       0xc6 build\libs\hi3861\release\no_mesh\libwifi_base.o
                0x00000000003bc882                hi1131_tx_put_dscr
 .text.hi1131_get_tx_q_status
                0x00000000003bc948       0x1a build\libs\hi3861\release\no_mesh\libwifi_base.o
                0x00000000003bc948                hi1131_get_tx_q_status
 .text.hi1131_tx_get_ampdu_len
                0x00000000003bc962        0xe build\libs\hi3861\release\no_mesh\libwifi_base.o
                0x00000000003bc962                hi1131_tx_get_ampdu_len
 .text.hi1131_rx_set_ctrl_dscr
                0x00000000003bc970       0x52 build\libs\hi3861\release\no_mesh\libwifi_base.o
                0x00000000003bc970                hi1131_rx_set_ctrl_dscr
 .text.hi1131_rx_set_status_dscr
                0x00000000003bc9c2        0xe build\libs\hi3861\release\no_mesh\libwifi_base.o
                0x00000000003bc9c2                hi1131_rx_set_status_dscr
 .text.hi1131_rx_get_status_dscr
                0x00000000003bc9d0        0x8 build\libs\hi3861\release\no_mesh\libwifi_base.o
                0x00000000003bc9d0                hi1131_rx_get_status_dscr
 .text.hi1131_rx_get_ampdu_dscr
                0x00000000003bc9d8        0xa build\libs\hi3861\release\no_mesh\libwifi_base.o
                0x00000000003bc9d8                hi1131_rx_get_ampdu_dscr
 .text.hi1131_rx_set_rx_ctl_status
                0x00000000003bc9e2       0xcc build\libs\hi3861\release\no_mesh\libwifi_base.o
                0x00000000003bc9e2                hi1131_rx_set_rx_ctl_status
 .text.hi1131_rx_get_info_dscr
                0x00000000003bcaae      0x12c build\libs\hi3861\release\no_mesh\libwifi_base.o
                0x00000000003bcaae                hi1131_rx_get_info_dscr
 .text.hi1131_rx_get_netbuffer_addr_dscr
                0x00000000003bcbda        0x6 build\libs\hi3861\release\no_mesh\libwifi_base.o
                0x00000000003bcbda                hi1131_rx_get_netbuffer_addr_dscr
 .text.hi1131_rx_supplement_dscr_add_netbuf
                0x00000000003bcbe0       0xa8 build\libs\hi3861\release\no_mesh\libwifi_base.o
                0x00000000003bcbe0                hi1131_rx_supplement_dscr_add_netbuf
 .text.hi1131_rx_supplement_dscr_queue
                0x00000000003bcc88       0x54 build\libs\hi3861\release\no_mesh\libwifi_base.o
                0x00000000003bcc88                hi1131_rx_supplement_dscr_queue
 .text.hi1131_rx_free_dscr_list
                0x00000000003bccdc       0xaa build\libs\hi3861\release\no_mesh\libwifi_base.o
                0x00000000003bccdc                hi1131_rx_free_dscr_list
 .text.hi1131_rx_check_return_dscr_list
                0x00000000003bcd86       0x66 build\libs\hi3861\release\no_mesh\libwifi_base.o
                0x00000000003bcd86                hi1131_rx_check_return_dscr_list
 .text.hi1131_rx_return_dscr_list
                0x00000000003bcdec       0xfc build\libs\hi3861\release\no_mesh\libwifi_base.o
                0x00000000003bcdec                hi1131_rx_return_dscr_list
 .text.hi1131_rx_add_dscr
                0x00000000003bcee8       0xee build\libs\hi3861\release\no_mesh\libwifi_base.o
                0x00000000003bcee8                hi1131_rx_add_dscr
 .text.hi1131_rx_destroy_dscr_queue
                0x00000000003bcfd6       0x8e build\libs\hi3861\release\no_mesh\libwifi_base.o
                0x00000000003bcfd6                hi1131_rx_destroy_dscr_queue
 .text.hi1131_al_rx_destroy_dscr_queue
                0x00000000003bd064       0x84 build\libs\hi3861\release\no_mesh\libwifi_base.o
                0x00000000003bd064                hi1131_al_rx_destroy_dscr_queue
 .text.hi1131_init_hw_rx_isr_list
                0x00000000003bd0e8       0x6a build\libs\hi3861\release\no_mesh\libwifi_base.o
                0x00000000003bd0e8                hi1131_init_hw_rx_isr_list
 .text.hi1131_free_rx_isr_list
                0x00000000003bd152       0x4a build\libs\hi3861\release\no_mesh\libwifi_base.o
                0x00000000003bd152                hi1131_free_rx_isr_list
 .text.hi1131_set_machw_rx_buff_addr
                0x00000000003bd19c       0x22 build\libs\hi3861\release\no_mesh\libwifi_base.o
                0x00000000003bd19c                hi1131_set_machw_rx_buff_addr
 .text.hi1131_al_rx_init_dscr_queue
                0x00000000003bd1be       0x7e build\libs\hi3861\release\no_mesh\libwifi_base.o
                0x00000000003bd1be                hi1131_al_rx_init_dscr_queue
 .text.hi1131_rx_init_dscr_queue
                0x00000000003bd23c      0x114 build\libs\hi3861\release\no_mesh\libwifi_base.o
                0x00000000003bd23c                hi1131_rx_init_dscr_queue
 .text.hi1131_rx_dscr_opt_reset_normal
                0x00000000003bd350       0xb8 build\libs\hi3861\release\no_mesh\libwifi_base.o
                0x00000000003bd350                hi1131_rx_dscr_opt_reset_normal
 .text.hi1131_set_machw_rx_buff_addr_sync
                0x00000000003bd408       0x94 build\libs\hi3861\release\no_mesh\libwifi_base.o
                0x00000000003bd408                hi1131_set_machw_rx_buff_addr_sync
 .text.hi1131_pa_get_rx_frame_dscr_addr
                0x00000000003bd49c       0x3a build\libs\hi3861\release\no_mesh\libwifi_base.o
                0x00000000003bd49c                hi1131_pa_get_rx_frame_dscr_addr
 .text.hi1131_pa_get_tx_frame_dscr_addr
                0x00000000003bd4d6       0x5a build\libs\hi3861\release\no_mesh\libwifi_base.o
                0x00000000003bd4d6                hi1131_pa_get_tx_frame_dscr_addr
 .text.hi1131_tx_dscr_set_rate
                0x00000000003bd530       0x3e build\libs\hi3861\release\no_mesh\libwifi_base.o
                0x00000000003bd530                hi1131_tx_dscr_set_rate
 .text.hi1131_tx_set_tx_dscr_two
                0x00000000003bd56e      0x186 build\libs\hi3861\release\no_mesh\libwifi_base.o
                0x00000000003bd56e                hi1131_tx_set_tx_dscr_two
 .text.hi1131_tx_ucast_data_set_dscr
                0x00000000003bd6f4       0xea build\libs\hi3861\release\no_mesh\libwifi_base.o
                0x00000000003bd6f4                hi1131_tx_ucast_data_set_dscr
 .text.hi1131_tx_non_ucast_data_set_dscr
                0x00000000003bd7de       0x7a build\libs\hi3861\release\no_mesh\libwifi_base.o
                0x00000000003bd7de                hi1131_tx_non_ucast_data_set_dscr
 .text.hi1131_tx_dscr_get_rate
                0x00000000003bd858       0x38 build\libs\hi3861\release\no_mesh\libwifi_base.o
                0x00000000003bd858                hi1131_tx_dscr_get_rate
 .text.hi1131_tx_get_dscr_ctrl_one_param
                0x00000000003bd890      0x164 build\libs\hi3861\release\no_mesh\libwifi_base.o
                0x00000000003bd890                hi1131_tx_get_dscr_ctrl_one_param
 .text.hi1131_alloc_rx_isr_info
                0x00000000003bd9f4       0x44 build\libs\hi3861\release\no_mesh\libwifi_base.o
                0x00000000003bd9f4                hi1131_alloc_rx_isr_info
 .text.hi1131_rx_get_next_dscr
                0x00000000003bda38       0x1a build\libs\hi3861\release\no_mesh\libwifi_base.o
                0x00000000003bda38                hi1131_rx_get_next_dscr
 .text.hi1131_set_g_ul_phy_power0_ref_2g
                0x00000000003bda52        0xa build\libs\hi3861\release\no_mesh\libwifi_base.o
                0x00000000003bda52                hi1131_set_g_ul_phy_power0_ref_2g
 .text.hi1131_initialize_phy_5m
                0x00000000003bda5c       0x80 build\libs\hi3861\release\no_mesh\libwifi_base.o
                0x00000000003bda5c                hi1131_initialize_phy_5m
 .text.hi1131_initialize_phy_10m
                0x00000000003bdadc       0x84 build\libs\hi3861\release\no_mesh\libwifi_base.o
                0x00000000003bdadc                hi1131_initialize_phy_10m
 .text.hi1131_initialize_phy_20m
                0x00000000003bdb60       0x80 build\libs\hi3861\release\no_mesh\libwifi_base.o
                0x00000000003bdb60                hi1131_initialize_phy_20m
 .text.hi1131_initialize_phy_ch0_13
                0x00000000003bdbe0       0xc8 build\libs\hi3861\release\no_mesh\libwifi_base.o
                0x00000000003bdbe0                hi1131_initialize_phy_ch0_13
 .text.hi1131_initialize_phy_ch14
                0x00000000003bdca8       0xc2 build\libs\hi3861\release\no_mesh\libwifi_base.o
                0x00000000003bdca8                hi1131_initialize_phy_ch14
 .text.hi1131_initialize_phy_common
                0x00000000003bdd6a       0x10 build\libs\hi3861\release\no_mesh\libwifi_base.o
                0x00000000003bdd6a                hi1131_initialize_phy_common
 .text.hi1131_phy_gain_cfg_switch
                0x00000000003bdd7a       0xf0 build\libs\hi3861\release\no_mesh\libwifi_base.o
                0x00000000003bdd7a                hi1131_phy_gain_cfg_switch
 .text.hi1131_get_freq_factor
                0x00000000003bde6a       0x4a build\libs\hi3861\release\no_mesh\libwifi_base.o
                0x00000000003bde6a                hi1131_get_freq_factor
 .text.hi1131_phy_gain_cfg
                0x00000000003bdeb4       0x24 build\libs\hi3861\release\no_mesh\libwifi_base.o
                0x00000000003bdeb4                hi1131_phy_gain_cfg
 .text.hi1131_set_cca_detect_sel
                0x00000000003bded8       0x34 build\libs\hi3861\release\no_mesh\libwifi_base.o
                0x00000000003bded8                hi1131_set_cca_detect_sel
 .text.hi1131_set_phy_filter
                0x00000000003bdf0c       0xd0 build\libs\hi3861\release\no_mesh\libwifi_base.o
                0x00000000003bdf0c                hi1131_set_phy_filter
 .text.hi1131_phy_set_scaling
                0x00000000003bdfdc       0x7c build\libs\hi3861\release\no_mesh\libwifi_base.o
                0x00000000003bdfdc                hi1131_phy_set_scaling
 .text.hi1131_phy_set_dyn_tx_power_addr
                0x00000000003be058       0x1c build\libs\hi3861\release\no_mesh\libwifi_base.o
                0x00000000003be058                hi1131_phy_set_dyn_tx_power_addr
 .text.hi1131_phy_set_papr_clip_reg
                0x00000000003be074       0x24 build\libs\hi3861\release\no_mesh\libwifi_base.o
                0x00000000003be074                hi1131_phy_set_papr_clip_reg
 .text.hi1131_initialize_phy
                0x00000000003be098      0x1e8 build\libs\hi3861\release\no_mesh\libwifi_base.o
                0x00000000003be098                hi1131_initialize_phy
 .text.hi1131_set_upc_data
                0x00000000003be280       0x32 build\libs\hi3861\release\no_mesh\libwifi_base.o
                0x00000000003be280                hi1131_set_upc_data
 .text.hi1131_set_tpc_ctrl_reg_param
                0x00000000003be2b2        0xa build\libs\hi3861\release\no_mesh\libwifi_base.o
                0x00000000003be2b2                hi1131_set_tpc_ctrl_reg_param
 .text.hi1131_set_tpc_params
                0x00000000003be2bc       0x88 build\libs\hi3861\release\no_mesh\libwifi_base.o
                0x00000000003be2bc                hi1131_set_tpc_params
 .text.hi1131_set_freq_band
                0x00000000003be344       0x16 build\libs\hi3861\release\no_mesh\libwifi_base.o
                0x00000000003be344                hi1131_set_freq_band
 .text.hi1131_set_bandwidth_mode
                0x00000000003be35a       0x90 build\libs\hi3861\release\no_mesh\libwifi_base.o
                0x00000000003be35a                hi1131_set_bandwidth_mode
 .text.hi1131_set_primary_channel
                0x00000000003be3ea       0xc2 build\libs\hi3861\release\no_mesh\libwifi_base.o
                0x00000000003be3ea                hi1131_set_primary_channel
 .text.hi1131_hiex_set_sta1_20m
                0x00000000003be4ac       0x3a build\libs\hi3861\release\no_mesh\libwifi_base.o
                0x00000000003be4ac                hi1131_hiex_set_sta1_20m
 .text.hi1131_set_agc_unlock_min_th
                0x00000000003be4e6       0x20 build\libs\hi3861\release\no_mesh\libwifi_base.o
                0x00000000003be4e6                hi1131_set_agc_unlock_min_th
 .text.hi1131_set_ed_high_th
                0x00000000003be506       0x18 build\libs\hi3861\release\no_mesh\libwifi_base.o
                0x00000000003be506                hi1131_set_ed_high_th
 .text.hi1131_set_cca_opt_stat
                0x00000000003be51e       0x24 build\libs\hi3861\release\no_mesh\libwifi_base.o
                0x00000000003be51e                hi1131_set_cca_opt_stat
 .text.hi1131_get_sync_error_cnt
                0x00000000003be542        0xc build\libs\hi3861\release\no_mesh\libwifi_base.o
                0x00000000003be542                hi1131_get_sync_error_cnt
 .text.hi1131_set_sync_err_counter_clear
                0x00000000003be54e       0x12 build\libs\hi3861\release\no_mesh\libwifi_base.o
                0x00000000003be54e                hi1131_set_sync_err_counter_clear
 .text.hi1131_get_cca_reg_th
                0x00000000003be560       0x24 build\libs\hi3861\release\no_mesh\libwifi_base.o
                0x00000000003be560                hi1131_get_cca_reg_th
 .text.hi1131_set_ch_measurement_period
                0x00000000003be584        0xa build\libs\hi3861\release\no_mesh\libwifi_base.o
                0x00000000003be584                hi1131_set_ch_measurement_period
 .text.hi1131_get_ch_measurement_result
                0x00000000003be58e       0x16 build\libs\hi3861\release\no_mesh\libwifi_base.o
                0x00000000003be58e                hi1131_get_ch_measurement_result
 .text.hi1131_enable_sync_error_counter
                0x00000000003be5a4       0x12 build\libs\hi3861\release\no_mesh\libwifi_base.o
                0x00000000003be5a4                hi1131_enable_sync_error_counter
 .text.hi1131_set_adc_sample_rate_80m
                0x00000000003be5b6       0x4c build\libs\hi3861\release\no_mesh\libwifi_base.o
                0x00000000003be5b6                hi1131_set_adc_sample_rate_80m
 .text.hi1131_get_rate_80211g_table
                0x00000000003be602        0xc build\libs\hi3861\release\no_mesh\libwifi_base.o
                0x00000000003be602                hi1131_get_rate_80211g_table
 .text.hi1131_get_rate_80211g_num
                0x00000000003be60e        0x6 build\libs\hi3861\release\no_mesh\libwifi_base.o
                0x00000000003be60e                hi1131_get_rate_80211g_num
 .text.hi1131_phy_update_scaling_reg
                0x00000000003be614       0x3c build\libs\hi3861\release\no_mesh\libwifi_base.o
                0x00000000003be614                hi1131_phy_update_scaling_reg
 .text.hi1131_phy_update_dsss_scaling_reg_far
                0x00000000003be650       0x1c build\libs\hi3861\release\no_mesh\libwifi_base.o
                0x00000000003be650                hi1131_phy_update_dsss_scaling_reg_far
 .text.hi1131_phy_update_dsss_scaling_reg_near
                0x00000000003be66c       0x1e build\libs\hi3861\release\no_mesh\libwifi_base.o
                0x00000000003be66c                hi1131_phy_update_dsss_scaling_reg_near
 .text.hi1131_reset_phy
                0x00000000003be68a       0x3e build\libs\hi3861\release\no_mesh\libwifi_base.o
                0x00000000003be68a                hi1131_reset_phy
 .text.hi1131_normal_save_mac_reg
                0x00000000003be6c8       0x98 build\libs\hi3861\release\no_mesh\libwifi_base.o
                0x00000000003be6c8                hi1131_normal_save_mac_reg
 .text.hi1131_reset_mac_all
                0x00000000003be760       0x26 build\libs\hi3861\release\no_mesh\libwifi_base.o
                0x00000000003be760                hi1131_reset_mac_all
 .text.hi1131_reset_mac_common
                0x00000000003be786       0x5a build\libs\hi3861\release\no_mesh\libwifi_base.o
                0x00000000003be786                hi1131_reset_mac_common
 .text.hi1131_reset_mac_logic_all
                0x00000000003be7e0       0x12 build\libs\hi3861\release\no_mesh\libwifi_base.o
                0x00000000003be7e0                hi1131_reset_mac_logic_all
 .text.hi1131_reset_mac
                0x00000000003be7f2       0x38 build\libs\hi3861\release\no_mesh\libwifi_base.o
                0x00000000003be7f2                hi1131_reset_mac
 .text.hi1131_reset_rf
                0x00000000003be82a       0x14 build\libs\hi3861\release\no_mesh\libwifi_base.o
                0x00000000003be82a                hi1131_reset_rf
 .text.hi1131_reset_phy_machw
                0x00000000003be83e       0x64 build\libs\hi3861\release\no_mesh\libwifi_base.o
                0x00000000003be83e                hi1131_reset_phy_machw
 .text.hi1131_irq_mwo_det_isr
                0x00000000003be8a2       0x18 build\libs\hi3861\release\no_mesh\libwifi_base.o
                0x00000000003be8a2                hi1131_irq_mwo_det_isr
 .text.hi1131_irq_one_pkt_done_isr
                0x00000000003be8ba       0x18 build\libs\hi3861\release\no_mesh\libwifi_base.o
                0x00000000003be8ba                hi1131_irq_one_pkt_done_isr
 .text.hi1131_irq_p2p_ct_window_end_isr
                0x00000000003be8d2       0xd8 build\libs\hi3861\release\no_mesh\libwifi_base.o
                0x00000000003be8d2                hi1131_irq_p2p_ct_window_end_isr
 .text.hi1131_irq_p2p_noa_absent_start_isr
                0x00000000003be9aa       0xc0 build\libs\hi3861\release\no_mesh\libwifi_base.o
                0x00000000003be9aa                hi1131_irq_p2p_noa_absent_start_isr
 .text.hi1131_irq_p2p_noa_absent_end_isr
                0x00000000003bea6a      0x102 build\libs\hi3861\release\no_mesh\libwifi_base.o
                0x00000000003bea6a                hi1131_irq_p2p_noa_absent_end_isr
 .text.hi1131_irq_p2p_absent_start_isr
                0x00000000003beb6c       0x10 build\libs\hi3861\release\no_mesh\libwifi_base.o
                0x00000000003beb6c                hi1131_irq_p2p_absent_start_isr
 .text.hi1131_irq_p2p_absent_end_isr
                0x00000000003beb7c       0x10 build\libs\hi3861\release\no_mesh\libwifi_base.o
                0x00000000003beb7c                hi1131_irq_p2p_absent_end_isr
 .text.hi1131_irq_csi_data_report_isr
                0x00000000003beb8c       0x82 build\libs\hi3861\release\no_mesh\libwifi_base.o
                0x00000000003beb8c                hi1131_irq_csi_data_report_isr
 .text.hi1131_btcoex_abort_start_isr
                0x00000000003bec0e       0x3e build\libs\hi3861\release\no_mesh\libwifi_base.o
                0x00000000003bec0e                hi1131_btcoex_abort_start_isr
 .text.hi1131_btcoex_abort_done_isr
                0x00000000003bec4c        0xe build\libs\hi3861\release\no_mesh\libwifi_base.o
                0x00000000003bec4c                hi1131_btcoex_abort_done_isr
 .text.hi1131_btcoex_abort_end_isr
                0x00000000003bec5a       0x2e build\libs\hi3861\release\no_mesh\libwifi_base.o
                0x00000000003bec5a                hi1131_btcoex_abort_end_isr
 .text.hi1131_irq_init
                0x00000000003bec88       0x32 build\libs\hi3861\release\no_mesh\libwifi_base.o
                0x00000000003bec88                hi1131_irq_init
 .text.hi1131_irq_exit
                0x00000000003becba       0x18 build\libs\hi3861\release\no_mesh\libwifi_base.o
                0x00000000003becba                hi1131_irq_exit
 .text.hi1131_smooth_signal_rssi
                0x00000000003becd2       0xba build\libs\hi3861\release\no_mesh\libwifi_base.o
                0x00000000003becd2                hi1131_smooth_signal_rssi
 .text.hi1131_irq_alway_rx
                0x00000000003bed8c       0xc6 build\libs\hi3861\release\no_mesh\libwifi_base.o
                0x00000000003bed8c                hi1131_irq_alway_rx
 .text.hi1131_irq_alway_tx
                0x00000000003bee52       0xf2 build\libs\hi3861\release\no_mesh\libwifi_base.o
                0x00000000003bee52                hi1131_irq_alway_tx
 .text.hi1131_irq_clear_curr_rx_isr_list
                0x00000000003bef44       0x78 build\libs\hi3861\release\no_mesh\libwifi_base.o
                0x00000000003bef44                hi1131_irq_clear_curr_rx_isr_list
 .text.hi1131_psm_alloc_fisrt_rx_event
                0x00000000003befbc       0x2a build\libs\hi3861\release\no_mesh\libwifi_base.o
                0x00000000003befbc                hi1131_psm_alloc_fisrt_rx_event
 .text.hi1131_irq_rx_complete_isr_dispatch_event
                0x00000000003befe6      0x104 build\libs\hi3861\release\no_mesh\libwifi_base.o
                0x00000000003befe6                hi1131_irq_rx_complete_isr_dispatch_event
 .text.hi1131_get_rx_dscr_info
                0x00000000003bf0ea       0xce build\libs\hi3861\release\no_mesh\libwifi_base.o
                0x00000000003bf0ea                hi1131_get_rx_dscr_info
 .text.hi1131_rx_dscr_add_queue
                0x00000000003bf1b8       0xfa build\libs\hi3861\release\no_mesh\libwifi_base.o
                0x00000000003bf1b8                hi1131_rx_dscr_add_queue
 .text.hi1131_irq_rx_complete_isr
                0x00000000003bf2b2      0x10c build\libs\hi3861\release\no_mesh\libwifi_base.o
                0x00000000003bf2b2                hi1131_irq_rx_complete_isr
 .text.hi1131_flush_rx_complete_irq
                0x00000000003bf3be       0x6e build\libs\hi3861\release\no_mesh\libwifi_base.o
                0x00000000003bf3be                hi1131_flush_rx_complete_irq
 .text.hi1131_irq_tx_complete_isr
                0x00000000003bf42c       0xae build\libs\hi3861\release\no_mesh\libwifi_base.o
                0x00000000003bf42c                hi1131_irq_tx_complete_isr
 .text.hi1131_irq_set_tbtt_tsf
                0x00000000003bf4da       0x34 build\libs\hi3861\release\no_mesh\libwifi_base.o
                0x00000000003bf4da                hi1131_irq_set_tbtt_tsf
 .text.hi1131_irq_tbtt_isr
                0x00000000003bf50e      0x17e build\libs\hi3861\release\no_mesh\libwifi_base.o
                0x00000000003bf50e                hi1131_irq_tbtt_isr
 .text.hi1131_report_cca_status
                0x00000000003bf68c       0x6c build\libs\hi3861\release\no_mesh\libwifi_base.o
                0x00000000003bf68c                hi1131_report_cca_status
 .text.hal_irq_hander_error_event
                0x00000000003bf6f8       0x60 build\libs\hi3861\release\no_mesh\libwifi_base.o
                0x00000000003bf6f8                hal_irq_hander_error_event
 .text.hi1131_irq_mac_error_isr
                0x00000000003bf758       0xb6 build\libs\hi3861\release\no_mesh\libwifi_base.o
                0x00000000003bf758                hi1131_irq_mac_error_isr
 .text.hi1131_irq_channel_statistics_isr
                0x00000000003bf80e       0x42 build\libs\hi3861\release\no_mesh\libwifi_base.o
                0x00000000003bf80e                hi1131_irq_channel_statistics_isr
 .text.hi1131_irq_wait_beacon_timeout_isr
                0x00000000003bf850       0xd2 build\libs\hi3861\release\no_mesh\libwifi_base.o
                0x00000000003bf850                hi1131_irq_wait_beacon_timeout_isr
 .text.hi1131_irq_mac_isr
                0x00000000003bf922      0x170 build\libs\hi3861\release\no_mesh\libwifi_base.o
                0x00000000003bf922                hi1131_irq_mac_isr
 .text.hi1131_irq_isr_all
                0x00000000003bfa92       0x52 build\libs\hi3861\release\no_mesh\libwifi_base.o
                0x00000000003bfa92                hi1131_irq_isr_all
 .text.hi1131_temperature_compesation
                0x00000000003bfae4       0x94 build\libs\hi3861\release\no_mesh\libwifi_base.o
                0x00000000003bfae4                hi1131_temperature_compesation
 .text.hi1131_get_rf_temp_code
                0x00000000003bfb78       0x52 build\libs\hi3861\release\no_mesh\libwifi_base.o
                0x00000000003bfb78                hi1131_get_rf_temp_code
 .text.hi1131_rf_read_reg
                0x00000000003bfbca       0x16 build\libs\hi3861\release\no_mesh\libwifi_base.o
                0x00000000003bfbca                hi1131_rf_read_reg
 .text.hi1131_rf_write_reg
                0x00000000003bfbe0       0x64 build\libs\hi3861\release\no_mesh\libwifi_base.o
                0x00000000003bfbe0                hi1131_rf_write_reg
 .text.hi1131_rf_write_reg_bits
                0x00000000003bfc44       0x68 build\libs\hi3861\release\no_mesh\libwifi_base.o
                0x00000000003bfc44                hi1131_rf_write_reg_bits
 .text.hi1131_rf_pll_read_reg
                0x00000000003bfcac       0x28 build\libs\hi3861\release\no_mesh\libwifi_base.o
                0x00000000003bfcac                hi1131_rf_pll_read_reg
 .text.hi1131_rf_pll_write_reg
                0x00000000003bfcd4       0x66 build\libs\hi3861\release\no_mesh\libwifi_base.o
                0x00000000003bfcd4                hi1131_rf_pll_write_reg
 .text.hi1131_rf_pll_write_reg_bits
                0x00000000003bfd3a       0x6c build\libs\hi3861\release\no_mesh\libwifi_base.o
                0x00000000003bfd3a                hi1131_rf_pll_write_reg_bits
 .text.hi1131_rf_sample_send
                0x00000000003bfda6       0x6e build\libs\hi3861\release\no_mesh\libwifi_base.o
                0x00000000003bfda6                hi1131_rf_sample_send
 .text.hi1131_rf_sample_recv
                0x00000000003bfe14       0x3a build\libs\hi3861\release\no_mesh\libwifi_base.o
                0x00000000003bfe14                hi1131_rf_sample_recv
 .text.hi1131_rf_sample_recv_bug
                0x00000000003bfe4e       0xa6 build\libs\hi3861\release\no_mesh\libwifi_base.o
                0x00000000003bfe4e                hi1131_rf_sample_recv_bug
 .text.hi1131_rf_write_tx_gain_ctrl
                0x00000000003bfef4       0x14 build\libs\hi3861\release\no_mesh\libwifi_base.o
                0x00000000003bfef4                hi1131_rf_write_tx_gain_ctrl
 .text.hi1131_get_tpc_rf_reg_param
                0x00000000003bff08       0x34 build\libs\hi3861\release\no_mesh\libwifi_base.o
                0x00000000003bff08                hi1131_get_tpc_rf_reg_param
 .text.hi1131_set_tpc_rf_reg_param
                0x00000000003bff3c       0x36 build\libs\hi3861\release\no_mesh\libwifi_base.o
                0x00000000003bff3c                hi1131_set_tpc_rf_reg_param
 .text.alg_register_distance_notify_func
                0x00000000003bff72       0x12 build\libs\hi3861\release\no_mesh\libwifi_base.o
                0x00000000003bff72                alg_register_distance_notify_func
 .text.alg_unregister_distance_notify_func
                0x00000000003bff84       0x16 build\libs\hi3861\release\no_mesh\libwifi_base.o
                0x00000000003bff84                alg_unregister_distance_notify_func
 .text.alg_distance_notify
                0x00000000003bff9a       0x4a build\libs\hi3861\release\no_mesh\libwifi_base.o
                0x00000000003bff9a                alg_distance_notify
 .text.alg_register_co_intf_notify_func
                0x00000000003bffe4       0x14 build\libs\hi3861\release\no_mesh\libwifi_base.o
                0x00000000003bffe4                alg_register_co_intf_notify_func
 .text.alg_internal_hook_init
                0x00000000003bfff8       0x34 build\libs\hi3861\release\no_mesh\libwifi_base.o
                0x00000000003bfff8                alg_internal_hook_init
 .text.alg_main_init
                0x00000000003c002c       0xb6 build\libs\hi3861\release\no_mesh\libwifi_base.o
                0x00000000003c002c                alg_main_init
 .text.alg_unregister_co_intf_notify_func
                0x00000000003c00e2       0x18 build\libs\hi3861\release\no_mesh\libwifi_base.o
                0x00000000003c00e2                alg_unregister_co_intf_notify_func
 .text.alg_internal_hook_exit
                0x00000000003c00fa       0x14 build\libs\hi3861\release\no_mesh\libwifi_base.o
                0x00000000003c00fa                alg_internal_hook_exit
 .text.alg_main_exit
                0x00000000003c010e       0x26 build\libs\hi3861\release\no_mesh\libwifi_base.o
                0x00000000003c010e                alg_main_exit
 .text.alg_co_intf_notify
                0x00000000003c0134       0x1a build\libs\hi3861\release\no_mesh\libwifi_base.o
                0x00000000003c0134                alg_co_intf_notify
 .text.alg_set_rom_resv_func
                0x00000000003c014e       0x16 build\libs\hi3861\release\no_mesh\libwifi_base.o
                0x00000000003c014e                alg_set_rom_resv_func
 .text.alg_get_rom_resv_func
                0x00000000003c0164       0x1c build\libs\hi3861\release\no_mesh\libwifi_base.o
                0x00000000003c0164                alg_get_rom_resv_func
 .text.alg_autorate_get_11n_table
                0x00000000003c0180        0xa build\libs\hi3861\release\no_mesh\libwifi_base.o
                0x00000000003c0180                alg_autorate_get_11n_table
 .text.alg_autorate_get_stat_to_ltf
                0x00000000003c018a        0x6 build\libs\hi3861\release\no_mesh\libwifi_base.o
                0x00000000003c018a                alg_autorate_get_stat_to_ltf
 .text.alg_autorate_get_dev_priv_stru
                0x00000000003c0190        0xa build\libs\hi3861\release\no_mesh\libwifi_base.o
                0x00000000003c0190                alg_autorate_get_dev_priv_stru
 .text.alg_autorate_stru_init
                0x00000000003c019a       0xb0 build\libs\hi3861\release\no_mesh\libwifi_base.o
                0x00000000003c019a                alg_autorate_stru_init
 .text.alg_autorate_exit
                0x00000000003c024a       0x96 build\libs\hi3861\release\no_mesh\libwifi_base.o
                0x00000000003c024a                alg_autorate_exit
 .text.alg_autorate_malloc_user
                0x00000000003c02e0       0x5a build\libs\hi3861\release\no_mesh\libwifi_base.o
                0x00000000003c02e0                alg_autorate_malloc_user
 .text.alg_autorate_exit_user
                0x00000000003c033a       0x2c build\libs\hi3861\release\no_mesh\libwifi_base.o
                0x00000000003c033a                alg_autorate_exit_user
 .text.alg_autorate_get_user_per
                0x00000000003c0366       0x3a build\libs\hi3861\release\no_mesh\libwifi_base.o
                0x00000000003c0366                alg_autorate_get_user_per
 .text.alg_autorate_get_best_rate_per
                0x00000000003c03a0       0x60 build\libs\hi3861\release\no_mesh\libwifi_base.o
                0x00000000003c03a0                alg_autorate_get_best_rate_per
 .text.alg_autorate_sort_rate_set
                0x00000000003c0400       0x68 build\libs\hi3861\release\no_mesh\libwifi_base.o
                0x00000000003c0400                alg_autorate_sort_rate_set
 .text.alg_autorate_get_device_legacy_phy_mcs
                0x00000000003c0468      0x112 build\libs\hi3861\release\no_mesh\libwifi_base.o
                0x00000000003c0468                alg_autorate_get_device_legacy_phy_mcs
 .text.alg_autorate_init
                0x00000000003c057a       0x78 build\libs\hi3861\release\no_mesh\libwifi_base.o
                0x00000000003c057a                alg_autorate_init
 .text.alg_autorate_check_support_11b
                0x00000000003c05f2       0xb0 build\libs\hi3861\release\no_mesh\libwifi_base.o
                0x00000000003c05f2                alg_autorate_check_support_11b
 .text.alg_autorate_get_user_legacy_rate_set
                0x00000000003c06a2       0x8a build\libs\hi3861\release\no_mesh\libwifi_base.o
                0x00000000003c06a2                alg_autorate_get_user_legacy_rate_set
 .text.alg_autorate_get_user_ht_rate_set
                0x00000000003c072c       0x92 build\libs\hi3861\release\no_mesh\libwifi_base.o
                0x00000000003c072c                alg_autorate_get_user_ht_rate_set
 .text.alg_autorate_get_user_rate_set
                0x00000000003c07be       0x6c build\libs\hi3861\release\no_mesh\libwifi_base.o
                0x00000000003c07be                alg_autorate_get_user_rate_set
 .text.alg_autorate_init_user_capability
                0x00000000003c082a       0xec build\libs\hi3861\release\no_mesh\libwifi_base.o
                0x00000000003c082a                alg_autorate_init_user_capability
 .text.alg_autorate_init_user_rate_table
                0x00000000003c0916       0x6c build\libs\hi3861\release\no_mesh\libwifi_base.o
                0x00000000003c0916                alg_autorate_init_user_rate_table
 .text.alg_autorate_init_user_rate_misc
                0x00000000003c0982       0x2a build\libs\hi3861\release\no_mesh\libwifi_base.o
                0x00000000003c0982                alg_autorate_init_user_rate_misc
 .text.alg_autorate_update_best_rate
                0x00000000003c09ac       0x62 build\libs\hi3861\release\no_mesh\libwifi_base.o
                0x00000000003c09ac                alg_autorate_update_best_rate
 .text.alg_autorate_set_rate_mcs
                0x00000000003c0a0e       0xc0 build\libs\hi3861\release\no_mesh\libwifi_base.o
                0x00000000003c0a0e                alg_autorate_set_rate_mcs
 .text.alg_autorate_auc_best_rate
                0x00000000003c0ace       0xbc build\libs\hi3861\release\no_mesh\libwifi_base.o
                0x00000000003c0ace                alg_autorate_auc_best_rate
 .text.alg_autorate_init_rate_policy
                0x00000000003c0b8a      0x118 build\libs\hi3861\release\no_mesh\libwifi_base.o
                0x00000000003c0b8a                alg_autorate_init_rate_policy
 .text.alg_autorate_get_rate_index_by_code
                0x00000000003c0ca2       0x2e build\libs\hi3861\release\no_mesh\libwifi_base.o
                0x00000000003c0ca2                alg_autorate_get_rate_index_by_code
 .text.alg_autorate_match_rate_code
                0x00000000003c0cd0       0xac build\libs\hi3861\release\no_mesh\libwifi_base.o
                0x00000000003c0cd0                alg_autorate_match_rate_code
 .text.alg_autorate_judge_switch_protocol
                0x00000000003c0d7c       0xac build\libs\hi3861\release\no_mesh\libwifi_base.o
                0x00000000003c0d7c                alg_autorate_judge_switch_protocol
 .text.alg_autorate_get_legacy_rate_table_offset
                0x00000000003c0e28       0x44 build\libs\hi3861\release\no_mesh\libwifi_base.o
                0x00000000003c0e28                alg_autorate_get_legacy_rate_table_offset
 .text.alg_autorate_get_ht_rate_table_offset
                0x00000000003c0e6c       0x44 build\libs\hi3861\release\no_mesh\libwifi_base.o
                0x00000000003c0e6c                alg_autorate_get_ht_rate_table_offset
 .text.alg_autorate_get_rate_code
                0x00000000003c0eb0       0x3a build\libs\hi3861\release\no_mesh\libwifi_base.o
                0x00000000003c0eb0                alg_autorate_get_rate_code
 .text.alg_autorate_get_rate_index
                0x00000000003c0eea      0x142 build\libs\hi3861\release\no_mesh\libwifi_base.o
                0x00000000003c0eea                alg_autorate_get_rate_index
 .text.alg_autorate_get_traffic_rate_info
                0x00000000003c102c       0xd0 build\libs\hi3861\release\no_mesh\libwifi_base.o
                0x00000000003c102c                alg_autorate_get_traffic_rate_info
 .text.alg_autorate_calc_ht_goodput
                0x00000000003c10fc       0xb8 build\libs\hi3861\release\no_mesh\libwifi_base.o
                0x00000000003c10fc                alg_autorate_calc_ht_goodput
 .text.alg_autorate_calc_11g_goodput
                0x00000000003c11b4       0x48 build\libs\hi3861\release\no_mesh\libwifi_base.o
                0x00000000003c11b4                alg_autorate_calc_11g_goodput
 .text.alg_autorate_calc_11b_goodput
                0x00000000003c11fc       0x34 build\libs\hi3861\release\no_mesh\libwifi_base.o
                0x00000000003c11fc                alg_autorate_calc_11b_goodput
 .text.alg_autorate_calc_goodput
                0x00000000003c1230       0x78 build\libs\hi3861\release\no_mesh\libwifi_base.o
                0x00000000003c1230                alg_autorate_calc_goodput
 .text.alg_autorate_init_spec_rate_stat_info
                0x00000000003c12a8       0x54 build\libs\hi3861\release\no_mesh\libwifi_base.o
                0x00000000003c12a8                alg_autorate_init_spec_rate_stat_info
 .text.alg_autorate_init_stat_info
                0x00000000003c12fc      0x10e build\libs\hi3861\release\no_mesh\libwifi_base.o
                0x00000000003c12fc                alg_autorate_init_stat_info
 .text.alg_autorate_change_protocol_mode
                0x00000000003c140a       0x7e build\libs\hi3861\release\no_mesh\libwifi_base.o
                0x00000000003c140a                alg_autorate_change_protocol_mode
 .text.alg_autorate_get_down_retry_rate
                0x00000000003c1488       0x52 build\libs\hi3861\release\no_mesh\libwifi_base.o
                0x00000000003c1488                alg_autorate_get_down_retry_rate
 .text.alg_autorate_set_last_three_best_rate
                0x00000000003c14da       0xdc build\libs\hi3861\release\no_mesh\libwifi_base.o
                0x00000000003c14da                alg_autorate_set_last_three_best_rate
 .text.alg_autorate_set_best_rate
                0x00000000003c15b6       0x84 build\libs\hi3861\release\no_mesh\libwifi_base.o
                0x00000000003c15b6                alg_autorate_set_best_rate
 .text.alg_autorate_set_best_rate_info
                0x00000000003c163a       0x88 build\libs\hi3861\release\no_mesh\libwifi_base.o
                0x00000000003c163a                alg_autorate_set_best_rate_info
 .text.alg_autorate_init_best_rate
                0x00000000003c16c2       0x96 build\libs\hi3861\release\no_mesh\libwifi_base.o
                0x00000000003c16c2                alg_autorate_init_best_rate
 .text.alg_autorate_init_user_qos_rate
                0x00000000003c1758       0xac build\libs\hi3861\release\no_mesh\libwifi_base.o
                0x00000000003c1758                alg_autorate_init_user_qos_rate
 .text.alg_autorate_init_user_rate_info
                0x00000000003c1804       0xf8 build\libs\hi3861\release\no_mesh\libwifi_base.o
                0x00000000003c1804                alg_autorate_init_user_rate_info
 .text.alg_autorate_cal_aggr_subfrm_size
                0x00000000003c18fc       0xca build\libs\hi3861\release\no_mesh\libwifi_base.o
                0x00000000003c18fc                alg_autorate_cal_aggr_subfrm_size
 .text.alg_autorate_get_rifs_aggr_subframe
                0x00000000003c19c6       0xc0 build\libs\hi3861\release\no_mesh\libwifi_base.o
                0x00000000003c19c6                alg_autorate_get_rifs_aggr_subframe
 .text.alg_autorate_get_aggr_subframe
                0x00000000003c1a86       0xd8 build\libs\hi3861\release\no_mesh\libwifi_base.o
                0x00000000003c1a86                alg_autorate_get_aggr_subframe
 .text.alg_autorate_schedule_rate_set
                0x00000000003c1b5e       0xe8 build\libs\hi3861\release\no_mesh\libwifi_base.o
                0x00000000003c1b5e                alg_autorate_schedule_rate_set
 .text.alg_autorate_schedule_rate_process
                0x00000000003c1c46      0x10a build\libs\hi3861\release\no_mesh\libwifi_base.o
                0x00000000003c1c46                alg_autorate_schedule_rate_process
 .text.alg_autorate_set_schedule_rate_info
                0x00000000003c1d50       0xc6 build\libs\hi3861\release\no_mesh\libwifi_base.o
                0x00000000003c1d50                alg_autorate_set_schedule_rate_info
 .text.alg_autorate_init_user
                0x00000000003c1e16       0xdc build\libs\hi3861\release\no_mesh\libwifi_base.o
                0x00000000003c1e16                alg_autorate_init_user
 .text.alg_autorate_delete_ba_fail
                0x00000000003c1ef2       0xd8 build\libs\hi3861\release\no_mesh\libwifi_base.o
                0x00000000003c1ef2                alg_autorate_delete_ba_fail
 .text.alg_autorate_get_new_bw_best_rate
                0x00000000003c1fca       0x3c build\libs\hi3861\release\no_mesh\libwifi_base.o
                0x00000000003c1fca                alg_autorate_get_new_bw_best_rate
 .text.alg_autorate_change_user_bandwidth_process
                0x00000000003c2006      0x138 build\libs\hi3861\release\no_mesh\libwifi_base.o
                0x00000000003c2006                alg_autorate_change_user_bandwidth_process
 .text.alg_autorate_check_rate_code
                0x00000000003c213e       0x64 build\libs\hi3861\release\no_mesh\libwifi_base.o
                0x00000000003c213e                alg_autorate_check_rate_code
 .text.alg_autorate_get_rate
                0x00000000003c21a2       0xcc build\libs\hi3861\release\no_mesh\libwifi_base.o
                0x00000000003c21a2                alg_autorate_get_rate
 .text.alg_autorate_parse_rx_rate
                0x00000000003c226e       0x68 build\libs\hi3861\release\no_mesh\libwifi_base.o
                0x00000000003c226e                alg_autorate_parse_rx_rate
 .text.alg_autorate_rx_process
                0x00000000003c22d6       0x5e build\libs\hi3861\release\no_mesh\libwifi_base.o
                0x00000000003c22d6                alg_autorate_rx_process
 .text.alg_get_aggr_time_list
                0x00000000003c2334        0xa build\libs\hi3861\release\no_mesh\libwifi_base.o
                0x00000000003c2334                alg_get_aggr_time_list
 .text.alg_get_aggr_scale_list
                0x00000000003c233e        0xa build\libs\hi3861\release\no_mesh\libwifi_base.o
                0x00000000003c233e                alg_get_aggr_scale_list
 .text.alg_autorate_aggropt_init_info
                0x00000000003c2348       0xb6 build\libs\hi3861\release\no_mesh\libwifi_base.o
                0x00000000003c2348                alg_autorate_aggropt_init_info
 .text.alg_autorate_init_aggropt_rate
                0x00000000003c23fe       0x64 build\libs\hi3861\release\no_mesh\libwifi_base.o
                0x00000000003c23fe                alg_autorate_init_aggropt_rate
 .text.alg_autorate_aggropt_new_best_rate_update
                0x00000000003c2462       0x60 build\libs\hi3861\release\no_mesh\libwifi_base.o
                0x00000000003c2462                alg_autorate_aggropt_new_best_rate_update
 .text.alg_autorate_aggropt_tx_query_process
                0x00000000003c24c2       0x2e build\libs\hi3861\release\no_mesh\libwifi_base.o
                0x00000000003c24c2                alg_autorate_aggropt_tx_query_process
 .text.alg_autorate_aggropt_update_max_mpdu_bytes
                0x00000000003c24f0       0x22 build\libs\hi3861\release\no_mesh\libwifi_base.o
                0x00000000003c24f0                alg_autorate_aggropt_update_max_mpdu_bytes
 .text.alg_autorate_aggropt_get_video_max_delay_status
                0x00000000003c2512       0x36 build\libs\hi3861\release\no_mesh\libwifi_base.o
                0x00000000003c2512                alg_autorate_aggropt_get_video_max_delay_status
 .text.alg_autorate_aggropt_aggr_up_update_info
                0x00000000003c2548      0x1c0 build\libs\hi3861\release\no_mesh\libwifi_base.o
                0x00000000003c2548                alg_autorate_aggropt_aggr_up_update_info
 .text.alg_autorate_aggropt_update_probe_aggr_up_stat
                0x00000000003c2708       0xca build\libs\hi3861\release\no_mesh\libwifi_base.o
                0x00000000003c2708                alg_autorate_aggropt_update_probe_aggr_up_stat
 .text.alg_autorate_dbg_aggr_log_output
                0x00000000003c27d2       0xb8 build\libs\hi3861\release\no_mesh\libwifi_base.o
                0x00000000003c27d2                alg_autorate_dbg_aggr_log_output
 .text.alg_autorate_aggropt_update_probe_aggr_down_stat
                0x00000000003c288a      0x118 build\libs\hi3861\release\no_mesh\libwifi_base.o
                0x00000000003c288a                alg_autorate_aggropt_update_probe_aggr_down_stat
 .text.alg_autorate_aggropt_update_probe_aggr_stat
                0x00000000003c29a2       0x7e build\libs\hi3861\release\no_mesh\libwifi_base.o
                0x00000000003c29a2                alg_autorate_aggropt_update_probe_aggr_stat
 .text.alg_autorate_aggr_up_process
                0x00000000003c2a20       0x50 build\libs\hi3861\release\no_mesh\libwifi_base.o
                0x00000000003c2a20                alg_autorate_aggr_up_process
 .text.alg_autorate_aggropt_check_probe_direction
                0x00000000003c2a70      0x110 build\libs\hi3861\release\no_mesh\libwifi_base.o
                0x00000000003c2a70                alg_autorate_aggropt_check_probe_direction
 .text.alg_autorate_aggropt_probe_stat
                0x00000000003c2b80       0xbc build\libs\hi3861\release\no_mesh\libwifi_base.o
                0x00000000003c2b80                alg_autorate_aggropt_probe_stat
 .text.alg_autorate_aggropt_probe_process
                0x00000000003c2c3c       0xa8 build\libs\hi3861\release\no_mesh\libwifi_base.o
                0x00000000003c2c3c                alg_autorate_aggropt_probe_process
 .text.alg_autorate_aggropt_calc_subframe_num
                0x00000000003c2ce4       0x82 build\libs\hi3861\release\no_mesh\libwifi_base.o
                0x00000000003c2ce4                alg_autorate_aggropt_calc_subframe_num
 .text.alg_autorate_aggropt_update_normal_aggr_stat
                0x00000000003c2d66       0x26 build\libs\hi3861\release\no_mesh\libwifi_base.o
                0x00000000003c2d66                alg_autorate_aggropt_update_normal_aggr_stat
 .text.alg_autorate_set_nb_11g_limit_rate_idx
                0x00000000003c2d8c        0xa build\libs\hi3861\release\no_mesh\libwifi_base.o
                0x00000000003c2d8c                alg_autorate_set_nb_11g_limit_rate_idx
 .text.alg_autorate_set_nb_11n_limit_rate_idx
                0x00000000003c2d96        0xa build\libs\hi3861\release\no_mesh\libwifi_base.o
                0x00000000003c2d96                alg_autorate_set_nb_11n_limit_rate_idx
 .text.alg_autorate_set_nb_11g_probe_rate_idx
                0x00000000003c2da0        0xa build\libs\hi3861\release\no_mesh\libwifi_base.o
                0x00000000003c2da0                alg_autorate_set_nb_11g_probe_rate_idx
 .text.alg_autorate_set_nb_11n_probe_rate_idx
                0x00000000003c2daa        0xa build\libs\hi3861\release\no_mesh\libwifi_base.o
                0x00000000003c2daa                alg_autorate_set_nb_11n_probe_rate_idx
 .text.alg_autorate_set_nb_h_rssi_limit_rate_offset
                0x00000000003c2db4        0xa build\libs\hi3861\release\no_mesh\libwifi_base.o
                0x00000000003c2db4                alg_autorate_set_nb_h_rssi_limit_rate_offset
 .text.alg_autorate_set_nb_h_rssi_probe_rate_offset
                0x00000000003c2dbe        0xa build\libs\hi3861\release\no_mesh\libwifi_base.o
                0x00000000003c2dbe                alg_autorate_set_nb_h_rssi_probe_rate_offset
 .text.alg_autorate_set_nb_rssi_th
                0x00000000003c2dc8        0xa build\libs\hi3861\release\no_mesh\libwifi_base.o
                0x00000000003c2dc8                alg_autorate_set_nb_rssi_th
 .text.alg_autorate_get_nb_rssi_th
                0x00000000003c2dd2        0xa build\libs\hi3861\release\no_mesh\libwifi_base.o
                0x00000000003c2dd2                alg_autorate_get_nb_rssi_th
 .text.alg_autorate_set_nb_probe_default_paras
                0x00000000003c2ddc       0x46 build\libs\hi3861\release\no_mesh\libwifi_base.o
                0x00000000003c2ddc                alg_autorate_set_nb_probe_default_paras
 .text.alg_autorate_is_short_gi_punished
                0x00000000003c2e22       0x66 build\libs\hi3861\release\no_mesh\libwifi_base.o
                0x00000000003c2e22                alg_autorate_is_short_gi_punished
 .text.alg_autorate_judge_thrpt_wave
                0x00000000003c2e88       0xec build\libs\hi3861\release\no_mesh\libwifi_base.o
                0x00000000003c2e88                alg_autorate_judge_thrpt_wave
 .text.alg_autorate_judge_best_probe_rate
                0x00000000003c2f74       0x68 build\libs\hi3861\release\no_mesh\libwifi_base.o
                0x00000000003c2f74                alg_autorate_judge_best_probe_rate
 .text.alg_autorate_get_up_rate
                0x00000000003c2fdc       0x82 build\libs\hi3861\release\no_mesh\libwifi_base.o
                0x00000000003c2fdc                alg_autorate_get_up_rate
 .text.alg_autorate_probe_down
                0x00000000003c305e       0x56 build\libs\hi3861\release\no_mesh\libwifi_base.o
                0x00000000003c305e                alg_autorate_probe_down
 .text.alg_autorate_nb_get_probe_up_rate_index
                0x00000000003c30b4       0x48 build\libs\hi3861\release\no_mesh\libwifi_base.o
                0x00000000003c30b4                alg_autorate_nb_get_probe_up_rate_index
 .text.alg_autorate_probe_up
                0x00000000003c30fc       0xd6 build\libs\hi3861\release\no_mesh\libwifi_base.o
                0x00000000003c30fc                alg_autorate_probe_up
 .text.alg_autorate_get_nb_limit_rate_code
                0x00000000003c31d2       0x92 build\libs\hi3861\release\no_mesh\libwifi_base.o
                0x00000000003c31d2                alg_autorate_get_nb_limit_rate_code
 .text.alg_autorate_get_down_rate
                0x00000000003c3264      0x112 build\libs\hi3861\release\no_mesh\libwifi_base.o
                0x00000000003c3264                alg_autorate_get_down_rate
 .text.alg_autorate_probe_down_get_rate
                0x00000000003c3376       0xa8 build\libs\hi3861\release\no_mesh\libwifi_base.o
                0x00000000003c3376                alg_autorate_probe_down_get_rate
 .text.alg_autorate_probe_up_get_rate
                0x00000000003c341e       0xd0 build\libs\hi3861\release\no_mesh\libwifi_base.o
                0x00000000003c341e                alg_autorate_probe_up_get_rate
 .text.alg_autorate_init_probe_window
                0x00000000003c34ee      0x124 build\libs\hi3861\release\no_mesh\libwifi_base.o
                0x00000000003c34ee                alg_autorate_init_probe_window
 .text.alg_autorate_init_probe_info
                0x00000000003c3612       0x52 build\libs\hi3861\release\no_mesh\libwifi_base.o
                0x00000000003c3612                alg_autorate_init_probe_info
 .text.alg_autorate_set_probe_data
                0x00000000003c3664       0x46 build\libs\hi3861\release\no_mesh\libwifi_base.o
                0x00000000003c3664                alg_autorate_set_probe_data
 .text.alg_autorate_update_probe_info
                0x00000000003c36aa       0x46 build\libs\hi3861\release\no_mesh\libwifi_base.o
                0x00000000003c36aa                alg_autorate_update_probe_info
 .text.alg_autorate_get_next_probe_rate
                0x00000000003c36f0       0x34 build\libs\hi3861\release\no_mesh\libwifi_base.o
                0x00000000003c36f0                alg_autorate_get_next_probe_rate
 .text.alg_autorate_non_probe_state_process_down
                0x00000000003c3724      0x124 build\libs\hi3861\release\no_mesh\libwifi_base.o
                0x00000000003c3724                alg_autorate_non_probe_state_process_down
 .text.alg_autorate_non_probe_state_process_up
                0x00000000003c3848       0xb6 build\libs\hi3861\release\no_mesh\libwifi_base.o
                0x00000000003c3848                alg_autorate_non_probe_state_process_up
 .text.alg_autorate_update_probe_wait_count
                0x00000000003c38fe       0x2a build\libs\hi3861\release\no_mesh\libwifi_base.o
                0x00000000003c38fe                alg_autorate_update_probe_wait_count
 .text.alg_autorate_update_probe_time_info
                0x00000000003c3928       0x18 build\libs\hi3861\release\no_mesh\libwifi_base.o
                0x00000000003c3928                alg_autorate_update_probe_time_info
 .text.alg_autorate_probe_state_process
                0x00000000003c3940      0x118 build\libs\hi3861\release\no_mesh\libwifi_base.o
                0x00000000003c3940                alg_autorate_probe_state_process
 .text.alg_autorate_non_probe_state_process
                0x00000000003c3a58       0x68 build\libs\hi3861\release\no_mesh\libwifi_base.o
                0x00000000003c3a58                alg_autorate_non_probe_state_process
 .text.alg_autorate_smooth_short_stat
                0x00000000003c3ac0       0x50 build\libs\hi3861\release\no_mesh\libwifi_base.o
                0x00000000003c3ac0                alg_autorate_smooth_short_stat
 .text.alg_autorate_smooth_long_stat
                0x00000000003c3b10       0x50 build\libs\hi3861\release\no_mesh\libwifi_base.o
                0x00000000003c3b10                alg_autorate_smooth_long_stat
 .text.alg_autorate_get_mpdu_length
                0x00000000003c3b60       0x7c build\libs\hi3861\release\no_mesh\libwifi_base.o
                0x00000000003c3b60                alg_autorate_get_mpdu_length
 .text.alg_autorate_sw_rate_update
                0x00000000003c3bdc      0x112 build\libs\hi3861\release\no_mesh\libwifi_base.o
                0x00000000003c3bdc                alg_autorate_sw_rate_update
 .text.alg_autorate_mcs0_cont_process
                0x00000000003c3cee       0x78 build\libs\hi3861\release\no_mesh\libwifi_base.o
                0x00000000003c3cee                alg_autorate_mcs0_cont_process
 .text.alg_autorate_set_user_rate_info
                0x00000000003c3d66       0x7c build\libs\hi3861\release\no_mesh\libwifi_base.o
                0x00000000003c3d66                alg_autorate_set_user_rate_info
 .text.alg_autorate_check_switch_out_11b
                0x00000000003c3de2       0xda build\libs\hi3861\release\no_mesh\libwifi_base.o
                0x00000000003c3de2                alg_autorate_check_switch_out_11b
 .text.alg_autorate_check_switch_into_11b
                0x00000000003c3ebc      0x118 build\libs\hi3861\release\no_mesh\libwifi_base.o
                0x00000000003c3ebc                alg_autorate_check_switch_into_11b
 .text.alg_autorate_switch_out_11b
                0x00000000003c3fd4       0x6c build\libs\hi3861\release\no_mesh\libwifi_base.o
                0x00000000003c3fd4                alg_autorate_switch_out_11b
 .text.alg_autorate_switch_into_11b
                0x00000000003c4040       0x8e build\libs\hi3861\release\no_mesh\libwifi_base.o
                0x00000000003c4040                alg_autorate_switch_into_11b
 .text.alg_autorate_select_rate_11b
                0x00000000003c40ce       0xb0 build\libs\hi3861\release\no_mesh\libwifi_base.o
                0x00000000003c40ce                alg_autorate_select_rate_11b
 .text.alg_autorate_check_goodput_variety
                0x00000000003c417e      0x11c build\libs\hi3861\release\no_mesh\libwifi_base.o
                0x00000000003c417e                alg_autorate_check_goodput_variety
 .text.alg_autorate_select_rate
                0x00000000003c429a       0xe4 build\libs\hi3861\release\no_mesh\libwifi_base.o
                0x00000000003c429a                alg_autorate_select_rate
 .text.alg_autorate_deep_fading_process
                0x00000000003c437e       0x56 build\libs\hi3861\release\no_mesh\libwifi_base.o
                0x00000000003c437e                alg_autorate_deep_fading_process
 .text.alg_autorate_check_retry_duration_exceed
                0x00000000003c43d4       0x9e build\libs\hi3861\release\no_mesh\libwifi_base.o
                0x00000000003c43d4                alg_autorate_check_retry_duration_exceed
 .text.alg_autorate_fast_smooth_long_stat
                0x00000000003c4472       0x46 build\libs\hi3861\release\no_mesh\libwifi_base.o
                0x00000000003c4472                alg_autorate_fast_smooth_long_stat
 .text.alg_autorate_fast_smooth_short_stat
                0x00000000003c44b8       0x42 build\libs\hi3861\release\no_mesh\libwifi_base.o
                0x00000000003c44b8                alg_autorate_fast_smooth_short_stat
 .text.alg_autorate_cal_last_rate
                0x00000000003c44fa       0xde build\libs\hi3861\release\no_mesh\libwifi_base.o
                0x00000000003c44fa                alg_autorate_cal_last_rate
 .text.alg_autorate_update_rate_info_print
                0x00000000003c45d8       0xa2 build\libs\hi3861\release\no_mesh\libwifi_base.o
                0x00000000003c45d8                alg_autorate_update_rate_info_print
 .text.alg_autorate_update_rate_set
                0x00000000003c467a      0x16c build\libs\hi3861\release\no_mesh\libwifi_base.o
                0x00000000003c467a                alg_autorate_update_rate_set
 .text.alg_autorate_update_last_rate_stat
                0x00000000003c47e6       0xda build\libs\hi3861\release\no_mesh\libwifi_base.o
                0x00000000003c47e6                alg_autorate_update_last_rate_stat
 .text.alg_autorate_update_last_second_rate_stat
                0x00000000003c48c0       0xfa build\libs\hi3861\release\no_mesh\libwifi_base.o
                0x00000000003c48c0                alg_autorate_update_last_second_rate_stat
 .text.alg_autorate_update_last_third_forth_rate_stat
                0x00000000003c49ba       0xaa build\libs\hi3861\release\no_mesh\libwifi_base.o
                0x00000000003c49ba                alg_autorate_update_last_third_forth_rate_stat
 .text.alg_autorate_update_rate_info_params
                0x00000000003c4a64       0xf0 build\libs\hi3861\release\no_mesh\libwifi_base.o
                0x00000000003c4a64                alg_autorate_update_rate_info_params
 .text.alg_autorate_update_first_loss_ratio
                0x00000000003c4b54       0x86 build\libs\hi3861\release\no_mesh\libwifi_base.o
                0x00000000003c4b54                alg_autorate_update_first_loss_ratio
 .text.alg_autorate_update_ampdu_stat
                0x00000000003c4bda       0xe6 build\libs\hi3861\release\no_mesh\libwifi_base.o
                0x00000000003c4bda                alg_autorate_update_ampdu_stat
 .text.alg_autorate_update_rate_info
                0x00000000003c4cc0      0x13e build\libs\hi3861\release\no_mesh\libwifi_base.o
                0x00000000003c4cc0                alg_autorate_update_rate_info
 .text.alg_autorate_set_av_vi_min_rate
                0x00000000003c4dfe       0xb6 build\libs\hi3861\release\no_mesh\libwifi_base.o
                0x00000000003c4dfe                alg_autorate_set_av_vi_min_rate
 .text.alg_autorate_set_first_rate_rts
                0x00000000003c4eb4       0xde build\libs\hi3861\release\no_mesh\libwifi_base.o
                0x00000000003c4eb4                alg_autorate_set_first_rate_rts
 .text.alg_autorate_set_min_rate
                0x00000000003c4f92       0xdc build\libs\hi3861\release\no_mesh\libwifi_base.o
                0x00000000003c4f92                alg_autorate_set_min_rate
 .text.alg_autorate_set_rate_set
                0x00000000003c506e       0xa2 build\libs\hi3861\release\no_mesh\libwifi_base.o
                0x00000000003c506e                alg_autorate_set_rate_set
 .text.alg_autorate_set_tx_rate_param
                0x00000000003c5110       0xc8 build\libs\hi3861\release\no_mesh\libwifi_base.o
                0x00000000003c5110                alg_autorate_set_tx_rate_param
 .text.alg_autorate_set_tx_mode_param
                0x00000000003c51d8       0x48 build\libs\hi3861\release\no_mesh\libwifi_base.o
                0x00000000003c51d8                alg_autorate_set_tx_mode_param
 .text.alg_autorate_set_second_tx_rate
                0x00000000003c5220       0xce build\libs\hi3861\release\no_mesh\libwifi_base.o
                0x00000000003c5220                alg_autorate_set_second_tx_rate
 .text.alg_autorate_get_frame_state
                0x00000000003c52ee       0x22 build\libs\hi3861\release\no_mesh\libwifi_base.o
                0x00000000003c52ee                alg_autorate_get_frame_state
 .text.alg_autorate_parse_tx_rate
                0x00000000003c5310       0x7c build\libs\hi3861\release\no_mesh\libwifi_base.o
                0x00000000003c5310                alg_autorate_parse_tx_rate
 .text.alg_autorate_tx_query_rate
                0x00000000003c538c       0xf4 build\libs\hi3861\release\no_mesh\libwifi_base.o
                0x00000000003c538c                alg_autorate_tx_query_rate
 .text.alg_autorate_tx_process
                0x00000000003c5480       0xb8 build\libs\hi3861\release\no_mesh\libwifi_base.o
                0x00000000003c5480                alg_autorate_tx_process
 .text.alg_autorate_tx_update_rate
                0x00000000003c5538       0xd2 build\libs\hi3861\release\no_mesh\libwifi_base.o
                0x00000000003c5538                alg_autorate_tx_update_rate
 .text.alg_autorate_tx_complete_process
                0x00000000003c560a      0x12a build\libs\hi3861\release\no_mesh\libwifi_base.o
                0x00000000003c560a                alg_autorate_tx_complete_process
 .text.alg_anti_intf_dyn_unlock_off_timer_handler
                0x00000000003c5734       0x3c build\libs\hi3861\release\no_mesh\libwifi_base.o
                0x00000000003c5734                alg_anti_intf_dyn_unlock_off_timer_handler
 .text.alg_anti_intf_tbtt_isr
                0x00000000003c5770       0x6e build\libs\hi3861\release\no_mesh\libwifi_base.o
                0x00000000003c5770                alg_anti_intf_tbtt_isr
 .text.alg_anti_intf_get_priv_stru
                0x00000000003c57de        0xa build\libs\hi3861\release\no_mesh\libwifi_base.o
                0x00000000003c57de                alg_anti_intf_get_priv_stru
 .text.alg_anti_intf_exit
                0x00000000003c57e8       0xe8 build\libs\hi3861\release\no_mesh\libwifi_base.o
                0x00000000003c57e8                alg_anti_intf_exit
 .text.alg_anti_intf_exit_user_info
                0x00000000003c58d0       0x42 build\libs\hi3861\release\no_mesh\libwifi_base.o
                0x00000000003c58d0                alg_anti_intf_exit_user_info
 .text.alg_anti_intf_get_avg_rssi
                0x00000000003c5912       0x10 build\libs\hi3861\release\no_mesh\libwifi_base.o
                0x00000000003c5912                alg_anti_intf_get_avg_rssi
 .text.alg_anti_intf_set_rssi_th_reg
                0x00000000003c5922       0xac build\libs\hi3861\release\no_mesh\libwifi_base.o
                0x00000000003c5922                alg_anti_intf_set_rssi_th_reg
 .text.alg_anti_intf_set_dyn_unlock_th_reg
                0x00000000003c59ce       0xee build\libs\hi3861\release\no_mesh\libwifi_base.o
                0x00000000003c59ce                alg_anti_intf_set_dyn_unlock_th_reg
 .text.alg_anti_intf_tx_complete_process
                0x00000000003c5abc       0x9c build\libs\hi3861\release\no_mesh\libwifi_base.o
                0x00000000003c5abc                alg_anti_intf_tx_complete_process
 .text.alg_anti_intf_rx_process
                0x00000000003c5b58       0x88 build\libs\hi3861\release\no_mesh\libwifi_base.o
                0x00000000003c5b58                alg_anti_intf_rx_process
 .text.alg_anti_intf_rx_mgmt_process
                0x00000000003c5be0       0x74 build\libs\hi3861\release\no_mesh\libwifi_base.o
                0x00000000003c5be0                alg_anti_intf_rx_mgmt_process
 .text.alg_anti_intf_is_all_vap_mode_sta
                0x00000000003c5c54       0x62 build\libs\hi3861\release\no_mesh\libwifi_base.o
                0x00000000003c5c54                alg_anti_intf_is_all_vap_mode_sta
 .text.alg_anti_intf_dyn_unlock_start_timer_handler
                0x00000000003c5cb6       0x44 build\libs\hi3861\release\no_mesh\libwifi_base.o
                0x00000000003c5cb6                alg_anti_intf_dyn_unlock_start_timer_handler
 .text.alg_anti_intf_next_probe_proc
                0x00000000003c5cfa       0x3c build\libs\hi3861\release\no_mesh\libwifi_base.o
                0x00000000003c5cfa                alg_anti_intf_next_probe_proc
 .text.alg_anti_intf_calc_goodput_diff
                0x00000000003c5d36       0x4c build\libs\hi3861\release\no_mesh\libwifi_base.o
                0x00000000003c5d36                alg_anti_intf_calc_goodput_diff
 .text.alg_anti_intf_rssi_update_user_info
                0x00000000003c5d82       0xda build\libs\hi3861\release\no_mesh\libwifi_base.o
                0x00000000003c5d82                alg_anti_intf_rssi_update_user_info
 .text.alg_anti_intf_rssi_update_user
                0x00000000003c5e5c       0xce build\libs\hi3861\release\no_mesh\libwifi_base.o
                0x00000000003c5e5c                alg_anti_intf_rssi_update_user
